{
  "address": "0x9844F9149Be2f94d7b34e988bebc0Bc04550826c",
  "abi": [
    {
      "inputs": [
        {
          "internalType": "address",
          "name": "_tokenAddress",
          "type": "address"
        }
      ],
      "stateMutability": "nonpayable",
      "type": "constructor"
    },
    {
      "anonymous": false,
      "inputs": [
        {
          "indexed": true,
          "internalType": "address",
          "name": "to",
          "type": "address"
        },
        {
          "indexed": false,
          "internalType": "uint256",
          "name": "amount",
          "type": "uint256"
        },
        {
          "indexed": false,
          "internalType": "uint256",
          "name": "timestamp",
          "type": "uint256"
        }
      ],
      "name": "CommissionPaid",
      "type": "event"
    },
    {
      "anonymous": false,
      "inputs": [
        {
          "indexed": false,
          "internalType": "string",
          "name": "config",
          "type": "string"
        },
        {
          "indexed": false,
          "internalType": "uint256",
          "name": "newValue",
          "type": "uint256"
        },
        {
          "indexed": false,
          "internalType": "uint256",
          "name": "timestamp",
          "type": "uint256"
        }
      ],
      "name": "ConfigUpdated",
      "type": "event"
    },
    {
      "anonymous": false,
      "inputs": [
        {
          "indexed": true,
          "internalType": "address",
          "name": "from",
          "type": "address"
        },
        {
          "indexed": false,
          "internalType": "uint256",
          "name": "amount",
          "type": "uint256"
        },
        {
          "indexed": false,
          "internalType": "uint256",
          "name": "timestamp",
          "type": "uint256"
        }
      ],
      "name": "DepositContract",
      "type": "event"
    },
    {
      "anonymous": false,
      "inputs": [
        {
          "indexed": true,
          "internalType": "address",
          "name": "from",
          "type": "address"
        },
        {
          "indexed": false,
          "internalType": "uint256",
          "name": "amount",
          "type": "uint256"
        },
        {
          "indexed": false,
          "internalType": "uint256",
          "name": "timestamp",
          "type": "uint256"
        }
      ],
      "name": "MembershipPaid",
      "type": "event"
    },
    {
      "anonymous": false,
      "inputs": [
        {
          "indexed": false,
          "internalType": "string",
          "name": "message",
          "type": "string"
        },
        {
          "indexed": true,
          "internalType": "address",
          "name": "oldOwner",
          "type": "address"
        },
        {
          "indexed": true,
          "internalType": "address",
          "name": "newOwner",
          "type": "address"
        },
        {
          "indexed": false,
          "internalType": "uint256",
          "name": "timestamp",
          "type": "uint256"
        }
      ],
      "name": "NewBusinessOwner",
      "type": "event"
    },
    {
      "anonymous": false,
      "inputs": [
        {
          "indexed": true,
          "internalType": "address",
          "name": "member",
          "type": "address"
        },
        {
          "indexed": false,
          "internalType": "uint256",
          "name": "timestamp",
          "type": "uint256"
        }
      ],
      "name": "NewMember",
      "type": "event"
    },
    {
      "anonymous": false,
      "inputs": [
        {
          "indexed": true,
          "internalType": "address",
          "name": "member",
          "type": "address"
        },
        {
          "indexed": false,
          "internalType": "uint256",
          "name": "amount",
          "type": "uint256"
        },
        {
          "indexed": false,
          "internalType": "uint256",
          "name": "timestamp",
          "type": "uint256"
        }
      ],
      "name": "NewSaving",
      "type": "event"
    },
    {
      "anonymous": false,
      "inputs": [
        {
          "indexed": true,
          "internalType": "address",
          "name": "previousOwner",
          "type": "address"
        },
        {
          "indexed": true,
          "internalType": "address",
          "name": "newOwner",
          "type": "address"
        }
      ],
      "name": "OwnershipTransferred",
      "type": "event"
    },
    {
      "anonymous": false,
      "inputs": [
        {
          "indexed": true,
          "internalType": "address",
          "name": "from",
          "type": "address"
        },
        {
          "indexed": false,
          "internalType": "uint256",
          "name": "amount",
          "type": "uint256"
        },
        {
          "indexed": false,
          "internalType": "uint256",
          "name": "timestamp",
          "type": "uint256"
        }
      ],
      "name": "TransferBusiness",
      "type": "event"
    },
    {
      "anonymous": false,
      "inputs": [
        {
          "indexed": true,
          "internalType": "address",
          "name": "to",
          "type": "address"
        },
        {
          "indexed": false,
          "internalType": "uint256",
          "name": "amount",
          "type": "uint256"
        },
        {
          "indexed": false,
          "internalType": "uint256",
          "name": "timestamp",
          "type": "uint256"
        }
      ],
      "name": "WithdrawalContract",
      "type": "event"
    },
    {
      "anonymous": false,
      "inputs": [
        {
          "indexed": true,
          "internalType": "address",
          "name": "to",
          "type": "address"
        },
        {
          "indexed": false,
          "internalType": "uint256",
          "name": "amount",
          "type": "uint256"
        },
        {
          "indexed": false,
          "internalType": "uint256",
          "name": "timestamp",
          "type": "uint256"
        }
      ],
      "name": "WithdrawalMember",
      "type": "event"
    },
    {
      "stateMutability": "payable",
      "type": "fallback"
    },
    {
      "inputs": [
        {
          "internalType": "address",
          "name": "_member",
          "type": "address"
        }
      ],
      "name": "checkActiveMember",
      "outputs": [
        {
          "internalType": "bool",
          "name": "",
          "type": "bool"
        }
      ],
      "stateMutability": "view",
      "type": "function"
    },
    {
      "inputs": [
        {
          "internalType": "address",
          "name": "_memberAddress",
          "type": "address"
        },
        {
          "internalType": "uint256",
          "name": "_decreaseAmount",
          "type": "uint256"
        }
      ],
      "name": "decreaseMemberFunds",
      "outputs": [],
      "stateMutability": "nonpayable",
      "type": "function"
    },
    {
      "inputs": [
        {
          "internalType": "uint256",
          "name": "_amount",
          "type": "uint256"
        }
      ],
      "name": "deposit",
      "outputs": [],
      "stateMutability": "nonpayable",
      "type": "function"
    },
    {
      "inputs": [
        {
          "internalType": "uint256",
          "name": "_amount",
          "type": "uint256"
        },
        {
          "internalType": "address",
          "name": "_firstLevelUpline",
          "type": "address"
        },
        {
          "internalType": "address",
          "name": "_secondLevelUpline",
          "type": "address"
        },
        {
          "internalType": "address",
          "name": "_thirtLevelUpline",
          "type": "address"
        }
      ],
      "name": "depositMemberFunds",
      "outputs": [],
      "stateMutability": "nonpayable",
      "type": "function"
    },
    {
      "inputs": [],
      "name": "getBusinessWallet",
      "outputs": [
        {
          "internalType": "address",
          "name": "",
          "type": "address"
        }
      ],
      "stateMutability": "view",
      "type": "function"
    },
    {
      "inputs": [],
      "name": "getCommissionTimestamp",
      "outputs": [
        {
          "internalType": "uint256",
          "name": "",
          "type": "uint256"
        }
      ],
      "stateMutability": "view",
      "type": "function"
    },
    {
      "inputs": [],
      "name": "getCurrentContractBalance",
      "outputs": [
        {
          "internalType": "uint256",
          "name": "",
          "type": "uint256"
        }
      ],
      "stateMutability": "view",
      "type": "function"
    },
    {
      "inputs": [],
      "name": "getDepositMultiple",
      "outputs": [
        {
          "internalType": "uint128",
          "name": "",
          "type": "uint128"
        }
      ],
      "stateMutability": "view",
      "type": "function"
    },
    {
      "inputs": [],
      "name": "getMaxContractBalance",
      "outputs": [
        {
          "internalType": "uint128",
          "name": "",
          "type": "uint128"
        }
      ],
      "stateMutability": "view",
      "type": "function"
    },
    {
      "inputs": [
        {
          "internalType": "address",
          "name": "_currentMember",
          "type": "address"
        }
      ],
      "name": "getMemberBalance",
      "outputs": [
        {
          "internalType": "uint256",
          "name": "",
          "type": "uint256"
        }
      ],
      "stateMutability": "view",
      "type": "function"
    },
    {
      "inputs": [],
      "name": "getMinAmountToDeposit",
      "outputs": [
        {
          "internalType": "uint128",
          "name": "",
          "type": "uint128"
        }
      ],
      "stateMutability": "view",
      "type": "function"
    },
    {
      "inputs": [],
      "name": "getPytTimestamp",
      "outputs": [
        {
          "internalType": "uint256",
          "name": "",
          "type": "uint256"
        }
      ],
      "stateMutability": "view",
      "type": "function"
    },
    {
      "inputs": [
        {
          "internalType": "address",
          "name": "_currentMember",
          "type": "address"
        }
      ],
      "name": "getTotalAffiliatesPerMember",
      "outputs": [
        {
          "internalType": "uint256",
          "name": "",
          "type": "uint256"
        }
      ],
      "stateMutability": "view",
      "type": "function"
    },
    {
      "inputs": [],
      "name": "getTotalMembers",
      "outputs": [
        {
          "internalType": "uint256",
          "name": "",
          "type": "uint256"
        }
      ],
      "stateMutability": "view",
      "type": "function"
    },
    {
      "inputs": [
        {
          "internalType": "address",
          "name": "_uplineAddress",
          "type": "address"
        },
        {
          "internalType": "address",
          "name": "_secondLevelUpline",
          "type": "address"
        },
        {
          "internalType": "address",
          "name": "_thirtLevelUpline",
          "type": "address"
        },
        {
          "internalType": "uint256",
          "name": "_amount",
          "type": "uint256"
        }
      ],
      "name": "memberEntrance",
      "outputs": [],
      "stateMutability": "nonpayable",
      "type": "function"
    },
    {
      "inputs": [],
      "name": "owner",
      "outputs": [
        {
          "internalType": "address",
          "name": "",
          "type": "address"
        }
      ],
      "stateMutability": "view",
      "type": "function"
    },
    {
      "inputs": [
        {
          "internalType": "uint256",
          "name": "_paymentAmount",
          "type": "uint256"
        },
        {
          "internalType": "address",
          "name": "_memberAddress",
          "type": "address"
        }
      ],
      "name": "paymentCommissions",
      "outputs": [],
      "stateMutability": "nonpayable",
      "type": "function"
    },
    {
      "inputs": [],
      "name": "renounceOwnership",
      "outputs": [],
      "stateMutability": "nonpayable",
      "type": "function"
    },
    {
      "inputs": [
        {
          "internalType": "address payable",
          "name": "_newBusinessWallet",
          "type": "address"
        }
      ],
      "name": "setBusinessWallet",
      "outputs": [],
      "stateMutability": "nonpayable",
      "type": "function"
    },
    {
      "inputs": [
        {
          "internalType": "uint8",
          "name": "_tier1",
          "type": "uint8"
        },
        {
          "internalType": "uint8",
          "name": "_tier2",
          "type": "uint8"
        },
        {
          "internalType": "uint8",
          "name": "_tier3",
          "type": "uint8"
        }
      ],
      "name": "setCommissionRates",
      "outputs": [],
      "stateMutability": "nonpayable",
      "type": "function"
    },
    {
      "inputs": [
        {
          "internalType": "uint128",
          "name": "_newMultiple",
          "type": "uint128"
        }
      ],
      "name": "setDepositMultiple",
      "outputs": [],
      "stateMutability": "nonpayable",
      "type": "function"
    },
    {
      "inputs": [
        {
          "internalType": "uint128",
          "name": "_newMaxBalance",
          "type": "uint128"
        }
      ],
      "name": "setMaxContractBalance",
      "outputs": [],
      "stateMutability": "nonpayable",
      "type": "function"
    },
    {
      "inputs": [
        {
          "internalType": "uint128",
          "name": "_toBusiness",
          "type": "uint128"
        },
        {
          "internalType": "uint128",
          "name": "_toUpline",
          "type": "uint128"
        }
      ],
      "name": "setMembershipPayments",
      "outputs": [],
      "stateMutability": "nonpayable",
      "type": "function"
    },
    {
      "inputs": [
        {
          "internalType": "uint128",
          "name": "_newMinAmount",
          "type": "uint128"
        }
      ],
      "name": "setMinAmountToDeposit",
      "outputs": [],
      "stateMutability": "nonpayable",
      "type": "function"
    },
    {
      "inputs": [
        {
          "internalType": "uint256",
          "name": "_pyt",
          "type": "uint256"
        },
        {
          "internalType": "uint256",
          "name": "_commission",
          "type": "uint256"
        }
      ],
      "name": "setTimestamps",
      "outputs": [],
      "stateMutability": "nonpayable",
      "type": "function"
    },
    {
      "inputs": [],
      "name": "token",
      "outputs": [
        {
          "internalType": "contract IERC20",
          "name": "",
          "type": "address"
        }
      ],
      "stateMutability": "view",
      "type": "function"
    },
    {
      "inputs": [
        {
          "internalType": "address",
          "name": "newOwner",
          "type": "address"
        }
      ],
      "name": "transferOwnership",
      "outputs": [],
      "stateMutability": "nonpayable",
      "type": "function"
    },
    {
      "inputs": [],
      "name": "withdraw",
      "outputs": [],
      "stateMutability": "nonpayable",
      "type": "function"
    },
    {
      "stateMutability": "payable",
      "type": "receive"
    }
  ],
  "transactionHash": "0xae58f7702f470c581ec82b1a32cac3efeb5e801e42a5d295cb9f583d9911430f",
  "args": [
    "0x4B846D9d563D434d275e2d3a532c30B0574DcA2e"
  ],
  "numDeployments": 3,
  "solcInputHash": "525b46b5ba6d728b1a1f98e58c36c48d",
  "bytecode": "0x60806040523480156200001157600080fd5b50604051620050d8380380620050d883398181016040528101906200003791906200067b565b620000576200004b6200032f60201b60201c565b6200033760201b60201c565b60018081905550600073ffffffffffffffffffffffffffffffffffffffff168173ffffffffffffffffffffffffffffffffffffffff1603620000d0576040517f08c379a0000000000000000000000000000000000000000000000000000000008152600401620000c7906200070e565b60405180910390fd5b6377359400600660006101000a8154816fffffffffffffffffffffffffffffffff02191690836fffffffffffffffffffffffffffffffff1602179055506509184e72a000600660106101000a8154816fffffffffffffffffffffffffffffffff02191690836fffffffffffffffffffffffffffffffff160217905550631dcd6500600760006101000a8154816fffffffffffffffffffffffffffffffff02191690836fffffffffffffffffffffffffffffffff1602179055506276a70060088190555062278d006009819055506317d78400600a60006101000a8154816fffffffffffffffffffffffffffffffff02191690836fffffffffffffffffffffffffffffffff1602179055506305f5e100600a60106101000a8154816fffffffffffffffffffffffffffffffff02191690836fffffffffffffffffffffffffffffffff1602179055506004600b60006101000a81548160ff021916908360ff1602179055506002600b60016101000a81548160ff021916908360ff1602179055506002600b60026101000a81548160ff021916908360ff16021790555033600360006101000a81548173ffffffffffffffffffffffffffffffffffffffff021916908373ffffffffffffffffffffffffffffffffffffffff16021790555080600260006101000a81548173ffffffffffffffffffffffffffffffffffffffff021916908373ffffffffffffffffffffffffffffffffffffffff160217905550600060058190555062000328600360009054906101000a900473ffffffffffffffffffffffffffffffffffffffff16620003fb60201b60201c565b5062000862565b600033905090565b60008060009054906101000a900473ffffffffffffffffffffffffffffffffffffffff169050816000806101000a81548173ffffffffffffffffffffffffffffffffffffffff021916908373ffffffffffffffffffffffffffffffffffffffff1602179055508173ffffffffffffffffffffffffffffffffffffffff168173ffffffffffffffffffffffffffffffffffffffff167f8be0079c531659141344cd1fd0a4f28419497f9722a3daafe3b4186f6b6457e060405160405180910390a35050565b80600073ffffffffffffffffffffffffffffffffffffffff168173ffffffffffffffffffffffffffffffffffffffff16036200046e576040517f08c379a0000000000000000000000000000000000000000000000000000000008152600401620004659062000780565b60405180910390fd5b60405180606001604052808373ffffffffffffffffffffffffffffffffffffffff1681526020016001151581526020016000815250600c60008473ffffffffffffffffffffffffffffffffffffffff1673ffffffffffffffffffffffffffffffffffffffff16815260200190815260200160002060008201518160000160006101000a81548173ffffffffffffffffffffffffffffffffffffffff021916908373ffffffffffffffffffffffffffffffffffffffff16021790555060208201518160000160146101000a81548160ff021916908315150217905550604082015181600101559050506004600081819054906101000a90046fffffffffffffffffffffffffffffffff16809291906200058690620007ed565b91906101000a8154816fffffffffffffffffffffffffffffffff02191690836fffffffffffffffffffffffffffffffff160217905550508173ffffffffffffffffffffffffffffffffffffffff167f7f48e4f7f3ef2c63408b16a799b8516cb879c145386aedd51a36938a02a1c2834260405162000605919062000845565b60405180910390a25050565b600080fd5b600073ffffffffffffffffffffffffffffffffffffffff82169050919050565b6000620006438262000616565b9050919050565b620006558162000636565b81146200066157600080fd5b50565b60008151905062000675816200064a565b92915050565b60006020828403121562000694576200069362000611565b5b6000620006a48482850162000664565b91505092915050565b600082825260208201905092915050565b7f546f6b656e20616464726573732063616e6e6f74206265207a65726f00000000600082015250565b6000620006f6601c83620006ad565b91506200070382620006be565b602082019050919050565b600060208201905081810360008301526200072981620006e7565b9050919050565b7f446972656363696f6e20696e76616c6964610000000000000000000000000000600082015250565b600062000768601283620006ad565b9150620007758262000730565b602082019050919050565b600060208201905081810360008301526200079b8162000759565b9050919050565b7f4e487b7100000000000000000000000000000000000000000000000000000000600052601160045260246000fd5b60006fffffffffffffffffffffffffffffffff82169050919050565b6000620007fa82620007d1565b91506fffffffffffffffffffffffffffffffff82036200081f576200081e620007a2565b5b600182019050919050565b6000819050919050565b6200083f816200082a565b82525050565b60006020820190506200085c600083018462000834565b92915050565b61486680620008726000396000f3fe6080604052600436106101bb5760003560e01c80637f7efd1a116100ec578063ca55753a1161008a578063d59392de11610064578063d59392de14610636578063f2fde38b14610661578063fa1019771461068a578063fc0c546a146106b3576101fb565b8063ca55753a14610593578063cc2ec6ab146105d0578063d1947705146105f9576101fb565b8063aa331db5116100c6578063aa331db5146104eb578063b315ea3614610516578063b6b55f251461053f578063b713087014610568576101fb565b80637f7efd1a146104585780638da5cb5b146104955780638f180305146104c0576101fb565b80633ccfd60b116101595780634d6ece02116101335780634d6ece02146103c45780635afe70d7146103ed5780636d79008114610416578063715018a614610441576101fb565b80633ccfd60b1461035b5780633f37da5f146103725780634b71810d1461039b576101fb565b80632f3f199c116101955780632f3f199c146102b357806335b2455b146102dc578063361f1ad31461030557806337ca3b0614610330576101fb565b80630aa63285146102365780630b760cd914610261578063258cf9b81461028a576101fb565b366101fb576040517f08c379a00000000000000000000000000000000000000000000000000000000081526004016101f290612c15565b60405180910390fd5b6040517f08c379a000000000000000000000000000000000000000000000000000000000815260040161022d90612c81565b60405180910390fd5b34801561024257600080fd5b5061024b6106de565b6040516102589190612cba565b60405180910390f35b34801561026d57600080fd5b5061028860048036038101906102839190612d22565b6106e8565b005b34801561029657600080fd5b506102b160048036038101906102ac9190612d4f565b6107ba565b005b3480156102bf57600080fd5b506102da60048036038101906102d59190612d22565b6108ef565b005b3480156102e857600080fd5b5061030360048036038101906102fe9190612e19565b6109f0565b005b34801561031157600080fd5b5061031a610b11565b6040516103279190612e68565b60405180910390f35b34801561033c57600080fd5b50610345610b37565b6040516103529190612cba565b60405180910390f35b34801561036757600080fd5b50610370610b41565b005b34801561037e57600080fd5b5061039960048036038101906103949190612d22565b610b62565b005b3480156103a757600080fd5b506103c260048036038101906103bd9190612ebc565b610cb8565b005b3480156103d057600080fd5b506103eb60048036038101906103e69190612f0f565b610dc2565b005b3480156103f957600080fd5b50610414600480360381019061040f9190612f8d565b610f15565b005b34801561042257600080fd5b5061042b611057565b6040516104389190612cba565b60405180910390f35b34801561044d57600080fd5b50610456611102565b005b34801561046457600080fd5b5061047f600480360381019061047a9190612fba565b611116565b60405161048c9190613002565b60405180910390f35b3480156104a157600080fd5b506104aa61116f565b6040516104b7919061302c565b60405180910390f35b3480156104cc57600080fd5b506104d5611198565b6040516104e29190612cba565b60405180910390f35b3480156104f757600080fd5b506105006111d0565b60405161050d919061302c565b60405180910390f35b34801561052257600080fd5b5061053d60048036038101906105389190613047565b6111fa565b005b34801561054b57600080fd5b50610566600480360381019061056191906130ae565b611406565b005b34801561057457600080fd5b5061057d6114a6565b60405161058a9190612e68565b60405180910390f35b34801561059f57600080fd5b506105ba60048036038101906105b59190612fba565b6114cc565b6040516105c79190612cba565b60405180910390f35b3480156105dc57600080fd5b506105f760048036038101906105f291906130db565b611518565b005b34801561060557600080fd5b50610620600480360381019061061b9190612fba565b611b2e565b60405161062d9190612cba565b60405180910390f35b34801561064257600080fd5b5061064b611b7a565b6040516106589190612e68565b60405180910390f35b34801561066d57600080fd5b5061068860048036038101906106839190612fba565b611ba0565b005b34801561069657600080fd5b506106b160048036038101906106ac9190613142565b611c23565b005b3480156106bf57600080fd5b506106c8611cd0565b6040516106d591906131e1565b60405180910390f35b6000600954905090565b6106f0611cf6565b6000816fffffffffffffffffffffffffffffffff1611610745576040517f08c379a000000000000000000000000000000000000000000000000000000000815260040161073c90613248565b60405180910390fd5b80600760006101000a8154816fffffffffffffffffffffffffffffffff02191690836fffffffffffffffffffffffffffffffff1602179055507fd7474166e78731bc168caca1fe1ccebbd6f3c95baee64997902e6b48f442b81a81426040516107af9291906132e5565b60405180910390a150565b6107c2611cf6565b6000826fffffffffffffffffffffffffffffffff161180156107f657506000816fffffffffffffffffffffffffffffffff16115b610835576040517f08c379a000000000000000000000000000000000000000000000000000000000815260040161082c90613393565b60405180910390fd5b81600a60006101000a8154816fffffffffffffffffffffffffffffffff02191690836fffffffffffffffffffffffffffffffff16021790555080600a60106101000a8154816fffffffffffffffffffffffffffffffff02191690836fffffffffffffffffffffffffffffffff1602179055507fd7474166e78731bc168caca1fe1ccebbd6f3c95baee64997902e6b48f442b81a81836108d491906133e2565b426040516108e3929190613472565b60405180910390a15050565b6108f7611cf6565b600660009054906101000a90046fffffffffffffffffffffffffffffffff166fffffffffffffffffffffffffffffffff16816fffffffffffffffffffffffffffffffff161161097b576040517f08c379a0000000000000000000000000000000000000000000000000000000008152600401610972906134fa565b60405180910390fd5b80600660106101000a8154816fffffffffffffffffffffffffffffffff02191690836fffffffffffffffffffffffffffffffff1602179055507fd7474166e78731bc168caca1fe1ccebbd6f3c95baee64997902e6b48f442b81a81426040516109e5929190613566565b60405180910390a150565b6109f8611cf6565b80600073ffffffffffffffffffffffffffffffffffffffff168173ffffffffffffffffffffffffffffffffffffffff1603610a68576040517f08c379a0000000000000000000000000000000000000000000000000000000008152600401610a5f906135ee565b60405180910390fd5b82610a71611057565b1015610ab2576040517f08c379a0000000000000000000000000000000000000000000000000000000008152600401610aa990613680565b60405180910390fd5b610abc8284611d74565b8173ffffffffffffffffffffffffffffffffffffffff167fe37b2ae9cc03ec700b9146c4df2fc797e7a1119c08fc25513755ab5315faa6d28442604051610b049291906136a0565b60405180910390a2505050565b6000600660009054906101000a90046fffffffffffffffffffffffffffffffff16905090565b6000600854905090565b610b49611cf6565b6000610b53611057565b9050610b5f3382611e08565b50565b610b6a611cf6565b6000816fffffffffffffffffffffffffffffffff1611610bbf576040517f08c379a0000000000000000000000000000000000000000000000000000000008152600401610bb69061373b565b60405180910390fd5b600660109054906101000a90046fffffffffffffffffffffffffffffffff166fffffffffffffffffffffffffffffffff16816fffffffffffffffffffffffffffffffff1610610c43576040517f08c379a0000000000000000000000000000000000000000000000000000000008152600401610c3a906137a7565b60405180910390fd5b80600660006101000a8154816fffffffffffffffffffffffffffffffff02191690836fffffffffffffffffffffffffffffffff1602179055507fd7474166e78731bc168caca1fe1ccebbd6f3c95baee64997902e6b48f442b81a8142604051610cad929190613813565b60405180910390a150565b610cc0611cf6565b6064818385610ccf919061384f565b610cd9919061384f565b60ff161115610d1d576040517f08c379a0000000000000000000000000000000000000000000000000000000008152600401610d14906138f6565b60405180910390fd5b82600b60006101000a81548160ff021916908360ff16021790555081600b60016101000a81548160ff021916908360ff16021790555080600b60026101000a81548160ff021916908360ff1602179055507fd7474166e78731bc168caca1fe1ccebbd6f3c95baee64997902e6b48f442b81a818385610d9c919061384f565b610da6919061384f565b42604051610db5929190613993565b60405180910390a1505050565b610dca611cf6565b6000600c60008473ffffffffffffffffffffffffffffffffffffffff1673ffffffffffffffffffffffffffffffffffffffff16815260200190815260200160002090508060000160149054906101000a900460ff16610e5e576040517f08c379a0000000000000000000000000000000000000000000000000000000008152600401610e5590613a1b565b60405180910390fd5b8181600101541015610ea5576040517f08c379a0000000000000000000000000000000000000000000000000000000008152600401610e9c90613a87565b60405180910390fd5b81816001016000828254610eb99190613aa7565b925050819055508273ffffffffffffffffffffffffffffffffffffffff167f8d39944b06acdac638a7aa16ecba5a5b350aba42c775308dab4c947d91f4f18a8342604051610f089291906136a0565b60405180910390a2505050565b610f1d611cf6565b600073ffffffffffffffffffffffffffffffffffffffff168173ffffffffffffffffffffffffffffffffffffffff1603610f8c576040517f08c379a0000000000000000000000000000000000000000000000000000000008152600401610f8390613b27565b60405180910390fd5b80600360006101000a81548173ffffffffffffffffffffffffffffffffffffffff021916908373ffffffffffffffffffffffffffffffffffffffff1602179055508073ffffffffffffffffffffffffffffffffffffffff16600360009054906101000a900473ffffffffffffffffffffffffffffffffffffffff1673ffffffffffffffffffffffffffffffffffffffff167f9d6ad1956bc285ee763af0abf79be6b40f0fe495e250bd80c1bae2293ecc1df84260405161104c9190613b93565b60405180910390a350565b6000611061611cf6565b600260009054906101000a900473ffffffffffffffffffffffffffffffffffffffff1673ffffffffffffffffffffffffffffffffffffffff166370a08231306040518263ffffffff1660e01b81526004016110bc919061302c565b602060405180830381865afa1580156110d9573d6000803e3d6000fd5b505050506040513d601f19601f820116820180604052508101906110fd9190613bd6565b905090565b61110a611cf6565b6111146000611ec0565b565b6000600c60008373ffffffffffffffffffffffffffffffffffffffff1673ffffffffffffffffffffffffffffffffffffffff16815260200190815260200160002060000160149054906101000a900460ff169050919050565b60008060009054906101000a900473ffffffffffffffffffffffffffffffffffffffff16905090565b6000600460009054906101000a90046fffffffffffffffffffffffffffffffff166fffffffffffffffffffffffffffffffff16905090565b6000600360009054906101000a900473ffffffffffffffffffffffffffffffffffffffff16905090565b600c60003373ffffffffffffffffffffffffffffffffffffffff1673ffffffffffffffffffffffffffffffffffffffff16815260200190815260200160002060000160149054906101000a900460ff166112585761125733611f84565b5b600073ffffffffffffffffffffffffffffffffffffffff168473ffffffffffffffffffffffffffffffffffffffff161461133157600d60008573ffffffffffffffffffffffffffffffffffffffff1673ffffffffffffffffffffffffffffffffffffffff168152602001908152602001600020339080600181540180825580915050600190039060005260206000200160009091909190916101000a81548173ffffffffffffffffffffffffffffffffffffffff021916908373ffffffffffffffffffffffffffffffffffffffff1602179055506113f4565b600d6000600360009054906101000a900473ffffffffffffffffffffffffffffffffffffffff1673ffffffffffffffffffffffffffffffffffffffff1673ffffffffffffffffffffffffffffffffffffffff168152602001908152602001600020339080600181540180825580915050600190039060005260206000200160009091909190916101000a81548173ffffffffffffffffffffffffffffffffffffffff021916908373ffffffffffffffffffffffffffffffffffffffff1602179055505b61140081858585612193565b50505050565b61140e611cf6565b600081611419611057565b6114239190613c03565b9050600660109054906101000a90046fffffffffffffffffffffffffffffffff166fffffffffffffffffffffffffffffffff16811115611498576040517f08c379a000000000000000000000000000000000000000000000000000000000815260040161148f90613ca9565b60405180910390fd5b6114a233836124ee565b5050565b6000600660109054906101000a90046fffffffffffffffffffffffffffffffff16905090565b6000600c60008373ffffffffffffffffffffffffffffffffffffffff1673ffffffffffffffffffffffffffffffffffffffff168152602001908152602001600020600101549050919050565b600c60003373ffffffffffffffffffffffffffffffffffffffff1673ffffffffffffffffffffffffffffffffffffffff16815260200190815260200160002060000160149054906101000a900460ff166115a7576040517f08c379a000000000000000000000000000000000000000000000000000000000815260040161159e90613a1b565b60405180910390fd5b600660009054906101000a90046fffffffffffffffffffffffffffffffff166fffffffffffffffffffffffffffffffff1684101561161a576040517f08c379a000000000000000000000000000000000000000000000000000000000815260040161161190613d15565b60405180910390fd5b6000600760009054906101000a90046fffffffffffffffffffffffffffffffff166fffffffffffffffffffffffffffffffff16856116589190613d64565b14611698576040517f08c379a000000000000000000000000000000000000000000000000000000000815260040161168f90613de1565b60405180910390fd5b600660109054906101000a90046fffffffffffffffffffffffffffffffff166fffffffffffffffffffffffffffffffff16846005546116d79190613c03565b1115611718576040517f08c379a000000000000000000000000000000000000000000000000000000000815260040161170f90613e73565b60405180910390fd5b61172233856124ee565b83600560008282546117349190613c03565b9250508190555083600c60003373ffffffffffffffffffffffffffffffffffffffff1673ffffffffffffffffffffffffffffffffffffffff168152602001908152602001600020600101600082825461178d9190613c03565b925050819055503373ffffffffffffffffffffffffffffffffffffffff167f6e88c611323cf4a2bd9e908bf748750db2a19609319972f06a960f492071e0e085426040516117dc9291906136a0565b60405180910390a2600061180285600b60009054906101000a900460ff1660ff16612792565b9050600061182286600b60019054906101000a900460ff1660ff16612792565b9050600061184287600b60029054906101000a900460ff1660ff16612792565b905060008183856118539190613c03565b61185d9190613c03565b90506000818961186d9190613aa7565b90508181116118b1576040517f08c379a00000000000000000000000000000000000000000000000000000000081526004016118a890613f05565b60405180910390fd5b600073ffffffffffffffffffffffffffffffffffffffff168873ffffffffffffffffffffffffffffffffffffffff1614611944576118ef8886611d74565b8773ffffffffffffffffffffffffffffffffffffffff167fe37b2ae9cc03ec700b9146c4df2fc797e7a1119c08fc25513755ab5315faa6d286426040516119379291906136a0565b60405180910390a2600094505b600073ffffffffffffffffffffffffffffffffffffffff168773ffffffffffffffffffffffffffffffffffffffff16146119d7576119828785611d74565b8673ffffffffffffffffffffffffffffffffffffffff167fe37b2ae9cc03ec700b9146c4df2fc797e7a1119c08fc25513755ab5315faa6d285426040516119ca9291906136a0565b60405180910390a2600093505b600073ffffffffffffffffffffffffffffffffffffffff168673ffffffffffffffffffffffffffffffffffffffff1614611a6a57611a158684611d74565b8573ffffffffffffffffffffffffffffffffffffffff167fe37b2ae9cc03ec700b9146c4df2fc797e7a1119c08fc25513755ab5315faa6d28642604051611a5d9291906136a0565b60405180910390a2600092505b828486611a779190613c03565b611a819190613c03565b81611a8c9190613c03565b9050611aba600360009054906101000a900473ffffffffffffffffffffffffffffffffffffffff1682611d74565b8860056000828254611acc9190613c03565b925050819055503373ffffffffffffffffffffffffffffffffffffffff167f3428e989e797df55e8af7c22735e19d98f469023d200174911b2c8e0870240fe8a42604051611b1b9291906136a0565b60405180910390a2505050505050505050565b6000600d60008373ffffffffffffffffffffffffffffffffffffffff1673ffffffffffffffffffffffffffffffffffffffff168152602001908152602001600020805490509050919050565b6000600760009054906101000a90046fffffffffffffffffffffffffffffffff16905090565b611ba8611cf6565b600073ffffffffffffffffffffffffffffffffffffffff168173ffffffffffffffffffffffffffffffffffffffff1603611c17576040517f08c379a0000000000000000000000000000000000000000000000000000000008152600401611c0e90613f97565b60405180910390fd5b611c2081611ec0565b50565b611c2b611cf6565b600082118015611c3b5750600081115b611c7a576040517f08c379a0000000000000000000000000000000000000000000000000000000008152600401611c7190614029565b60405180910390fd5b81600881905550806009819055507fd7474166e78731bc168caca1fe1ccebbd6f3c95baee64997902e6b48f442b81a8183611cb59190613c03565b42604051611cc4929190614095565b60405180910390a15050565b600260009054906101000a900473ffffffffffffffffffffffffffffffffffffffff1681565b611cfe6127b4565b73ffffffffffffffffffffffffffffffffffffffff16611d1c61116f565b73ffffffffffffffffffffffffffffffffffffffff1614611d72576040517f08c379a0000000000000000000000000000000000000000000000000000000008152600401611d699061411d565b60405180910390fd5b565b60008111611db7576040517f08c379a0000000000000000000000000000000000000000000000000000000008152600401611dae906141af565b60405180910390fd5b611e048282600260009054906101000a900473ffffffffffffffffffffffffffffffffffffffff1673ffffffffffffffffffffffffffffffffffffffff166127bc9092919063ffffffff16565b5050565b611e10612842565b80611e19611057565b1015611e5a576040517f08c379a0000000000000000000000000000000000000000000000000000000008152600401611e5190613680565b60405180910390fd5b611e648282611d74565b3373ffffffffffffffffffffffffffffffffffffffff167f6dc924e950dd523781352d0a7468f2ee2905084dea2bb7411d7996224ce75a888242604051611eac9291906136a0565b60405180910390a2611ebc612891565b5050565b60008060009054906101000a900473ffffffffffffffffffffffffffffffffffffffff169050816000806101000a81548173ffffffffffffffffffffffffffffffffffffffff021916908373ffffffffffffffffffffffffffffffffffffffff1602179055508173ffffffffffffffffffffffffffffffffffffffff168173ffffffffffffffffffffffffffffffffffffffff167f8be0079c531659141344cd1fd0a4f28419497f9722a3daafe3b4186f6b6457e060405160405180910390a35050565b80600073ffffffffffffffffffffffffffffffffffffffff168173ffffffffffffffffffffffffffffffffffffffff1603611ff4576040517f08c379a0000000000000000000000000000000000000000000000000000000008152600401611feb906135ee565b60405180910390fd5b60405180606001604052808373ffffffffffffffffffffffffffffffffffffffff1681526020016001151581526020016000815250600c60008473ffffffffffffffffffffffffffffffffffffffff1673ffffffffffffffffffffffffffffffffffffffff16815260200190815260200160002060008201518160000160006101000a81548173ffffffffffffffffffffffffffffffffffffffff021916908373ffffffffffffffffffffffffffffffffffffffff16021790555060208201518160000160146101000a81548160ff021916908315150217905550604082015181600101559050506004600081819054906101000a90046fffffffffffffffffffffffffffffffff168092919061210a906141cf565b91906101000a8154816fffffffffffffffffffffffffffffffff02191690836fffffffffffffffffffffffffffffffff160217905550508173ffffffffffffffffffffffffffffffffffffffff167f7f48e4f7f3ef2c63408b16a799b8516cb879c145386aedd51a36938a02a1c283426040516121879190612cba565b60405180910390a25050565b600c60003373ffffffffffffffffffffffffffffffffffffffff1673ffffffffffffffffffffffffffffffffffffffff16815260200190815260200160002060000160149054906101000a900460ff16612222576040517f08c379a000000000000000000000000000000000000000000000000000000000815260040161221990613a1b565b60405180910390fd5b6000600a60109054906101000a90046fffffffffffffffffffffffffffffffff16600a60009054906101000a90046fffffffffffffffffffffffffffffffff1661226c91906133e2565b6fffffffffffffffffffffffffffffffff1690506000818661228e9190613aa7565b905081600660009054906101000a90046fffffffffffffffffffffffffffffffff166fffffffffffffffffffffffffffffffff166122cc9190613c03565b86101561230e576040517f08c379a000000000000000000000000000000000000000000000000000000000815260040161230590614253565b60405180910390fd5b61231833876124ee565b612374600360009054906101000a900473ffffffffffffffffffffffffffffffffffffffff16600a60009054906101000a90046fffffffffffffffffffffffffffffffff166fffffffffffffffffffffffffffffffff16611d74565b3373ffffffffffffffffffffffffffffffffffffffff167f8fed26ea05e17903891c5c2a70ac7ce2aeafbb48acf403b9defdb2c96ab2e5c3600a60009054906101000a90046fffffffffffffffffffffffffffffffff16426040516123da929190614273565b60405180910390a261241c85600a60109054906101000a90046fffffffffffffffffffffffffffffffff166fffffffffffffffffffffffffffffffff16611d74565b8473ffffffffffffffffffffffffffffffffffffffff167fe37b2ae9cc03ec700b9146c4df2fc797e7a1119c08fc25513755ab5315faa6d2600a60109054906101000a90046fffffffffffffffffffffffffffffffff1642604051612482929190614273565b60405180910390a261249681868686611518565b3373ffffffffffffffffffffffffffffffffffffffff167f6e88c611323cf4a2bd9e908bf748750db2a19609319972f06a960f492071e0e082426040516124de9291906136a0565b60405180910390a2505050505050565b80600260009054906101000a900473ffffffffffffffffffffffffffffffffffffffff1673ffffffffffffffffffffffffffffffffffffffff1663dd62ed3e84306040518363ffffffff1660e01b815260040161254c92919061429c565b602060405180830381865afa158015612569573d6000803e3d6000fd5b505050506040513d601f19601f8201168201806040525081019061258d9190613bd6565b10156125ce576040517f08c379a00000000000000000000000000000000000000000000000000000000081526004016125c590614311565b60405180910390fd5b600260009054906101000a900473ffffffffffffffffffffffffffffffffffffffff1673ffffffffffffffffffffffffffffffffffffffff166370a08231836040518263ffffffff1660e01b8152600401612629919061302c565b602060405180830381865afa158015612646573d6000803e3d6000fd5b505050506040513d601f19601f8201168201806040525081019061266a9190613bd6565b8111156126ac576040517f08c379a00000000000000000000000000000000000000000000000000000000081526004016126a39061437d565b60405180910390fd5b600081116126ef576040517f08c379a00000000000000000000000000000000000000000000000000000000081526004016126e6906143e9565b60405180910390fd5b61273e823083600260009054906101000a900473ffffffffffffffffffffffffffffffffffffffff1673ffffffffffffffffffffffffffffffffffffffff1661289a909392919063ffffffff16565b8173ffffffffffffffffffffffffffffffffffffffff167f695b93e5f85b6ac34424e1299d94bc079fb230aa7e5568a4e2e6214828cc936b82426040516127869291906136a0565b60405180910390a25050565b6000606482846127a29190614409565b6127ac919061444b565b905092915050565b600033905090565b61283d8363a9059cbb60e01b84846040516024016127db92919061447c565b604051602081830303815290604052907bffffffffffffffffffffffffffffffffffffffffffffffffffffffff19166020820180517bffffffffffffffffffffffffffffffffffffffffffffffffffffffff8381831617835250505050612923565b505050565b600260015403612887576040517f08c379a000000000000000000000000000000000000000000000000000000000815260040161287e906144f1565b60405180910390fd5b6002600181905550565b60018081905550565b61291d846323b872dd60e01b8585856040516024016128bb93929190614511565b604051602081830303815290604052907bffffffffffffffffffffffffffffffffffffffffffffffffffffffff19166020820180517bffffffffffffffffffffffffffffffffffffffffffffffffffffffff8381831617835250505050612923565b50505050565b6000612985826040518060400160405280602081526020017f5361666545524332303a206c6f772d6c6576656c2063616c6c206661696c65648152508573ffffffffffffffffffffffffffffffffffffffff166129eb9092919063ffffffff16565b90506000815114806129a75750808060200190518101906129a69190614574565b5b6129e6576040517f08c379a00000000000000000000000000000000000000000000000000000000081526004016129dd90614613565b60405180910390fd5b505050565b60606129fa8484600085612a03565b90509392505050565b606082471015612a48576040517f08c379a0000000000000000000000000000000000000000000000000000000008152600401612a3f906146a5565b60405180910390fd5b6000808673ffffffffffffffffffffffffffffffffffffffff168587604051612a719190614736565b60006040518083038185875af1925050503d8060008114612aae576040519150601f19603f3d011682016040523d82523d6000602084013e612ab3565b606091505b5091509150612ac487838387612ad0565b92505050949350505050565b60608315612b32576000835103612b2a57612aea85612b45565b612b29576040517f08c379a0000000000000000000000000000000000000000000000000000000008152600401612b2090614799565b60405180910390fd5b5b829050612b3d565b612b3c8383612b68565b5b949350505050565b6000808273ffffffffffffffffffffffffffffffffffffffff163b119050919050565b600082511115612b7b5781518083602001fd5b806040517f08c379a0000000000000000000000000000000000000000000000000000000008152600401612baf919061480e565b60405180910390fd5b600082825260208201905092915050565b7f4574686572206e6f742061636365707465640000000000000000000000000000600082015250565b6000612bff601283612bb8565b9150612c0a82612bc9565b602082019050919050565b60006020820190508181036000830152612c2e81612bf2565b9050919050565b7f46756e6374696f6e206e6f7420737570706f7274656400000000000000000000600082015250565b6000612c6b601683612bb8565b9150612c7682612c35565b602082019050919050565b60006020820190508181036000830152612c9a81612c5e565b9050919050565b6000819050919050565b612cb481612ca1565b82525050565b6000602082019050612ccf6000830184612cab565b92915050565b600080fd5b60006fffffffffffffffffffffffffffffffff82169050919050565b612cff81612cda565b8114612d0a57600080fd5b50565b600081359050612d1c81612cf6565b92915050565b600060208284031215612d3857612d37612cd5565b5b6000612d4684828501612d0d565b91505092915050565b60008060408385031215612d6657612d65612cd5565b5b6000612d7485828601612d0d565b9250506020612d8585828601612d0d565b9150509250929050565b612d9881612ca1565b8114612da357600080fd5b50565b600081359050612db581612d8f565b92915050565b600073ffffffffffffffffffffffffffffffffffffffff82169050919050565b6000612de682612dbb565b9050919050565b612df681612ddb565b8114612e0157600080fd5b50565b600081359050612e1381612ded565b92915050565b60008060408385031215612e3057612e2f612cd5565b5b6000612e3e85828601612da6565b9250506020612e4f85828601612e04565b9150509250929050565b612e6281612cda565b82525050565b6000602082019050612e7d6000830184612e59565b92915050565b600060ff82169050919050565b612e9981612e83565b8114612ea457600080fd5b50565b600081359050612eb681612e90565b92915050565b600080600060608486031215612ed557612ed4612cd5565b5b6000612ee386828701612ea7565b9350506020612ef486828701612ea7565b9250506040612f0586828701612ea7565b9150509250925092565b60008060408385031215612f2657612f25612cd5565b5b6000612f3485828601612e04565b9250506020612f4585828601612da6565b9150509250929050565b6000612f5a82612dbb565b9050919050565b612f6a81612f4f565b8114612f7557600080fd5b50565b600081359050612f8781612f61565b92915050565b600060208284031215612fa357612fa2612cd5565b5b6000612fb184828501612f78565b91505092915050565b600060208284031215612fd057612fcf612cd5565b5b6000612fde84828501612e04565b91505092915050565b60008115159050919050565b612ffc81612fe7565b82525050565b60006020820190506130176000830184612ff3565b92915050565b61302681612ddb565b82525050565b6000602082019050613041600083018461301d565b92915050565b6000806000806080858703121561306157613060612cd5565b5b600061306f87828801612e04565b945050602061308087828801612e04565b935050604061309187828801612e04565b92505060606130a287828801612da6565b91505092959194509250565b6000602082840312156130c4576130c3612cd5565b5b60006130d284828501612da6565b91505092915050565b600080600080608085870312156130f5576130f4612cd5565b5b600061310387828801612da6565b945050602061311487828801612e04565b935050604061312587828801612e04565b925050606061313687828801612e04565b91505092959194509250565b6000806040838503121561315957613158612cd5565b5b600061316785828601612da6565b925050602061317885828601612da6565b9150509250929050565b6000819050919050565b60006131a76131a261319d84612dbb565b613182565b612dbb565b9050919050565b60006131b98261318c565b9050919050565b60006131cb826131ae565b9050919050565b6131db816131c0565b82525050565b60006020820190506131f660008301846131d2565b92915050565b7f4d756c7469706c65206d7573742062652067726561746572207468616e203000600082015250565b6000613232601f83612bb8565b915061323d826131fc565b602082019050919050565b6000602082019050818103600083015261326181613225565b9050919050565b7f4445504f5349545f4d554c5449504c4500000000000000000000000000000000600082015250565b600061329e601083612bb8565b91506132a982613268565b602082019050919050565b60006132cf6132ca6132c584612cda565b613182565b612ca1565b9050919050565b6132df816132b4565b82525050565b600060608201905081810360008301526132fe81613291565b905061330d60208301856132d6565b61331a6040830184612cab565b9392505050565b7f4d656d62657273686970207061796d656e7473206d75737420626520706f736960008201527f7469766500000000000000000000000000000000000000000000000000000000602082015250565b600061337d602483612bb8565b915061338882613321565b604082019050919050565b600060208201905081810360008301526133ac81613370565b9050919050565b7f4e487b7100000000000000000000000000000000000000000000000000000000600052601160045260246000fd5b60006133ed82612cda565b91506133f883612cda565b925082820190506fffffffffffffffffffffffffffffffff8111156134205761341f6133b3565b5b92915050565b7f4d454d424552534849505f5041594d454e545300000000000000000000000000600082015250565b600061345c601383612bb8565b915061346782613426565b602082019050919050565b6000606082019050818103600083015261348b8161344f565b905061349a60208301856132d6565b6134a76040830184612cab565b9392505050565b7f4d6178206d75737420657863656564206d696e00000000000000000000000000600082015250565b60006134e4601383612bb8565b91506134ef826134ae565b602082019050919050565b60006020820190508181036000830152613513816134d7565b9050919050565b7f4d41585f434f4e54524143545f42414c414e4345000000000000000000000000600082015250565b6000613550601483612bb8565b915061355b8261351a565b602082019050919050565b6000606082019050818103600083015261357f81613543565b905061358e60208301856132d6565b61359b6040830184612cab565b9392505050565b7f446972656363696f6e20696e76616c6964610000000000000000000000000000600082015250565b60006135d8601283612bb8565b91506135e3826135a2565b602082019050919050565b60006020820190508181036000830152613607816135cb565b9050919050565b7f436f6e747261746f206e6f206375656e746120636f6e20737566696369656e7460008201527f657320666f6e646f730000000000000000000000000000000000000000000000602082015250565b600061366a602983612bb8565b91506136758261360e565b604082019050919050565b600060208201905081810360008301526136998161365d565b9050919050565b60006040820190506136b56000830185612cab565b6136c26020830184612cab565b9392505050565b7f4d696e696d756d20616d6f756e74206d7573742062652067726561746572207460008201527f68616e2030000000000000000000000000000000000000000000000000000000602082015250565b6000613725602583612bb8565b9150613730826136c9565b604082019050919050565b6000602082019050818103600083015261375481613718565b9050919050565b7f4d696e2063616e6e6f7420657863656564206d61780000000000000000000000600082015250565b6000613791601583612bb8565b915061379c8261375b565b602082019050919050565b600060208201905081810360008301526137c081613784565b9050919050565b7f4d494e5f414d4f554e545f544f5f4445504f5349540000000000000000000000600082015250565b60006137fd601583612bb8565b9150613808826137c7565b602082019050919050565b6000606082019050818103600083015261382c816137f0565b905061383b60208301856132d6565b6138486040830184612cab565b9392505050565b600061385a82612e83565b915061386583612e83565b9250828201905060ff81111561387e5761387d6133b3565b5b92915050565b7f546f74616c20636f6d6d697373696f6e2063616e6e6f7420657863656564203160008201527f3030250000000000000000000000000000000000000000000000000000000000602082015250565b60006138e0602383612bb8565b91506138eb82613884565b604082019050919050565b6000602082019050818103600083015261390f816138d3565b9050919050565b7f434f4d4d495353494f4e5f524154455300000000000000000000000000000000600082015250565b600061394c601083612bb8565b915061395782613916565b602082019050919050565b600061397d61397861397384612e83565b613182565b612ca1565b9050919050565b61398d81613962565b82525050565b600060608201905081810360008301526139ac8161393f565b90506139bb6020830185613984565b6139c86040830184612cab565b9392505050565b7f4d69656d62726f206e6f2061637469766f000000000000000000000000000000600082015250565b6000613a05601183612bb8565b9150613a10826139cf565b602082019050919050565b60006020820190508181036000830152613a34816139f8565b9050919050565b7f4d6f6e746f20696e76616c69646f000000000000000000000000000000000000600082015250565b6000613a71600e83612bb8565b9150613a7c82613a3b565b602082019050919050565b60006020820190508181036000830152613aa081613a64565b9050919050565b6000613ab282612ca1565b9150613abd83612ca1565b9250828203905081811115613ad557613ad46133b3565b5b92915050565b7f496e76616c696420616464726573730000000000000000000000000000000000600082015250565b6000613b11600f83612bb8565b9150613b1c82613adb565b602082019050919050565b60006020820190508181036000830152613b4081613b04565b9050919050565b7f425553494e4553535f57414c4c45540000000000000000000000000000000000600082015250565b6000613b7d600f83612bb8565b9150613b8882613b47565b602082019050919050565b60006040820190508181036000830152613bac81613b70565b9050613bbb6020830184612cab565b92915050565b600081519050613bd081612d8f565b92915050565b600060208284031215613bec57613beb612cd5565b5b6000613bfa84828501613bc1565b91505092915050565b6000613c0e82612ca1565b9150613c1983612ca1565b9250828201905080821115613c3157613c306133b3565b5b92915050565b7f456c206465706f7369746f206e6f207075656465207375706572617220656c2060008201527f6c696d6974652064656c20636f6e747261746f00000000000000000000000000602082015250565b6000613c93603383612bb8565b9150613c9e82613c37565b604082019050919050565b60006020820190508181036000830152613cc281613c86565b9050919050565b7f4465706f7369746f206e6f20616c63616e7a61206d6f6e746f206d696e696d6f600082015250565b6000613cff602083612bb8565b9150613d0a82613cc9565b602082019050919050565b60006020820190508181036000830152613d2e81613cf2565b9050919050565b7f4e487b7100000000000000000000000000000000000000000000000000000000600052601260045260246000fd5b6000613d6f82612ca1565b9150613d7a83612ca1565b925082613d8a57613d89613d35565b5b828206905092915050565b7f56616c6f722064656c206465706f7369746f206e6f2065732076616c69646f00600082015250565b6000613dcb601f83612bb8565b9150613dd682613d95565b602082019050919050565b60006020820190508181036000830152613dfa81613dbe565b9050919050565b7f4465706f7369746f2073757065726120656c206d6f6e746f20736f706f72746160008201527f646f20706f7220656c20636f6e747261746f0000000000000000000000000000602082015250565b6000613e5d603283612bb8565b9150613e6882613e01565b604082019050919050565b60006020820190508181036000830152613e8c81613e50565b9050919050565b7f4572726f7220656e20656c2063616c63756c6f20646520636f6d6973696f6e6560008201527f7300000000000000000000000000000000000000000000000000000000000000602082015250565b6000613eef602183612bb8565b9150613efa82613e93565b604082019050919050565b60006020820190508181036000830152613f1e81613ee2565b9050919050565b7f4f776e61626c653a206e6577206f776e657220697320746865207a65726f206160008201527f6464726573730000000000000000000000000000000000000000000000000000602082015250565b6000613f81602683612bb8565b9150613f8c82613f25565b604082019050919050565b60006020820190508181036000830152613fb081613f74565b9050919050565b7f54696d657374616d7073206d7573742062652067726561746572207468616e2060008201527f3000000000000000000000000000000000000000000000000000000000000000602082015250565b6000614013602183612bb8565b915061401e82613fb7565b604082019050919050565b6000602082019050818103600083015261404281614006565b9050919050565b7f54494d455354414d505300000000000000000000000000000000000000000000600082015250565b600061407f600a83612bb8565b915061408a82614049565b602082019050919050565b600060608201905081810360008301526140ae81614072565b90506140bd6020830185612cab565b6140ca6040830184612cab565b9392505050565b7f4f776e61626c653a2063616c6c6572206973206e6f7420746865206f776e6572600082015250565b6000614107602083612bb8565b9150614112826140d1565b602082019050919050565b60006020820190508181036000830152614136816140fa565b9050919050565b7f4c612063616e74696461642061207472616e736665726972206465626520736560008201527f72206d61796f722061206365726f000000000000000000000000000000000000602082015250565b6000614199602e83612bb8565b91506141a48261413d565b604082019050919050565b600060208201905081810360008301526141c88161418c565b9050919050565b60006141da82612cda565b91506fffffffffffffffffffffffffffffffff82036141fc576141fb6133b3565b5b600182019050919050565b7f4d6f6e746f20696e737566696369656e74650000000000000000000000000000600082015250565b600061423d601283612bb8565b915061424882614207565b602082019050919050565b6000602082019050818103600083015261426c81614230565b9050919050565b600060408201905061428860008301856132d6565b6142956020830184612cab565b9392505050565b60006040820190506142b1600083018561301d565b6142be602083018461301d565b9392505050565b7f496e73756666696369656e7420616c6c6f77616e636500000000000000000000600082015250565b60006142fb601683612bb8565b9150614306826142c5565b602082019050919050565b6000602082019050818103600083015261432a816142ee565b9050919050565b7f4e6f206375656e74617320636f6e205553445420656e2074752077616c6c6574600082015250565b6000614367602083612bb8565b915061437282614331565b602082019050919050565b600060208201905081810360008301526143968161435a565b9050919050565b7f4465706f7369746f206e6f2070756564652073657220766163696f0000000000600082015250565b60006143d3601b83612bb8565b91506143de8261439d565b602082019050919050565b60006020820190508181036000830152614402816143c6565b9050919050565b600061441482612ca1565b915061441f83612ca1565b925082820261442d81612ca1565b91508282048414831517614444576144436133b3565b5b5092915050565b600061445682612ca1565b915061446183612ca1565b92508261447157614470613d35565b5b828204905092915050565b6000604082019050614491600083018561301d565b61449e6020830184612cab565b9392505050565b7f5265656e7472616e637947756172643a207265656e7472616e742063616c6c00600082015250565b60006144db601f83612bb8565b91506144e6826144a5565b602082019050919050565b6000602082019050818103600083015261450a816144ce565b9050919050565b6000606082019050614526600083018661301d565b614533602083018561301d565b6145406040830184612cab565b949350505050565b61455181612fe7565b811461455c57600080fd5b50565b60008151905061456e81614548565b92915050565b60006020828403121561458a57614589612cd5565b5b60006145988482850161455f565b91505092915050565b7f5361666545524332303a204552433230206f7065726174696f6e20646964206e60008201527f6f74207375636365656400000000000000000000000000000000000000000000602082015250565b60006145fd602a83612bb8565b9150614608826145a1565b604082019050919050565b6000602082019050818103600083015261462c816145f0565b9050919050565b7f416464726573733a20696e73756666696369656e742062616c616e636520666f60008201527f722063616c6c0000000000000000000000000000000000000000000000000000602082015250565b600061468f602683612bb8565b915061469a82614633565b604082019050919050565b600060208201905081810360008301526146be81614682565b9050919050565b600081519050919050565b600081905092915050565b60005b838110156146f95780820151818401526020810190506146de565b60008484015250505050565b6000614710826146c5565b61471a81856146d0565b935061472a8185602086016146db565b80840191505092915050565b60006147428284614705565b915081905092915050565b7f416464726573733a2063616c6c20746f206e6f6e2d636f6e7472616374000000600082015250565b6000614783601d83612bb8565b915061478e8261474d565b602082019050919050565b600060208201905081810360008301526147b281614776565b9050919050565b600081519050919050565b6000601f19601f8301169050919050565b60006147e0826147b9565b6147ea8185612bb8565b93506147fa8185602086016146db565b614803816147c4565b840191505092915050565b6000602082019050818103600083015261482881846147d5565b90509291505056fea26469706673582212203038be9f26cc2cf39885727f586123ab3b59eaeb3dc74473ab5fb417bc32570564736f6c63430008140033",
  "devdoc": {
    "kind": "dev",
    "methods": {
      "owner()": {
        "details": "Returns the address of the current owner."
      },
      "renounceOwnership()": {
        "details": "Leaves the contract without owner. It will not be possible to call `onlyOwner` functions. Can only be called by the current owner. NOTE: Renouncing ownership will leave the contract without an owner, thereby disabling any functionality that is only available to the owner."
      },
      "transferOwnership(address)": {
        "details": "Transfers ownership of the contract to a new account (`newOwner`). Can only be called by the current owner."
      }
    },
    "version": 1
  },
  "userdoc": {
    "kind": "user",
    "methods": {},
    "version": 1
  },
  "storageLayout": {
    "storage": [
      {
        "astId": 7,
        "contract": "contracts/FFFBusiness.sol:FFFBusiness",
        "label": "_owner",
        "offset": 0,
        "slot": "0",
        "type": "t_address"
      },
      {
        "astId": 123,
        "contract": "contracts/FFFBusiness.sol:FFFBusiness",
        "label": "_status",
        "offset": 0,
        "slot": "1",
        "type": "t_uint256"
      },
      {
        "astId": 1043,
        "contract": "contracts/FFFBusiness.sol:FFFBusiness",
        "label": "token",
        "offset": 0,
        "slot": "2",
        "type": "t_contract(IERC20)255"
      },
      {
        "astId": 1045,
        "contract": "contracts/FFFBusiness.sol:FFFBusiness",
        "label": "_businessWallet",
        "offset": 0,
        "slot": "3",
        "type": "t_address_payable"
      },
      {
        "astId": 1047,
        "contract": "contracts/FFFBusiness.sol:FFFBusiness",
        "label": "_totalMembers",
        "offset": 0,
        "slot": "4",
        "type": "t_uint128"
      },
      {
        "astId": 1049,
        "contract": "contracts/FFFBusiness.sol:FFFBusiness",
        "label": "_totalBalance",
        "offset": 0,
        "slot": "5",
        "type": "t_uint256"
      },
      {
        "astId": 1051,
        "contract": "contracts/FFFBusiness.sol:FFFBusiness",
        "label": "_MIN_AMOUNT_TO_DEPOSIT",
        "offset": 0,
        "slot": "6",
        "type": "t_uint128"
      },
      {
        "astId": 1053,
        "contract": "contracts/FFFBusiness.sol:FFFBusiness",
        "label": "_MAX_CONTRACT_BALANCE",
        "offset": 16,
        "slot": "6",
        "type": "t_uint128"
      },
      {
        "astId": 1055,
        "contract": "contracts/FFFBusiness.sol:FFFBusiness",
        "label": "_DEPOSIT_MULTIPLE",
        "offset": 0,
        "slot": "7",
        "type": "t_uint128"
      },
      {
        "astId": 1057,
        "contract": "contracts/FFFBusiness.sol:FFFBusiness",
        "label": "_PYT_TIMESTAMP",
        "offset": 0,
        "slot": "8",
        "type": "t_uint256"
      },
      {
        "astId": 1059,
        "contract": "contracts/FFFBusiness.sol:FFFBusiness",
        "label": "_COMMISSION_TIMESTAMP",
        "offset": 0,
        "slot": "9",
        "type": "t_uint256"
      },
      {
        "astId": 1061,
        "contract": "contracts/FFFBusiness.sol:FFFBusiness",
        "label": "_MEMBERSHIP_PAYMENT_TO_BUSINESS",
        "offset": 0,
        "slot": "10",
        "type": "t_uint128"
      },
      {
        "astId": 1063,
        "contract": "contracts/FFFBusiness.sol:FFFBusiness",
        "label": "_MEMBERSHIP_PAYMENT_TO_UPLINE",
        "offset": 16,
        "slot": "10",
        "type": "t_uint128"
      },
      {
        "astId": 1065,
        "contract": "contracts/FFFBusiness.sol:FFFBusiness",
        "label": "_COMMISSION_PER_TIER_ONE",
        "offset": 0,
        "slot": "11",
        "type": "t_uint8"
      },
      {
        "astId": 1067,
        "contract": "contracts/FFFBusiness.sol:FFFBusiness",
        "label": "_COMMISSION_PER_TIER_TWO",
        "offset": 1,
        "slot": "11",
        "type": "t_uint8"
      },
      {
        "astId": 1069,
        "contract": "contracts/FFFBusiness.sol:FFFBusiness",
        "label": "_COMMISSION_PER_TIER_THREE",
        "offset": 2,
        "slot": "11",
        "type": "t_uint8"
      },
      {
        "astId": 1081,
        "contract": "contracts/FFFBusiness.sol:FFFBusiness",
        "label": "members",
        "offset": 0,
        "slot": "12",
        "type": "t_mapping(t_address,t_struct(Member)1076_storage)"
      },
      {
        "astId": 1086,
        "contract": "contracts/FFFBusiness.sol:FFFBusiness",
        "label": "enrolled",
        "offset": 0,
        "slot": "13",
        "type": "t_mapping(t_address,t_array(t_address)dyn_storage)"
      }
    ],
    "types": {
      "t_address": {
        "encoding": "inplace",
        "label": "address",
        "numberOfBytes": "20"
      },
      "t_address_payable": {
        "encoding": "inplace",
        "label": "address payable",
        "numberOfBytes": "20"
      },
      "t_array(t_address)dyn_storage": {
        "base": "t_address",
        "encoding": "dynamic_array",
        "label": "address[]",
        "numberOfBytes": "32"
      },
      "t_bool": {
        "encoding": "inplace",
        "label": "bool",
        "numberOfBytes": "1"
      },
      "t_contract(IERC20)255": {
        "encoding": "inplace",
        "label": "contract IERC20",
        "numberOfBytes": "20"
      },
      "t_mapping(t_address,t_array(t_address)dyn_storage)": {
        "encoding": "mapping",
        "key": "t_address",
        "label": "mapping(address => address[])",
        "numberOfBytes": "32",
        "value": "t_array(t_address)dyn_storage"
      },
      "t_mapping(t_address,t_struct(Member)1076_storage)": {
        "encoding": "mapping",
        "key": "t_address",
        "label": "mapping(address => struct FFFBusiness.Member)",
        "numberOfBytes": "32",
        "value": "t_struct(Member)1076_storage"
      },
      "t_struct(Member)1076_storage": {
        "encoding": "inplace",
        "label": "struct FFFBusiness.Member",
        "members": [
          {
            "astId": 1071,
            "contract": "contracts/FFFBusiness.sol:FFFBusiness",
            "label": "memberWallet",
            "offset": 0,
            "slot": "0",
            "type": "t_address_payable"
          },
          {
            "astId": 1073,
            "contract": "contracts/FFFBusiness.sol:FFFBusiness",
            "label": "isActive",
            "offset": 20,
            "slot": "0",
            "type": "t_bool"
          },
          {
            "astId": 1075,
            "contract": "contracts/FFFBusiness.sol:FFFBusiness",
            "label": "balance",
            "offset": 0,
            "slot": "1",
            "type": "t_uint256"
          }
        ],
        "numberOfBytes": "64"
      },
      "t_uint128": {
        "encoding": "inplace",
        "label": "uint128",
        "numberOfBytes": "16"
      },
      "t_uint256": {
        "encoding": "inplace",
        "label": "uint256",
        "numberOfBytes": "32"
      },
      "t_uint8": {
        "encoding": "inplace",
        "label": "uint8",
        "numberOfBytes": "1"
      }
    }
  }
}