{
  "address": "0x27558D616ed54431E4ec8131DbfdF95f8B31315e",
  "abi": [
    {
      "inputs": [
        {
          "internalType": "address",
          "name": "_tokenAddress",
          "type": "address"
        },
        {
          "internalType": "string",
          "name": "memberKey",
          "type": "string"
        }
      ],
      "stateMutability": "nonpayable",
      "type": "constructor"
    },
    {
      "anonymous": false,
      "inputs": [
        {
          "indexed": true,
          "internalType": "address",
          "name": "to",
          "type": "address"
        },
        {
          "indexed": false,
          "internalType": "uint256",
          "name": "amount",
          "type": "uint256"
        },
        {
          "indexed": false,
          "internalType": "uint256",
          "name": "timestamp",
          "type": "uint256"
        }
      ],
      "name": "CommissionPaid",
      "type": "event"
    },
    {
      "anonymous": false,
      "inputs": [
        {
          "indexed": false,
          "internalType": "string",
          "name": "config",
          "type": "string"
        },
        {
          "indexed": false,
          "internalType": "uint256",
          "name": "newValue",
          "type": "uint256"
        },
        {
          "indexed": false,
          "internalType": "uint256",
          "name": "timestamp",
          "type": "uint256"
        }
      ],
      "name": "ConfigUpdated",
      "type": "event"
    },
    {
      "anonymous": false,
      "inputs": [
        {
          "indexed": true,
          "internalType": "address",
          "name": "from",
          "type": "address"
        },
        {
          "indexed": false,
          "internalType": "uint256",
          "name": "amount",
          "type": "uint256"
        },
        {
          "indexed": false,
          "internalType": "uint256",
          "name": "timestamp",
          "type": "uint256"
        }
      ],
      "name": "DepositContract",
      "type": "event"
    },
    {
      "anonymous": false,
      "inputs": [
        {
          "indexed": true,
          "internalType": "address",
          "name": "updater",
          "type": "address"
        }
      ],
      "name": "KeyUpdated",
      "type": "event"
    },
    {
      "anonymous": false,
      "inputs": [
        {
          "indexed": false,
          "internalType": "string",
          "name": "message",
          "type": "string"
        },
        {
          "indexed": false,
          "internalType": "uint256",
          "name": "amount",
          "type": "uint256"
        }
      ],
      "name": "Log",
      "type": "event"
    },
    {
      "anonymous": false,
      "inputs": [
        {
          "indexed": true,
          "internalType": "address",
          "name": "from",
          "type": "address"
        },
        {
          "indexed": false,
          "internalType": "uint256",
          "name": "amount",
          "type": "uint256"
        },
        {
          "indexed": false,
          "internalType": "uint256",
          "name": "timestamp",
          "type": "uint256"
        }
      ],
      "name": "MembershipPaid",
      "type": "event"
    },
    {
      "anonymous": false,
      "inputs": [
        {
          "indexed": false,
          "internalType": "string",
          "name": "message",
          "type": "string"
        },
        {
          "indexed": true,
          "internalType": "address",
          "name": "oldOwner",
          "type": "address"
        },
        {
          "indexed": true,
          "internalType": "address",
          "name": "newOwner",
          "type": "address"
        },
        {
          "indexed": false,
          "internalType": "uint256",
          "name": "timestamp",
          "type": "uint256"
        }
      ],
      "name": "NewBusinessOwner",
      "type": "event"
    },
    {
      "anonymous": false,
      "inputs": [
        {
          "indexed": true,
          "internalType": "address",
          "name": "member",
          "type": "address"
        },
        {
          "indexed": false,
          "internalType": "uint256",
          "name": "timestamp",
          "type": "uint256"
        }
      ],
      "name": "NewMember",
      "type": "event"
    },
    {
      "anonymous": false,
      "inputs": [
        {
          "indexed": true,
          "internalType": "address",
          "name": "member",
          "type": "address"
        },
        {
          "indexed": false,
          "internalType": "uint256",
          "name": "amount",
          "type": "uint256"
        },
        {
          "indexed": false,
          "internalType": "uint256",
          "name": "timestamp",
          "type": "uint256"
        }
      ],
      "name": "NewSaving",
      "type": "event"
    },
    {
      "anonymous": false,
      "inputs": [
        {
          "indexed": true,
          "internalType": "address",
          "name": "previousOwner",
          "type": "address"
        },
        {
          "indexed": true,
          "internalType": "address",
          "name": "newOwner",
          "type": "address"
        }
      ],
      "name": "OwnershipTransferred",
      "type": "event"
    },
    {
      "anonymous": false,
      "inputs": [
        {
          "indexed": false,
          "internalType": "string",
          "name": "message",
          "type": "string"
        },
        {
          "indexed": true,
          "internalType": "address",
          "name": "to",
          "type": "address"
        },
        {
          "indexed": false,
          "internalType": "uint256",
          "name": "amount",
          "type": "uint256"
        }
      ],
      "name": "ProccessPayment",
      "type": "event"
    },
    {
      "anonymous": false,
      "inputs": [
        {
          "indexed": true,
          "internalType": "address",
          "name": "to",
          "type": "address"
        },
        {
          "indexed": false,
          "internalType": "uint256",
          "name": "amount",
          "type": "uint256"
        },
        {
          "indexed": false,
          "internalType": "uint256",
          "name": "timestamp",
          "type": "uint256"
        }
      ],
      "name": "PullCommissionPaid",
      "type": "event"
    },
    {
      "anonymous": false,
      "inputs": [
        {
          "indexed": true,
          "internalType": "bytes32",
          "name": "role",
          "type": "bytes32"
        },
        {
          "indexed": true,
          "internalType": "bytes32",
          "name": "previousAdminRole",
          "type": "bytes32"
        },
        {
          "indexed": true,
          "internalType": "bytes32",
          "name": "newAdminRole",
          "type": "bytes32"
        }
      ],
      "name": "RoleAdminChanged",
      "type": "event"
    },
    {
      "anonymous": false,
      "inputs": [
        {
          "indexed": true,
          "internalType": "bytes32",
          "name": "role",
          "type": "bytes32"
        },
        {
          "indexed": true,
          "internalType": "address",
          "name": "account",
          "type": "address"
        },
        {
          "indexed": true,
          "internalType": "address",
          "name": "sender",
          "type": "address"
        }
      ],
      "name": "RoleGranted",
      "type": "event"
    },
    {
      "anonymous": false,
      "inputs": [
        {
          "indexed": true,
          "internalType": "bytes32",
          "name": "role",
          "type": "bytes32"
        },
        {
          "indexed": true,
          "internalType": "address",
          "name": "account",
          "type": "address"
        },
        {
          "indexed": true,
          "internalType": "address",
          "name": "sender",
          "type": "address"
        }
      ],
      "name": "RoleRevoked",
      "type": "event"
    },
    {
      "anonymous": false,
      "inputs": [
        {
          "indexed": true,
          "internalType": "address",
          "name": "from",
          "type": "address"
        },
        {
          "indexed": false,
          "internalType": "uint256",
          "name": "amount",
          "type": "uint256"
        },
        {
          "indexed": false,
          "internalType": "uint256",
          "name": "timestamp",
          "type": "uint256"
        }
      ],
      "name": "TransferBusiness",
      "type": "event"
    },
    {
      "anonymous": false,
      "inputs": [
        {
          "indexed": true,
          "internalType": "address",
          "name": "to",
          "type": "address"
        },
        {
          "indexed": false,
          "internalType": "uint256",
          "name": "amount",
          "type": "uint256"
        },
        {
          "indexed": false,
          "internalType": "uint256",
          "name": "timestamp",
          "type": "uint256"
        }
      ],
      "name": "WithdrawalContract",
      "type": "event"
    },
    {
      "anonymous": false,
      "inputs": [
        {
          "indexed": true,
          "internalType": "address",
          "name": "to",
          "type": "address"
        },
        {
          "indexed": false,
          "internalType": "uint256",
          "name": "amount",
          "type": "uint256"
        },
        {
          "indexed": false,
          "internalType": "uint256",
          "name": "timestamp",
          "type": "uint256"
        }
      ],
      "name": "WithdrawalMember",
      "type": "event"
    },
    {
      "stateMutability": "payable",
      "type": "fallback"
    },
    {
      "inputs": [],
      "name": "ADMIN_ROLE",
      "outputs": [
        {
          "internalType": "bytes32",
          "name": "",
          "type": "bytes32"
        }
      ],
      "stateMutability": "view",
      "type": "function"
    },
    {
      "inputs": [],
      "name": "DEFAULT_ADMIN_ROLE",
      "outputs": [
        {
          "internalType": "bytes32",
          "name": "",
          "type": "bytes32"
        }
      ],
      "stateMutability": "view",
      "type": "function"
    },
    {
      "inputs": [
        {
          "internalType": "address",
          "name": "account",
          "type": "address"
        }
      ],
      "name": "addAdmin",
      "outputs": [],
      "stateMutability": "nonpayable",
      "type": "function"
    },
    {
      "inputs": [
        {
          "internalType": "address",
          "name": "_member",
          "type": "address"
        }
      ],
      "name": "checkActiveMember",
      "outputs": [
        {
          "internalType": "bool",
          "name": "",
          "type": "bool"
        }
      ],
      "stateMutability": "view",
      "type": "function"
    },
    {
      "inputs": [
        {
          "internalType": "uint256",
          "name": "_amount",
          "type": "uint256"
        }
      ],
      "name": "deposit",
      "outputs": [],
      "stateMutability": "nonpayable",
      "type": "function"
    },
    {
      "inputs": [
        {
          "internalType": "uint256",
          "name": "_amount",
          "type": "uint256"
        },
        {
          "internalType": "address",
          "name": "_firstLevelUpline",
          "type": "address"
        },
        {
          "internalType": "address",
          "name": "_secondLevelUpline",
          "type": "address"
        },
        {
          "internalType": "address",
          "name": "_thirtLevelUpline",
          "type": "address"
        }
      ],
      "name": "depositMemberFunds",
      "outputs": [],
      "stateMutability": "nonpayable",
      "type": "function"
    },
    {
      "inputs": [],
      "name": "getBusinessWallet",
      "outputs": [
        {
          "internalType": "address",
          "name": "",
          "type": "address"
        }
      ],
      "stateMutability": "view",
      "type": "function"
    },
    {
      "inputs": [],
      "name": "getCommissionPerFistLevelUpline",
      "outputs": [
        {
          "internalType": "uint8",
          "name": "",
          "type": "uint8"
        }
      ],
      "stateMutability": "view",
      "type": "function"
    },
    {
      "inputs": [],
      "name": "getCommissionPerSecondLevelUpline",
      "outputs": [
        {
          "internalType": "uint8",
          "name": "",
          "type": "uint8"
        }
      ],
      "stateMutability": "view",
      "type": "function"
    },
    {
      "inputs": [],
      "name": "getCommissionPerThirtLevelUpline",
      "outputs": [
        {
          "internalType": "uint8",
          "name": "",
          "type": "uint8"
        }
      ],
      "stateMutability": "view",
      "type": "function"
    },
    {
      "inputs": [],
      "name": "getCurrentContractBalance",
      "outputs": [
        {
          "internalType": "uint256",
          "name": "",
          "type": "uint256"
        }
      ],
      "stateMutability": "view",
      "type": "function"
    },
    {
      "inputs": [],
      "name": "getDepositMultiple",
      "outputs": [
        {
          "internalType": "uint256",
          "name": "",
          "type": "uint256"
        }
      ],
      "stateMutability": "view",
      "type": "function"
    },
    {
      "inputs": [],
      "name": "getMaxContractBalance",
      "outputs": [
        {
          "internalType": "uint256",
          "name": "",
          "type": "uint256"
        }
      ],
      "stateMutability": "view",
      "type": "function"
    },
    {
      "inputs": [
        {
          "internalType": "address",
          "name": "_currentMember",
          "type": "address"
        }
      ],
      "name": "getMemberBalance",
      "outputs": [
        {
          "internalType": "uint256",
          "name": "",
          "type": "uint256"
        }
      ],
      "stateMutability": "view",
      "type": "function"
    },
    {
      "inputs": [],
      "name": "getMembershipPaymentToBusiness",
      "outputs": [
        {
          "internalType": "uint256",
          "name": "",
          "type": "uint256"
        }
      ],
      "stateMutability": "view",
      "type": "function"
    },
    {
      "inputs": [],
      "name": "getMembershipPaymentToUpline",
      "outputs": [
        {
          "internalType": "uint256",
          "name": "",
          "type": "uint256"
        }
      ],
      "stateMutability": "view",
      "type": "function"
    },
    {
      "inputs": [],
      "name": "getMinAmountToDeposit",
      "outputs": [
        {
          "internalType": "uint256",
          "name": "",
          "type": "uint256"
        }
      ],
      "stateMutability": "view",
      "type": "function"
    },
    {
      "inputs": [
        {
          "internalType": "bytes32",
          "name": "role",
          "type": "bytes32"
        }
      ],
      "name": "getRoleAdmin",
      "outputs": [
        {
          "internalType": "bytes32",
          "name": "",
          "type": "bytes32"
        }
      ],
      "stateMutability": "view",
      "type": "function"
    },
    {
      "inputs": [],
      "name": "getTotalMembers",
      "outputs": [
        {
          "internalType": "uint256",
          "name": "",
          "type": "uint256"
        }
      ],
      "stateMutability": "view",
      "type": "function"
    },
    {
      "inputs": [
        {
          "internalType": "bytes32",
          "name": "role",
          "type": "bytes32"
        },
        {
          "internalType": "address",
          "name": "account",
          "type": "address"
        }
      ],
      "name": "grantRole",
      "outputs": [],
      "stateMutability": "nonpayable",
      "type": "function"
    },
    {
      "inputs": [
        {
          "internalType": "bytes32",
          "name": "role",
          "type": "bytes32"
        },
        {
          "internalType": "address",
          "name": "account",
          "type": "address"
        }
      ],
      "name": "hasRole",
      "outputs": [
        {
          "internalType": "bool",
          "name": "",
          "type": "bool"
        }
      ],
      "stateMutability": "view",
      "type": "function"
    },
    {
      "inputs": [
        {
          "internalType": "uint256",
          "name": "_paymentAmount",
          "type": "uint256"
        },
        {
          "internalType": "address",
          "name": "_memberAddress",
          "type": "address"
        }
      ],
      "name": "liquidateMemberFunds",
      "outputs": [],
      "stateMutability": "nonpayable",
      "type": "function"
    },
    {
      "inputs": [
        {
          "internalType": "address",
          "name": "_uplineAddress",
          "type": "address"
        },
        {
          "internalType": "address",
          "name": "_secondLevelUpline",
          "type": "address"
        },
        {
          "internalType": "address",
          "name": "_thirtLevelUpline",
          "type": "address"
        },
        {
          "internalType": "uint256",
          "name": "_amount",
          "type": "uint256"
        },
        {
          "internalType": "string",
          "name": "memberKey",
          "type": "string"
        }
      ],
      "name": "memberEntrance",
      "outputs": [],
      "stateMutability": "nonpayable",
      "type": "function"
    },
    {
      "inputs": [],
      "name": "owner",
      "outputs": [
        {
          "internalType": "address",
          "name": "",
          "type": "address"
        }
      ],
      "stateMutability": "view",
      "type": "function"
    },
    {
      "inputs": [
        {
          "internalType": "uint256",
          "name": "_paymentAmount",
          "type": "uint256"
        },
        {
          "internalType": "address",
          "name": "_memberAddress",
          "type": "address"
        },
        {
          "internalType": "bool",
          "name": "_isPullCommission",
          "type": "bool"
        }
      ],
      "name": "paymentCommissions",
      "outputs": [],
      "stateMutability": "nonpayable",
      "type": "function"
    },
    {
      "inputs": [
        {
          "internalType": "address",
          "name": "account",
          "type": "address"
        }
      ],
      "name": "removeAdmin",
      "outputs": [],
      "stateMutability": "nonpayable",
      "type": "function"
    },
    {
      "inputs": [],
      "name": "renounceOwnership",
      "outputs": [],
      "stateMutability": "nonpayable",
      "type": "function"
    },
    {
      "inputs": [
        {
          "internalType": "bytes32",
          "name": "role",
          "type": "bytes32"
        },
        {
          "internalType": "address",
          "name": "account",
          "type": "address"
        }
      ],
      "name": "renounceRole",
      "outputs": [],
      "stateMutability": "nonpayable",
      "type": "function"
    },
    {
      "inputs": [
        {
          "internalType": "bytes32",
          "name": "role",
          "type": "bytes32"
        },
        {
          "internalType": "address",
          "name": "account",
          "type": "address"
        }
      ],
      "name": "revokeRole",
      "outputs": [],
      "stateMutability": "nonpayable",
      "type": "function"
    },
    {
      "inputs": [
        {
          "internalType": "address payable",
          "name": "_newBusinessWallet",
          "type": "address"
        }
      ],
      "name": "setBusinessWallet",
      "outputs": [],
      "stateMutability": "nonpayable",
      "type": "function"
    },
    {
      "inputs": [
        {
          "internalType": "uint8",
          "name": "_tier1",
          "type": "uint8"
        }
      ],
      "name": "setCommissionPerFistLevelUpline",
      "outputs": [],
      "stateMutability": "nonpayable",
      "type": "function"
    },
    {
      "inputs": [
        {
          "internalType": "uint8",
          "name": "_tier2",
          "type": "uint8"
        }
      ],
      "name": "setCommissionPerSecondLevelUpline",
      "outputs": [],
      "stateMutability": "nonpayable",
      "type": "function"
    },
    {
      "inputs": [
        {
          "internalType": "uint8",
          "name": "_tier3",
          "type": "uint8"
        }
      ],
      "name": "setCommissionPerThirtLevelUpline",
      "outputs": [],
      "stateMutability": "nonpayable",
      "type": "function"
    },
    {
      "inputs": [
        {
          "internalType": "uint256",
          "name": "_newMultiple",
          "type": "uint256"
        }
      ],
      "name": "setDepositMultiple",
      "outputs": [],
      "stateMutability": "nonpayable",
      "type": "function"
    },
    {
      "inputs": [
        {
          "internalType": "uint256",
          "name": "_newMaxBalance",
          "type": "uint256"
        }
      ],
      "name": "setMaxContractBalance",
      "outputs": [],
      "stateMutability": "nonpayable",
      "type": "function"
    },
    {
      "inputs": [
        {
          "internalType": "uint256",
          "name": "_toBusiness",
          "type": "uint256"
        }
      ],
      "name": "setMembershipPaymentToBusiness",
      "outputs": [],
      "stateMutability": "nonpayable",
      "type": "function"
    },
    {
      "inputs": [
        {
          "internalType": "uint256",
          "name": "_toUpline",
          "type": "uint256"
        }
      ],
      "name": "setMembershipPaymentToUpline",
      "outputs": [],
      "stateMutability": "nonpayable",
      "type": "function"
    },
    {
      "inputs": [
        {
          "internalType": "uint256",
          "name": "_newMinAmount",
          "type": "uint256"
        }
      ],
      "name": "setMinAmountToDeposit",
      "outputs": [],
      "stateMutability": "nonpayable",
      "type": "function"
    },
    {
      "inputs": [
        {
          "internalType": "bytes4",
          "name": "interfaceId",
          "type": "bytes4"
        }
      ],
      "name": "supportsInterface",
      "outputs": [
        {
          "internalType": "bool",
          "name": "",
          "type": "bool"
        }
      ],
      "stateMutability": "view",
      "type": "function"
    },
    {
      "inputs": [],
      "name": "token",
      "outputs": [
        {
          "internalType": "contract IERC20",
          "name": "",
          "type": "address"
        }
      ],
      "stateMutability": "view",
      "type": "function"
    },
    {
      "inputs": [
        {
          "internalType": "address",
          "name": "newOwner",
          "type": "address"
        }
      ],
      "name": "transferOwnership",
      "outputs": [],
      "stateMutability": "nonpayable",
      "type": "function"
    },
    {
      "inputs": [],
      "name": "withdraw",
      "outputs": [],
      "stateMutability": "nonpayable",
      "type": "function"
    },
    {
      "stateMutability": "payable",
      "type": "receive"
    }
  ],
  "transactionHash": "0xb88273eb94bbf74d9b72eeca98430d940cfb1c180fb9b95d75ec50f80d13cdaa",
  "args": [
    "0x4B846D9d563D434d275e2d3a532c30B0574DcA2e",
    "AcTIv3R000l3mmbr"
  ],
  "numDeployments": 11,
  "solcInputHash": "902501344243abdd24423581671aedda",
  "bytecode": "0x60806040523480156200001157600080fd5b50604051620063d5380380620063d58339818101604052810190620000379190620008e5565b620000576200004b6200029960201b60201c565b620002a160201b60201c565b6001600281905550600073ffffffffffffffffffffffffffffffffffffffff168273ffffffffffffffffffffffffffffffffffffffff1603620000d1576040517f08c379a0000000000000000000000000000000000000000000000000000000008152600401620000c890620009ac565b60405180910390fd5b620000e66000801b336200036560201b60201c565b620001187fa49807205ce4d355092ef5a8a18f56e8913cf4a201fbe287825b095693c21775336200036560201b60201c565b806040516020016200012b919062000a1b565b6040516020818303038152906040528051906020012060038190555063773594006008819055506509184e72a000600981905550631dcd6500600a819055506317d78400600b819055506305f5e100600c819055506004600d60006101000a81548160ff021916908360ff1602179055506002600d60016101000a81548160ff021916908360ff1602179055506002600d60026101000a81548160ff021916908360ff16021790555033600560006101000a81548173ffffffffffffffffffffffffffffffffffffffff021916908373ffffffffffffffffffffffffffffffffffffffff16021790555081600460006101000a81548173ffffffffffffffffffffffffffffffffffffffff021916908373ffffffffffffffffffffffffffffffffffffffff160217905550600060078190555062000291600560009054906101000a900473ffffffffffffffffffffffffffffffffffffffff166200037b60201b60201c565b505062000b66565b600033905090565b60008060009054906101000a900473ffffffffffffffffffffffffffffffffffffffff169050816000806101000a81548173ffffffffffffffffffffffffffffffffffffffff021916908373ffffffffffffffffffffffffffffffffffffffff1602179055508173ffffffffffffffffffffffffffffffffffffffff168173ffffffffffffffffffffffffffffffffffffffff167f8be0079c531659141344cd1fd0a4f28419497f9722a3daafe3b4186f6b6457e060405160405180910390a35050565b6200037782826200059160201b60201c565b5050565b80600073ffffffffffffffffffffffffffffffffffffffff168173ffffffffffffffffffffffffffffffffffffffff1603620003ee576040517f08c379a0000000000000000000000000000000000000000000000000000000008152600401620003e59062000a84565b60405180910390fd5b60405180606001604052808373ffffffffffffffffffffffffffffffffffffffff1681526020016001151581526020016000815250600e60008473ffffffffffffffffffffffffffffffffffffffff1673ffffffffffffffffffffffffffffffffffffffff16815260200190815260200160002060008201518160000160006101000a81548173ffffffffffffffffffffffffffffffffffffffff021916908373ffffffffffffffffffffffffffffffffffffffff16021790555060208201518160000160146101000a81548160ff021916908315150217905550604082015181600101559050506006600081819054906101000a90046fffffffffffffffffffffffffffffffff1680929190620005069062000af1565b91906101000a8154816fffffffffffffffffffffffffffffffff02191690836fffffffffffffffffffffffffffffffff160217905550508173ffffffffffffffffffffffffffffffffffffffff167f7f48e4f7f3ef2c63408b16a799b8516cb879c145386aedd51a36938a02a1c2834260405162000585919062000b49565b60405180910390a25050565b620005a382826200068260201b60201c565b6200067e57600180600084815260200190815260200160002060000160008373ffffffffffffffffffffffffffffffffffffffff1673ffffffffffffffffffffffffffffffffffffffff16815260200190815260200160002060006101000a81548160ff021916908315150217905550620006236200029960201b60201c565b73ffffffffffffffffffffffffffffffffffffffff168173ffffffffffffffffffffffffffffffffffffffff16837f2f8788117e7eff1d82e926ec794901d17c78024a50270940304540a733656f0d60405160405180910390a45b5050565b60006001600084815260200190815260200160002060000160008373ffffffffffffffffffffffffffffffffffffffff1673ffffffffffffffffffffffffffffffffffffffff16815260200190815260200160002060009054906101000a900460ff16905092915050565b6000604051905090565b600080fd5b600080fd5b600073ffffffffffffffffffffffffffffffffffffffff82169050919050565b60006200072e8262000701565b9050919050565b620007408162000721565b81146200074c57600080fd5b50565b600081519050620007608162000735565b92915050565b600080fd5b600080fd5b6000601f19601f8301169050919050565b7f4e487b7100000000000000000000000000000000000000000000000000000000600052604160045260246000fd5b620007bb8262000770565b810181811067ffffffffffffffff82111715620007dd57620007dc62000781565b5b80604052505050565b6000620007f2620006ed565b9050620008008282620007b0565b919050565b600067ffffffffffffffff82111562000823576200082262000781565b5b6200082e8262000770565b9050602081019050919050565b60005b838110156200085b5780820151818401526020810190506200083e565b60008484015250505050565b60006200087e620008788462000805565b620007e6565b9050828152602081018484840111156200089d576200089c6200076b565b5b620008aa8482856200083b565b509392505050565b600082601f830112620008ca57620008c962000766565b5b8151620008dc84826020860162000867565b91505092915050565b60008060408385031215620008ff57620008fe620006f7565b5b60006200090f858286016200074f565b925050602083015167ffffffffffffffff811115620009335762000932620006fc565b5b6200094185828601620008b2565b9150509250929050565b600082825260208201905092915050565b7f546f6b656e20616464726573732063616e6e6f74206265207a65726f00000000600082015250565b600062000994601c836200094b565b9150620009a1826200095c565b602082019050919050565b60006020820190508181036000830152620009c78162000985565b9050919050565b600081519050919050565b600081905092915050565b6000620009f182620009ce565b620009fd8185620009d9565b935062000a0f8185602086016200083b565b80840191505092915050565b600062000a298284620009e4565b915081905092915050565b7f446972656363696f6e20696e76616c6964610000000000000000000000000000600082015250565b600062000a6c6012836200094b565b915062000a798262000a34565b602082019050919050565b6000602082019050818103600083015262000a9f8162000a5d565b9050919050565b7f4e487b7100000000000000000000000000000000000000000000000000000000600052601160045260246000fd5b60006fffffffffffffffffffffffffffffffff82169050919050565b600062000afe8262000ad5565b91506fffffffffffffffffffffffffffffffff820362000b235762000b2262000aa6565b5b600182019050919050565b6000819050919050565b62000b438162000b2e565b82525050565b600060208201905062000b60600083018462000b38565b92915050565b61585f8062000b766000396000f3fe6080604052600436106102555760003560e01c80638cb20e6f11610139578063bcf3f6ff116100b6578063d59392de1161007a578063d59392de146108ee578063d79c5abb14610919578063e2d71d6a14610942578063e341c7db1461096b578063f2fde38b14610994578063fc0c546a146109bd57610295565b8063bcf3f6ff1461080b578063bd69c12714610836578063ca55753a1461085f578063cc2ec6ab1461089c578063d547741f146108c557610295565b8063a217fddf116100fd578063a217fddf14610738578063aa331db514610763578063aeeb96cd1461078e578063b6b55f25146107b7578063b7130870146107e057610295565b80638cb20e6f146106515780638da5cb5b1461067a5780638f180305146106a557806391d14854146106d057806394fbe8461461070d57610295565b80633f4bf03c116101d257806370f710791161019657806370f7107914610553578063715018a61461057c57806375b238fc1461059357806377f33975146105be5780637f7efd1a146105e957806388e197941461062657610295565b80633f4bf03c1461048457806348d5c401146104ad5780635afe70d7146104d65780636d790081146104ff578063704802751461052a57610295565b80632f2ff15d116102195780632f2ff15d146103c7578063312adf58146103f0578063361f1ad31461041957806336568abe146104445780633ccfd60b1461046d57610295565b80630109705c146102d057806301ffc9a7146102fb5780631785f53c14610338578063248a9ca31461036157806327f3547f1461039e57610295565b36610295576040517f08c379a000000000000000000000000000000000000000000000000000000000815260040161028c9061347f565b60405180910390fd5b6040517f08c379a00000000000000000000000000000000000000000000000000000000081526004016102c7906134eb565b60405180910390fd5b3480156102dc57600080fd5b506102e56109e8565b6040516102f29190613527565b60405180910390f35b34801561030757600080fd5b50610322600480360381019061031d91906135ae565b6109ff565b60405161032f91906135f6565b60405180910390f35b34801561034457600080fd5b5061035f600480360381019061035a919061366f565b610a79565b005b34801561036d57600080fd5b50610388600480360381019061038391906136d2565b610aae565b604051610395919061370e565b60405180910390f35b3480156103aa57600080fd5b506103c560048036038101906103c0919061375f565b610ace565b005b3480156103d357600080fd5b506103ee60048036038101906103e9919061378c565b610ba0565b005b3480156103fc57600080fd5b506104176004803603810190610412919061375f565b610bc1565b005b34801561042557600080fd5b5061042e610c93565b60405161043b91906137db565b60405180910390f35b34801561045057600080fd5b5061046b6004803603810190610466919061378c565b610c9d565b005b34801561047957600080fd5b50610482610d20565b005b34801561049057600080fd5b506104ab60048036038101906104a6919061375f565b610d41565b005b3480156104b957600080fd5b506104d460048036038101906104cf9190613822565b610dd0565b005b3480156104e257600080fd5b506104fd60048036038101906104f8919061388d565b610edf565b005b34801561050b57600080fd5b50610514611044565b60405161052191906137db565b60405180910390f35b34801561053657600080fd5b50610551600480360381019061054c919061366f565b6110e7565b005b34801561055f57600080fd5b5061057a600480360381019061057591906138e6565b61111c565b005b34801561058857600080fd5b50610591611279565b005b34801561059f57600080fd5b506105a861128d565b6040516105b5919061370e565b60405180910390f35b3480156105ca57600080fd5b506105d36112b1565b6040516105e091906137db565b60405180910390f35b3480156105f557600080fd5b50610610600480360381019061060b919061366f565b6112bb565b60405161061d91906135f6565b60405180910390f35b34801561063257600080fd5b5061063b611314565b60405161064891906137db565b60405180910390f35b34801561065d57600080fd5b506106786004803603810190610673919061375f565b61131e565b005b34801561068657600080fd5b5061068f611413565b60405161069c9190613948565b60405180910390f35b3480156106b157600080fd5b506106ba61143c565b6040516106c791906137db565b60405180910390f35b3480156106dc57600080fd5b506106f760048036038101906106f2919061378c565b611474565b60405161070491906135f6565b60405180910390f35b34801561071957600080fd5b506107226114df565b60405161072f9190613527565b60405180910390f35b34801561074457600080fd5b5061074d6114f6565b60405161075a919061370e565b60405180910390f35b34801561076f57600080fd5b506107786114fd565b6040516107859190613948565b60405180910390f35b34801561079a57600080fd5b506107b560048036038101906107b09190613963565b611527565b005b3480156107c357600080fd5b506107de60048036038101906107d9919061375f565b611731565b005b3480156107ec57600080fd5b506107f56117c6565b60405161080291906137db565b60405180910390f35b34801561081757600080fd5b506108206117d0565b60405161082d9190613527565b60405180910390f35b34801561084257600080fd5b5061085d60048036038101906108589190613822565b6117e7565b005b34801561086b57600080fd5b506108866004803603810190610881919061366f565b6118f6565b60405161089391906137db565b60405180910390f35b3480156108a857600080fd5b506108c360048036038101906108be91906139a3565b611942565b005b3480156108d157600080fd5b506108ec60048036038101906108e7919061378c565b611d26565b005b3480156108fa57600080fd5b50610903611d47565b60405161091091906137db565b60405180910390f35b34801561092557600080fd5b50610940600480360381019061093b9190613b50565b611d51565b005b34801561094e57600080fd5b506109696004803603810190610964919061375f565b611e2c565b005b34801561097757600080fd5b50610992600480360381019061098d9190613822565b611edd565b005b3480156109a057600080fd5b506109bb60048036038101906109b6919061366f565b611fec565b005b3480156109c957600080fd5b506109d261206f565b6040516109df9190613c46565b60405180910390f35b6000600d60009054906101000a900460ff16905090565b60007f7965db0b000000000000000000000000000000000000000000000000000000007bffffffffffffffffffffffffffffffffffffffffffffffffffffffff1916827bffffffffffffffffffffffffffffffffffffffffffffffffffffffff19161480610a725750610a7182612095565b5b9050919050565b610a816120ff565b610aab7fa49807205ce4d355092ef5a8a18f56e8913cf4a201fbe287825b095693c2177582611d26565b50565b600060016000838152602001908152602001600020600101549050919050565b610ad66120ff565b60008111610b19576040517f08c379a0000000000000000000000000000000000000000000000000000000008152600401610b1090613cd3565b60405180910390fd5b6009548110610b5d576040517f08c379a0000000000000000000000000000000000000000000000000000000008152600401610b5490613d65565b60405180910390fd5b80600b819055507fd7474166e78731bc168caca1fe1ccebbd6f3c95baee64997902e6b48f442b81a8142604051610b95929190613dd1565b60405180910390a150565b610ba982610aae565b610bb28161217d565b610bbc8383612191565b505050565b610bc96120ff565b60008111610c0c576040517f08c379a0000000000000000000000000000000000000000000000000000000008152600401610c0390613cd3565b60405180910390fd5b6009548110610c50576040517f08c379a0000000000000000000000000000000000000000000000000000000008152600401610c4790613e7f565b60405180910390fd5b80600c819055507fd7474166e78731bc168caca1fe1ccebbd6f3c95baee64997902e6b48f442b81a8142604051610c88929190613eeb565b60405180910390a150565b6000600854905090565b610ca5612271565b73ffffffffffffffffffffffffffffffffffffffff168173ffffffffffffffffffffffffffffffffffffffff1614610d12576040517f08c379a0000000000000000000000000000000000000000000000000000000008152600401610d0990613f99565b60405180910390fd5b610d1c8282612279565b5050565b610d286120ff565b6000610d32611044565b9050610d3e338261235b565b50565b610d496120ff565b6008548111610d8d576040517f08c379a0000000000000000000000000000000000000000000000000000000008152600401610d8490614005565b60405180910390fd5b806009819055507fd7474166e78731bc168caca1fe1ccebbd6f3c95baee64997902e6b48f442b81a8142604051610dc5929190614071565b60405180910390a150565b7fa49807205ce4d355092ef5a8a18f56e8913cf4a201fbe287825b095693c21775610dfa8161217d565b60008260ff1611610e40576040517f08c379a0000000000000000000000000000000000000000000000000000000008152600401610e379061411f565b60405180910390fd5b60648260ff161115610e87576040517f08c379a0000000000000000000000000000000000000000000000000000000008152600401610e7e906141b1565b60405180910390fd5b81600d60026101000a81548160ff021916908360ff1602179055507fd7474166e78731bc168caca1fe1ccebbd6f3c95baee64997902e6b48f442b81a8242604051610ed3929190614274565b60405180910390a15050565b610ee76120ff565b600073ffffffffffffffffffffffffffffffffffffffff168173ffffffffffffffffffffffffffffffffffffffff1603610f56576040517f08c379a0000000000000000000000000000000000000000000000000000000008152600401610f4d906142fc565b60405180910390fd5b80600560006101000a81548173ffffffffffffffffffffffffffffffffffffffff021916908373ffffffffffffffffffffffffffffffffffffffff160217905550610fa081611fec565b610fad6000801b33612279565b610fba6000801b82612191565b8073ffffffffffffffffffffffffffffffffffffffff16600560009054906101000a900473ffffffffffffffffffffffffffffffffffffffff1673ffffffffffffffffffffffffffffffffffffffff167f9d6ad1956bc285ee763af0abf79be6b40f0fe495e250bd80c1bae2293ecc1df8426040516110399190614368565b60405180910390a350565b6000600460009054906101000a900473ffffffffffffffffffffffffffffffffffffffff1673ffffffffffffffffffffffffffffffffffffffff166370a08231306040518263ffffffff1660e01b81526004016110a19190613948565b602060405180830381865afa1580156110be573d6000803e3d6000fd5b505050506040513d601f19601f820116820180604052508101906110e291906143ab565b905090565b6110ef6120ff565b6111197fa49807205ce4d355092ef5a8a18f56e8913cf4a201fbe287825b095693c2177582610ba0565b50565b81600073ffffffffffffffffffffffffffffffffffffffff168173ffffffffffffffffffffffffffffffffffffffff160361118c576040517f08c379a000000000000000000000000000000000000000000000000000000000815260040161118390614424565b60405180910390fd5b7fa49807205ce4d355092ef5a8a18f56e8913cf4a201fbe287825b095693c217756111b68161217d565b6111c0848661235b565b6001151583151503611221578373ffffffffffffffffffffffffffffffffffffffff167f40ce636b7925bb01ae0859a12eddfb1e34d01cb424b5603ad9622112b1b07e128642604051611214929190614444565b60405180910390a2611272565b8373ffffffffffffffffffffffffffffffffffffffff167fe37b2ae9cc03ec700b9146c4df2fc797e7a1119c08fc25513755ab5315faa6d28642604051611269929190614444565b60405180910390a25b5050505050565b6112816120ff565b61128b6000612413565b565b7fa49807205ce4d355092ef5a8a18f56e8913cf4a201fbe287825b095693c2177581565b6000600c54905090565b6000600e60008373ffffffffffffffffffffffffffffffffffffffff1673ffffffffffffffffffffffffffffffffffffffff16815260200190815260200160002060000160149054906101000a900460ff169050919050565b6000600b54905090565b7fa49807205ce4d355092ef5a8a18f56e8913cf4a201fbe287825b095693c217756113488161217d565b6000821161138b576040517f08c379a0000000000000000000000000000000000000000000000000000000008152600401611382906144df565b60405180910390fd5b60095482106113cf576040517f08c379a00000000000000000000000000000000000000000000000000000000081526004016113c69061454b565b60405180910390fd5b816008819055507fd7474166e78731bc168caca1fe1ccebbd6f3c95baee64997902e6b48f442b81a82426040516114079291906145b7565b60405180910390a15050565b60008060009054906101000a900473ffffffffffffffffffffffffffffffffffffffff16905090565b6000600660009054906101000a90046fffffffffffffffffffffffffffffffff166fffffffffffffffffffffffffffffffff16905090565b60006001600084815260200190815260200160002060000160008373ffffffffffffffffffffffffffffffffffffffff1673ffffffffffffffffffffffffffffffffffffffff16815260200190815260200160002060009054906101000a900460ff16905092915050565b6000600d60029054906101000a900460ff16905090565b6000801b81565b6000600560009054906101000a900473ffffffffffffffffffffffffffffffffffffffff16905090565b80600073ffffffffffffffffffffffffffffffffffffffff168173ffffffffffffffffffffffffffffffffffffffff1603611597576040517f08c379a000000000000000000000000000000000000000000000000000000000815260040161158e90614424565b60405180910390fd5b7fa49807205ce4d355092ef5a8a18f56e8913cf4a201fbe287825b095693c217756115c18161217d565b6000600e60008573ffffffffffffffffffffffffffffffffffffffff1673ffffffffffffffffffffffffffffffffffffffff16815260200190815260200160002090508060000160149054906101000a900460ff16611655576040517f08c379a000000000000000000000000000000000000000000000000000000000815260040161164c9061463f565b60405180910390fd5b848160010154101561169c576040517f08c379a0000000000000000000000000000000000000000000000000000000008152600401611693906146ab565b60405180910390fd5b848160010160008282546116b091906146fa565b9250508190555084600760008282546116c991906146fa565b925050819055506116da848661235b565b8373ffffffffffffffffffffffffffffffffffffffff167f8d39944b06acdac638a7aa16ecba5a5b350aba42c775308dab4c947d91f4f18a8642604051611722929190614444565b60405180910390a25050505050565b7fa49807205ce4d355092ef5a8a18f56e8913cf4a201fbe287825b095693c2177561175b8161217d565b600082611766611044565b611770919061472e565b90506009548111156117b7576040517f08c379a00000000000000000000000000000000000000000000000000000000081526004016117ae906147d4565b60405180910390fd5b6117c133846124d7565b505050565b6000600954905090565b6000600d60019054906101000a900460ff16905090565b7fa49807205ce4d355092ef5a8a18f56e8913cf4a201fbe287825b095693c217756118118161217d565b60008260ff1611611857576040517f08c379a000000000000000000000000000000000000000000000000000000000815260040161184e9061411f565b60405180910390fd5b60648260ff16111561189e576040517f08c379a000000000000000000000000000000000000000000000000000000000815260040161189590614840565b60405180910390fd5b81600d60016101000a81548160ff021916908360ff1602179055507fd7474166e78731bc168caca1fe1ccebbd6f3c95baee64997902e6b48f442b81a82426040516118ea9291906148d2565b60405180910390a15050565b6000600e60008373ffffffffffffffffffffffffffffffffffffffff1673ffffffffffffffffffffffffffffffffffffffff168152602001908152602001600020600101549050919050565b600e60003373ffffffffffffffffffffffffffffffffffffffff1673ffffffffffffffffffffffffffffffffffffffff16815260200190815260200160002060000160149054906101000a900460ff166119d1576040517f08c379a00000000000000000000000000000000000000000000000000000000081526004016119c89061463f565b60405180910390fd5b600854841015611a16576040517f08c379a0000000000000000000000000000000000000000000000000000000008152600401611a0d9061495a565b60405180910390fd5b6000600a5485611a2691906149a9565b14611a66576040517f08c379a0000000000000000000000000000000000000000000000000000000008152600401611a5d90614a26565b60405180910390fd5b60095484600754611a77919061472e565b1115611ab8576040517f08c379a0000000000000000000000000000000000000000000000000000000008152600401611aaf90614ab8565b60405180910390fd5b611ac233856124d7565b83600e60003373ffffffffffffffffffffffffffffffffffffffff1673ffffffffffffffffffffffffffffffffffffffff1681526020019081526020016000206001016000828254611b14919061472e565b925050819055503373ffffffffffffffffffffffffffffffffffffffff167f6e88c611323cf4a2bd9e908bf748750db2a19609319972f06a960f492071e0e08542604051611b63929190614444565b60405180910390a26000611b8985600d60009054906101000a900460ff1660ff1661277b565b90506000611ba986600d60019054906101000a900460ff1660ff1661277b565b90506000611bc987600d60029054906101000a900460ff1660ff1661277b565b90506000818385611bda919061472e565b611be4919061472e565b905060008189611bf491906146fa565b9050818111611c38576040517f08c379a0000000000000000000000000000000000000000000000000000000008152600401611c2f90614b4a565b60405180910390fd5b611c448886600161279d565b9450611c528785600161279d565b9350611c608684600161279d565b9250828486611c6f919061472e565b611c79919061472e565b81611c84919061472e565b9050611cb2600560009054906101000a900473ffffffffffffffffffffffffffffffffffffffff1682612848565b8860076000828254611cc4919061472e565b925050819055503373ffffffffffffffffffffffffffffffffffffffff167f3428e989e797df55e8af7c22735e19d98f469023d200174911b2c8e0870240fe8242604051611d13929190614444565b60405180910390a2505050505050505050565b611d2f82610aae565b611d388161217d565b611d428383612279565b505050565b6000600a54905090565b60035481604051602001611d659190614bdb565b6040516020818303038152906040528051906020012014611dbb576040517f08c379a0000000000000000000000000000000000000000000000000000000008152600401611db290614c3e565b60405180910390fd5b600e60003373ffffffffffffffffffffffffffffffffffffffff1673ffffffffffffffffffffffffffffffffffffffff16815260200190815260200160002060000160149054906101000a900460ff16611e1957611e183361292a565b5b611e2582868686612b39565b5050505050565b7fa49807205ce4d355092ef5a8a18f56e8913cf4a201fbe287825b095693c21775611e568161217d565b60008211611e99576040517f08c379a0000000000000000000000000000000000000000000000000000000008152600401611e9090614caa565b60405180910390fd5b81600a819055507fd7474166e78731bc168caca1fe1ccebbd6f3c95baee64997902e6b48f442b81a8242604051611ed1929190614d16565b60405180910390a15050565b7fa49807205ce4d355092ef5a8a18f56e8913cf4a201fbe287825b095693c21775611f078161217d565b60008260ff1611611f4d576040517f08c379a0000000000000000000000000000000000000000000000000000000008152600401611f449061411f565b60405180910390fd5b60648260ff161115611f94576040517f08c379a0000000000000000000000000000000000000000000000000000000008152600401611f8b90614840565b60405180910390fd5b81600d60006101000a81548160ff021916908360ff1602179055507fd7474166e78731bc168caca1fe1ccebbd6f3c95baee64997902e6b48f442b81a8242604051611fe0929190614dc4565b60405180910390a15050565b611ff46120ff565b600073ffffffffffffffffffffffffffffffffffffffff168173ffffffffffffffffffffffffffffffffffffffff1603612063576040517f08c379a000000000000000000000000000000000000000000000000000000000815260040161205a90614e72565b60405180910390fd5b61206c81612413565b50565b600460009054906101000a900473ffffffffffffffffffffffffffffffffffffffff1681565b60007f01ffc9a7000000000000000000000000000000000000000000000000000000007bffffffffffffffffffffffffffffffffffffffffffffffffffffffff1916827bffffffffffffffffffffffffffffffffffffffffffffffffffffffff1916149050919050565b612107612271565b73ffffffffffffffffffffffffffffffffffffffff16612125611413565b73ffffffffffffffffffffffffffffffffffffffff161461217b576040517f08c379a000000000000000000000000000000000000000000000000000000000815260040161217290614ede565b60405180910390fd5b565b61218e81612189612271565b612d39565b50565b61219b8282611474565b61226d57600180600084815260200190815260200160002060000160008373ffffffffffffffffffffffffffffffffffffffff1673ffffffffffffffffffffffffffffffffffffffff16815260200190815260200160002060006101000a81548160ff021916908315150217905550612212612271565b73ffffffffffffffffffffffffffffffffffffffff168173ffffffffffffffffffffffffffffffffffffffff16837f2f8788117e7eff1d82e926ec794901d17c78024a50270940304540a733656f0d60405160405180910390a45b5050565b600033905090565b6122838282611474565b156123575760006001600084815260200190815260200160002060000160008373ffffffffffffffffffffffffffffffffffffffff1673ffffffffffffffffffffffffffffffffffffffff16815260200190815260200160002060006101000a81548160ff0219169083151502179055506122fc612271565b73ffffffffffffffffffffffffffffffffffffffff168173ffffffffffffffffffffffffffffffffffffffff16837ff6391f5c32d9c69d2a47ea670b442974b53935d1edc7fd64eb21e047a839171b60405160405180910390a45b5050565b612363612dbe565b8061236c611044565b10156123ad576040517f08c379a00000000000000000000000000000000000000000000000000000000081526004016123a490614f70565b60405180910390fd5b6123b78282612848565b3373ffffffffffffffffffffffffffffffffffffffff167f6dc924e950dd523781352d0a7468f2ee2905084dea2bb7411d7996224ce75a8882426040516123ff929190614444565b60405180910390a261240f612e0b565b5050565b60008060009054906101000a900473ffffffffffffffffffffffffffffffffffffffff169050816000806101000a81548173ffffffffffffffffffffffffffffffffffffffff021916908373ffffffffffffffffffffffffffffffffffffffff1602179055508173ffffffffffffffffffffffffffffffffffffffff168173ffffffffffffffffffffffffffffffffffffffff167f8be0079c531659141344cd1fd0a4f28419497f9722a3daafe3b4186f6b6457e060405160405180910390a35050565b80600460009054906101000a900473ffffffffffffffffffffffffffffffffffffffff1673ffffffffffffffffffffffffffffffffffffffff1663dd62ed3e84306040518363ffffffff1660e01b8152600401612535929190614f90565b602060405180830381865afa158015612552573d6000803e3d6000fd5b505050506040513d601f19601f8201168201806040525081019061257691906143ab565b10156125b7576040517f08c379a00000000000000000000000000000000000000000000000000000000081526004016125ae90615005565b60405180910390fd5b600460009054906101000a900473ffffffffffffffffffffffffffffffffffffffff1673ffffffffffffffffffffffffffffffffffffffff166370a08231836040518263ffffffff1660e01b81526004016126129190613948565b602060405180830381865afa15801561262f573d6000803e3d6000fd5b505050506040513d601f19601f8201168201806040525081019061265391906143ab565b811115612695576040517f08c379a000000000000000000000000000000000000000000000000000000000815260040161268c90615071565b60405180910390fd5b600081116126d8576040517f08c379a00000000000000000000000000000000000000000000000000000000081526004016126cf906150dd565b60405180910390fd5b612727823083600460009054906101000a900473ffffffffffffffffffffffffffffffffffffffff1673ffffffffffffffffffffffffffffffffffffffff16612e15909392919063ffffffff16565b8173ffffffffffffffffffffffffffffffffffffffff167f695b93e5f85b6ac34424e1299d94bc079fb230aa7e5568a4e2e6214828cc936b824260405161276f929190614444565b60405180910390a25050565b60006064828461278b91906150fd565b612795919061513f565b905092915050565b60008073ffffffffffffffffffffffffffffffffffffffff168473ffffffffffffffffffffffffffffffffffffffff161461283e576127dc8484612848565b8373ffffffffffffffffffffffffffffffffffffffff167fe37b2ae9cc03ec700b9146c4df2fc797e7a1119c08fc25513755ab5315faa6d28442604051612824929190614444565b60405180910390a2600115158215150361283d57600092505b5b8290509392505050565b6000811161288b576040517f08c379a0000000000000000000000000000000000000000000000000000000008152600401612882906151e2565b60405180910390fd5b6128d88282600460009054906101000a900473ffffffffffffffffffffffffffffffffffffffff1673ffffffffffffffffffffffffffffffffffffffff16612e9e9092919063ffffffff16565b8173ffffffffffffffffffffffffffffffffffffffff167f0d12e13d8f5c7a805c84c6c0deba2b2cf5ef80fddc09b6565d70cd5f97c116ad8260405161291e919061524e565b60405180910390a25050565b80600073ffffffffffffffffffffffffffffffffffffffff168173ffffffffffffffffffffffffffffffffffffffff160361299a576040517f08c379a000000000000000000000000000000000000000000000000000000000815260040161299190614424565b60405180910390fd5b60405180606001604052808373ffffffffffffffffffffffffffffffffffffffff1681526020016001151581526020016000815250600e60008473ffffffffffffffffffffffffffffffffffffffff1673ffffffffffffffffffffffffffffffffffffffff16815260200190815260200160002060008201518160000160006101000a81548173ffffffffffffffffffffffffffffffffffffffff021916908373ffffffffffffffffffffffffffffffffffffffff16021790555060208201518160000160146101000a81548160ff021916908315150217905550604082015181600101559050506006600081819054906101000a90046fffffffffffffffffffffffffffffffff1680929190612ab090615298565b91906101000a8154816fffffffffffffffffffffffffffffffff02191690836fffffffffffffffffffffffffffffffff160217905550508173ffffffffffffffffffffffffffffffffffffffff167f7f48e4f7f3ef2c63408b16a799b8516cb879c145386aedd51a36938a02a1c28342604051612b2d91906137db565b60405180910390a25050565b600e60003373ffffffffffffffffffffffffffffffffffffffff1673ffffffffffffffffffffffffffffffffffffffff16815260200190815260200160002060000160149054906101000a900460ff16612bc8576040517f08c379a0000000000000000000000000000000000000000000000000000000008152600401612bbf9061463f565b60405180910390fd5b6000600c54600b54612bda919061472e565b905060008186612bea91906146fa565b905081600854612bfa919061472e565b861015612c3c576040517f08c379a0000000000000000000000000000000000000000000000000000000008152600401612c339061531c565b60405180910390fd5b612c4633836124d7565b612c74600560009054906101000a900473ffffffffffffffffffffffffffffffffffffffff16600b54612848565b3373ffffffffffffffffffffffffffffffffffffffff167f8fed26ea05e17903891c5c2a70ac7ce2aeafbb48acf403b9defdb2c96ab2e5c3600b5442604051612cbe929190614444565b60405180910390a2612cd485600c54600061279d565b50612ce181868686611942565b3373ffffffffffffffffffffffffffffffffffffffff167f6e88c611323cf4a2bd9e908bf748750db2a19609319972f06a960f492071e0e08242604051612d29929190614444565b60405180910390a2505050505050565b612d438282611474565b612dba57612d5081612f24565b612d5e8360001c6020612f51565b604051602001612d6f9291906153d4565b6040516020818303038152906040526040517f08c379a0000000000000000000000000000000000000000000000000000000008152600401612db19190615447565b60405180910390fd5b5050565b6002805403612e02576040517f08c379a0000000000000000000000000000000000000000000000000000000008152600401612df9906154b5565b60405180910390fd5b60028081905550565b6001600281905550565b612e98846323b872dd60e01b858585604051602401612e36939291906154d5565b604051602081830303815290604052907bffffffffffffffffffffffffffffffffffffffffffffffffffffffff19166020820180517bffffffffffffffffffffffffffffffffffffffffffffffffffffffff838183161783525050505061318d565b50505050565b612f1f8363a9059cbb60e01b8484604051602401612ebd92919061550c565b604051602081830303815290604052907bffffffffffffffffffffffffffffffffffffffffffffffffffffffff19166020820180517bffffffffffffffffffffffffffffffffffffffffffffffffffffffff838183161783525050505061318d565b505050565b6060612f4a8273ffffffffffffffffffffffffffffffffffffffff16601460ff16612f51565b9050919050565b606060006002836002612f6491906150fd565b612f6e919061472e565b67ffffffffffffffff811115612f8757612f86613a25565b5b6040519080825280601f01601f191660200182016040528015612fb95781602001600182028036833780820191505090505b5090507f300000000000000000000000000000000000000000000000000000000000000081600081518110612ff157612ff0615535565b5b60200101907effffffffffffffffffffffffffffffffffffffffffffffffffffffffffffff1916908160001a9053507f78000000000000000000000000000000000000000000000000000000000000008160018151811061305557613054615535565b5b60200101907effffffffffffffffffffffffffffffffffffffffffffffffffffffffffffff1916908160001a9053506000600184600261309591906150fd565b61309f919061472e565b90505b600181111561313f577f3031323334353637383961626364656600000000000000000000000000000000600f8616601081106130e1576130e0615535565b5b1a60f81b8282815181106130f8576130f7615535565b5b60200101907effffffffffffffffffffffffffffffffffffffffffffffffffffffffffffff1916908160001a905350600485901c94508061313890615564565b90506130a2565b5060008414613183576040517f08c379a000000000000000000000000000000000000000000000000000000000815260040161317a906155d9565b60405180910390fd5b8091505092915050565b60006131ef826040518060400160405280602081526020017f5361666545524332303a206c6f772d6c6576656c2063616c6c206661696c65648152508573ffffffffffffffffffffffffffffffffffffffff166132559092919063ffffffff16565b9050600081511480613211575080806020019051810190613210919061560e565b5b613250576040517f08c379a0000000000000000000000000000000000000000000000000000000008152600401613247906156ad565b60405180910390fd5b505050565b6060613264848460008561326d565b90509392505050565b6060824710156132b2576040517f08c379a00000000000000000000000000000000000000000000000000000000081526004016132a99061573f565b60405180910390fd5b6000808673ffffffffffffffffffffffffffffffffffffffff1685876040516132db91906157a6565b60006040518083038185875af1925050503d8060008114613318576040519150601f19603f3d011682016040523d82523d6000602084013e61331d565b606091505b509150915061332e8783838761333a565b92505050949350505050565b6060831561339c57600083510361339457613354856133af565b613393576040517f08c379a000000000000000000000000000000000000000000000000000000000815260040161338a90615809565b60405180910390fd5b5b8290506133a7565b6133a683836133d2565b5b949350505050565b6000808273ffffffffffffffffffffffffffffffffffffffff163b119050919050565b6000825111156133e55781518083602001fd5b806040517f08c379a00000000000000000000000000000000000000000000000000000000081526004016134199190615447565b60405180910390fd5b600082825260208201905092915050565b7f4574686572206e6f742061636365707465640000000000000000000000000000600082015250565b6000613469601283613422565b915061347482613433565b602082019050919050565b600060208201905081810360008301526134988161345c565b9050919050565b7f46756e6374696f6e206e6f7420737570706f7274656400000000000000000000600082015250565b60006134d5601683613422565b91506134e08261349f565b602082019050919050565b60006020820190508181036000830152613504816134c8565b9050919050565b600060ff82169050919050565b6135218161350b565b82525050565b600060208201905061353c6000830184613518565b92915050565b6000604051905090565b600080fd5b600080fd5b60007fffffffff0000000000000000000000000000000000000000000000000000000082169050919050565b61358b81613556565b811461359657600080fd5b50565b6000813590506135a881613582565b92915050565b6000602082840312156135c4576135c361354c565b5b60006135d284828501613599565b91505092915050565b60008115159050919050565b6135f0816135db565b82525050565b600060208201905061360b60008301846135e7565b92915050565b600073ffffffffffffffffffffffffffffffffffffffff82169050919050565b600061363c82613611565b9050919050565b61364c81613631565b811461365757600080fd5b50565b60008135905061366981613643565b92915050565b6000602082840312156136855761368461354c565b5b60006136938482850161365a565b91505092915050565b6000819050919050565b6136af8161369c565b81146136ba57600080fd5b50565b6000813590506136cc816136a6565b92915050565b6000602082840312156136e8576136e761354c565b5b60006136f6848285016136bd565b91505092915050565b6137088161369c565b82525050565b600060208201905061372360008301846136ff565b92915050565b6000819050919050565b61373c81613729565b811461374757600080fd5b50565b60008135905061375981613733565b92915050565b6000602082840312156137755761377461354c565b5b60006137838482850161374a565b91505092915050565b600080604083850312156137a3576137a261354c565b5b60006137b1858286016136bd565b92505060206137c28582860161365a565b9150509250929050565b6137d581613729565b82525050565b60006020820190506137f060008301846137cc565b92915050565b6137ff8161350b565b811461380a57600080fd5b50565b60008135905061381c816137f6565b92915050565b6000602082840312156138385761383761354c565b5b60006138468482850161380d565b91505092915050565b600061385a82613611565b9050919050565b61386a8161384f565b811461387557600080fd5b50565b60008135905061388781613861565b92915050565b6000602082840312156138a3576138a261354c565b5b60006138b184828501613878565b91505092915050565b6138c3816135db565b81146138ce57600080fd5b50565b6000813590506138e0816138ba565b92915050565b6000806000606084860312156138ff576138fe61354c565b5b600061390d8682870161374a565b935050602061391e8682870161365a565b925050604061392f868287016138d1565b9150509250925092565b61394281613631565b82525050565b600060208201905061395d6000830184613939565b92915050565b6000806040838503121561397a5761397961354c565b5b60006139888582860161374a565b92505060206139998582860161365a565b9150509250929050565b600080600080608085870312156139bd576139bc61354c565b5b60006139cb8782880161374a565b94505060206139dc8782880161365a565b93505060406139ed8782880161365a565b92505060606139fe8782880161365a565b91505092959194509250565b600080fd5b600080fd5b6000601f19601f8301169050919050565b7f4e487b7100000000000000000000000000000000000000000000000000000000600052604160045260246000fd5b613a5d82613a14565b810181811067ffffffffffffffff82111715613a7c57613a7b613a25565b5b80604052505050565b6000613a8f613542565b9050613a9b8282613a54565b919050565b600067ffffffffffffffff821115613abb57613aba613a25565b5b613ac482613a14565b9050602081019050919050565b82818337600083830152505050565b6000613af3613aee84613aa0565b613a85565b905082815260208101848484011115613b0f57613b0e613a0f565b5b613b1a848285613ad1565b509392505050565b600082601f830112613b3757613b36613a0a565b5b8135613b47848260208601613ae0565b91505092915050565b600080600080600060a08688031215613b6c57613b6b61354c565b5b6000613b7a8882890161365a565b9550506020613b8b8882890161365a565b9450506040613b9c8882890161365a565b9350506060613bad8882890161374a565b925050608086013567ffffffffffffffff811115613bce57613bcd613551565b5b613bda88828901613b22565b9150509295509295909350565b6000819050919050565b6000613c0c613c07613c0284613611565b613be7565b613611565b9050919050565b6000613c1e82613bf1565b9050919050565b6000613c3082613c13565b9050919050565b613c4081613c25565b82525050565b6000602082019050613c5b6000830184613c37565b92915050565b7f4d656d62657273686970207061796d656e7473206d75737420626520706f736960008201527f7469766500000000000000000000000000000000000000000000000000000000602082015250565b6000613cbd602483613422565b9150613cc882613c61565b604082019050919050565b60006020820190508181036000830152613cec81613cb0565b9050919050565b7f5061796d656e7420746f20427573696e6573732063616e6e6f7420657863656560008201527f64206d6178000000000000000000000000000000000000000000000000000000602082015250565b6000613d4f602583613422565b9150613d5a82613cf3565b604082019050919050565b60006020820190508181036000830152613d7e81613d42565b9050919050565b7f4d454d424552534849505f5041594d454e545f544f5f425553494e4553530000600082015250565b6000613dbb601e83613422565b9150613dc682613d85565b602082019050919050565b60006060820190508181036000830152613dea81613dae565b9050613df960208301856137cc565b613e0660408301846137cc565b9392505050565b7f5061796d656e7420746f2055706c696e652063616e6e6f74206578636565642060008201527f6d61780000000000000000000000000000000000000000000000000000000000602082015250565b6000613e69602383613422565b9150613e7482613e0d565b604082019050919050565b60006020820190508181036000830152613e9881613e5c565b9050919050565b7f4d454d424552534849505f5041594d454e545f544f5f55504c494e4500000000600082015250565b6000613ed5601c83613422565b9150613ee082613e9f565b602082019050919050565b60006060820190508181036000830152613f0481613ec8565b9050613f1360208301856137cc565b613f2060408301846137cc565b9392505050565b7f416363657373436f6e74726f6c3a2063616e206f6e6c792072656e6f756e636560008201527f20726f6c657320666f722073656c660000000000000000000000000000000000602082015250565b6000613f83602f83613422565b9150613f8e82613f27565b604082019050919050565b60006020820190508181036000830152613fb281613f76565b9050919050565b7f4d6178206d75737420657863656564206d696e00000000000000000000000000600082015250565b6000613fef601383613422565b9150613ffa82613fb9565b602082019050919050565b6000602082019050818103600083015261401e81613fe2565b9050919050565b7f4d41585f434f4e54524143545f42414c414e4345000000000000000000000000600082015250565b600061405b601483613422565b915061406682614025565b602082019050919050565b6000606082019050818103600083015261408a8161404e565b905061409960208301856137cc565b6140a660408301846137cc565b9392505050565b7f436f6d6d697373696f6e207061796d656e7473206d75737420626520706f736960008201527f7469766500000000000000000000000000000000000000000000000000000000602082015250565b6000614109602483613422565b9150614114826140ad565b604082019050919050565b60006020820190508181036000830152614138816140fc565b9050919050565b7f546f74616c20636f6d6d697373696f6e2063616e6e6f7420657863656564203160008201527f3030250000000000000000000000000000000000000000000000000000000000602082015250565b600061419b602383613422565b91506141a68261413f565b604082019050919050565b600060208201905081810360008301526141ca8161418e565b9050919050565b7f434f4d4d495353494f4e5f5045525f54484952545f4c4556454c5f555044415460008201527f4544000000000000000000000000000000000000000000000000000000000000602082015250565b600061422d602283613422565b9150614238826141d1565b604082019050919050565b600061425e6142596142548461350b565b613be7565b613729565b9050919050565b61426e81614243565b82525050565b6000606082019050818103600083015261428d81614220565b905061429c6020830185614265565b6142a960408301846137cc565b9392505050565b7f496e76616c696420616464726573730000000000000000000000000000000000600082015250565b60006142e6600f83613422565b91506142f1826142b0565b602082019050919050565b60006020820190508181036000830152614315816142d9565b9050919050565b7f425553494e4553535f57414c4c45540000000000000000000000000000000000600082015250565b6000614352600f83613422565b915061435d8261431c565b602082019050919050565b6000604082019050818103600083015261438181614345565b905061439060208301846137cc565b92915050565b6000815190506143a581613733565b92915050565b6000602082840312156143c1576143c061354c565b5b60006143cf84828501614396565b91505092915050565b7f446972656363696f6e20696e76616c6964610000000000000000000000000000600082015250565b600061440e601283613422565b9150614419826143d8565b602082019050919050565b6000602082019050818103600083015261443d81614401565b9050919050565b600060408201905061445960008301856137cc565b61446660208301846137cc565b9392505050565b7f4d696e696d756d20616d6f756e74206d7573742062652067726561746572207460008201527f68616e2030000000000000000000000000000000000000000000000000000000602082015250565b60006144c9602583613422565b91506144d48261446d565b604082019050919050565b600060208201905081810360008301526144f8816144bc565b9050919050565b7f4d696e2063616e6e6f7420657863656564206d61780000000000000000000000600082015250565b6000614535601583613422565b9150614540826144ff565b602082019050919050565b6000602082019050818103600083015261456481614528565b9050919050565b7f4d494e5f414d4f554e545f544f5f4445504f5349540000000000000000000000600082015250565b60006145a1601583613422565b91506145ac8261456b565b602082019050919050565b600060608201905081810360008301526145d081614594565b90506145df60208301856137cc565b6145ec60408301846137cc565b9392505050565b7f4d69656d62726f206e6f2061637469766f000000000000000000000000000000600082015250565b6000614629601183613422565b9150614634826145f3565b602082019050919050565b600060208201905081810360008301526146588161461c565b9050919050565b7f4d6f6e746f20696e76616c69646f000000000000000000000000000000000000600082015250565b6000614695600e83613422565b91506146a08261465f565b602082019050919050565b600060208201905081810360008301526146c481614688565b9050919050565b7f4e487b7100000000000000000000000000000000000000000000000000000000600052601160045260246000fd5b600061470582613729565b915061471083613729565b9250828203905081811115614728576147276146cb565b5b92915050565b600061473982613729565b915061474483613729565b925082820190508082111561475c5761475b6146cb565b5b92915050565b7f456c206465706f7369746f206e6f207075656465207375706572617220656c2060008201527f6c696d6974652064656c20636f6e747261746f00000000000000000000000000602082015250565b60006147be603383613422565b91506147c982614762565b604082019050919050565b600060208201905081810360008301526147ed816147b1565b9050919050565b7f436f6d6d697373696f6e2063616e6e6f74206578636565642031303025000000600082015250565b600061482a601d83613422565b9150614835826147f4565b602082019050919050565b600060208201905081810360008301526148598161481d565b9050919050565b7f434f4d4d495353494f4e5f5045525f5345434f4e445f4c4556454c5f5550444160008201527f5445440000000000000000000000000000000000000000000000000000000000602082015250565b60006148bc602383613422565b91506148c782614860565b604082019050919050565b600060608201905081810360008301526148eb816148af565b90506148fa6020830185614265565b61490760408301846137cc565b9392505050565b7f4465706f7369746f206e6f20616c63616e7a61206d6f6e746f206d696e696d6f600082015250565b6000614944602083613422565b915061494f8261490e565b602082019050919050565b6000602082019050818103600083015261497381614937565b9050919050565b7f4e487b7100000000000000000000000000000000000000000000000000000000600052601260045260246000fd5b60006149b482613729565b91506149bf83613729565b9250826149cf576149ce61497a565b5b828206905092915050565b7f56616c6f722064656c206465706f7369746f206e6f2065732076616c69646f00600082015250565b6000614a10601f83613422565b9150614a1b826149da565b602082019050919050565b60006020820190508181036000830152614a3f81614a03565b9050919050565b7f4465706f7369746f2073757065726120656c206d6f6e746f20736f706f72746160008201527f646f20706f7220656c20636f6e747261746f0000000000000000000000000000602082015250565b6000614aa2603283613422565b9150614aad82614a46565b604082019050919050565b60006020820190508181036000830152614ad181614a95565b9050919050565b7f4572726f7220656e20656c2063616c63756c6f20646520636f6d6973696f6e6560008201527f7300000000000000000000000000000000000000000000000000000000000000602082015250565b6000614b34602183613422565b9150614b3f82614ad8565b604082019050919050565b60006020820190508181036000830152614b6381614b27565b9050919050565b600081519050919050565b600081905092915050565b60005b83811015614b9e578082015181840152602081019050614b83565b60008484015250505050565b6000614bb582614b6a565b614bbf8185614b75565b9350614bcf818560208601614b80565b80840191505092915050565b6000614be78284614baa565b915081905092915050565b7f436f6469676f20646520696e7669746163696f6e20696e76616c69646f000000600082015250565b6000614c28601d83613422565b9150614c3382614bf2565b602082019050919050565b60006020820190508181036000830152614c5781614c1b565b9050919050565b7f4d756c7469706c65206d7573742062652067726561746572207468616e203000600082015250565b6000614c94601f83613422565b9150614c9f82614c5e565b602082019050919050565b60006020820190508181036000830152614cc381614c87565b9050919050565b7f4445504f5349545f4d554c5449504c4500000000000000000000000000000000600082015250565b6000614d00601083613422565b9150614d0b82614cca565b602082019050919050565b60006060820190508181036000830152614d2f81614cf3565b9050614d3e60208301856137cc565b614d4b60408301846137cc565b9392505050565b7f434f4d4d495353494f4e5f5045525f46495253545f4c4556454c5f555044415460008201527f4544000000000000000000000000000000000000000000000000000000000000602082015250565b6000614dae602283613422565b9150614db982614d52565b604082019050919050565b60006060820190508181036000830152614ddd81614da1565b9050614dec6020830185614265565b614df960408301846137cc565b9392505050565b7f4f776e61626c653a206e6577206f776e657220697320746865207a65726f206160008201527f6464726573730000000000000000000000000000000000000000000000000000602082015250565b6000614e5c602683613422565b9150614e6782614e00565b604082019050919050565b60006020820190508181036000830152614e8b81614e4f565b9050919050565b7f4f776e61626c653a2063616c6c6572206973206e6f7420746865206f776e6572600082015250565b6000614ec8602083613422565b9150614ed382614e92565b602082019050919050565b60006020820190508181036000830152614ef781614ebb565b9050919050565b7f436f6e747261746f206e6f206375656e746120636f6e20737566696369656e7460008201527f657320666f6e646f730000000000000000000000000000000000000000000000602082015250565b6000614f5a602983613422565b9150614f6582614efe565b604082019050919050565b60006020820190508181036000830152614f8981614f4d565b9050919050565b6000604082019050614fa56000830185613939565b614fb26020830184613939565b9392505050565b7f496e73756666696369656e7420616c6c6f77616e636500000000000000000000600082015250565b6000614fef601683613422565b9150614ffa82614fb9565b602082019050919050565b6000602082019050818103600083015261501e81614fe2565b9050919050565b7f4e6f206375656e74617320636f6e205553445420656e2074752077616c6c6574600082015250565b600061505b602083613422565b915061506682615025565b602082019050919050565b6000602082019050818103600083015261508a8161504e565b9050919050565b7f4465706f7369746f206e6f2070756564652073657220766163696f0000000000600082015250565b60006150c7601b83613422565b91506150d282615091565b602082019050919050565b600060208201905081810360008301526150f6816150ba565b9050919050565b600061510882613729565b915061511383613729565b925082820261512181613729565b91508282048414831517615138576151376146cb565b5b5092915050565b600061514a82613729565b915061515583613729565b9250826151655761516461497a565b5b828204905092915050565b7f4c612063616e74696461642061207472616e736665726972206465626520736560008201527f72206d61796f722061206365726f000000000000000000000000000000000000602082015250565b60006151cc602e83613422565b91506151d782615170565b604082019050919050565b600060208201905081810360008301526151fb816151bf565b9050919050565b7f46726f6d20627573696e65737320636f6e747261637400000000000000000000600082015250565b6000615238601683613422565b915061524382615202565b602082019050919050565b600060408201905081810360008301526152678161522b565b905061527660208301846137cc565b92915050565b60006fffffffffffffffffffffffffffffffff82169050919050565b60006152a38261527c565b91506fffffffffffffffffffffffffffffffff82036152c5576152c46146cb565b5b600182019050919050565b7f4d6f6e746f20696e737566696369656e74650000000000000000000000000000600082015250565b6000615306601283613422565b9150615311826152d0565b602082019050919050565b60006020820190508181036000830152615335816152f9565b9050919050565b7f416363657373436f6e74726f6c3a206163636f756e7420000000000000000000600082015250565b6000615372601783614b75565b915061537d8261533c565b601782019050919050565b7f206973206d697373696e6720726f6c6520000000000000000000000000000000600082015250565b60006153be601183614b75565b91506153c982615388565b601182019050919050565b60006153df82615365565b91506153eb8285614baa565b91506153f6826153b1565b91506154028284614baa565b91508190509392505050565b600061541982614b6a565b6154238185613422565b9350615433818560208601614b80565b61543c81613a14565b840191505092915050565b60006020820190508181036000830152615461818461540e565b905092915050565b7f5265656e7472616e637947756172643a207265656e7472616e742063616c6c00600082015250565b600061549f601f83613422565b91506154aa82615469565b602082019050919050565b600060208201905081810360008301526154ce81615492565b9050919050565b60006060820190506154ea6000830186613939565b6154f76020830185613939565b61550460408301846137cc565b949350505050565b60006040820190506155216000830185613939565b61552e60208301846137cc565b9392505050565b7f4e487b7100000000000000000000000000000000000000000000000000000000600052603260045260246000fd5b600061556f82613729565b915060008203615582576155816146cb565b5b600182039050919050565b7f537472696e67733a20686578206c656e67746820696e73756666696369656e74600082015250565b60006155c3602083613422565b91506155ce8261558d565b602082019050919050565b600060208201905081810360008301526155f2816155b6565b9050919050565b600081519050615608816138ba565b92915050565b6000602082840312156156245761562361354c565b5b6000615632848285016155f9565b91505092915050565b7f5361666545524332303a204552433230206f7065726174696f6e20646964206e60008201527f6f74207375636365656400000000000000000000000000000000000000000000602082015250565b6000615697602a83613422565b91506156a28261563b565b604082019050919050565b600060208201905081810360008301526156c68161568a565b9050919050565b7f416464726573733a20696e73756666696369656e742062616c616e636520666f60008201527f722063616c6c0000000000000000000000000000000000000000000000000000602082015250565b6000615729602683613422565b9150615734826156cd565b604082019050919050565b600060208201905081810360008301526157588161571c565b9050919050565b600081519050919050565b600081905092915050565b60006157808261575f565b61578a818561576a565b935061579a818560208601614b80565b80840191505092915050565b60006157b28284615775565b915081905092915050565b7f416464726573733a2063616c6c20746f206e6f6e2d636f6e7472616374000000600082015250565b60006157f3601d83613422565b91506157fe826157bd565b602082019050919050565b60006020820190508181036000830152615822816157e6565b905091905056fea26469706673582212209a9cd01d57c52d72e09e1ed431310a59b75f7e8345a62863db244527427ddf5b64736f6c63430008140033",
  "devdoc": {
    "events": {
      "RoleAdminChanged(bytes32,bytes32,bytes32)": {
        "details": "Emitted when `newAdminRole` is set as ``role``'s admin role, replacing `previousAdminRole` `DEFAULT_ADMIN_ROLE` is the starting admin for all roles, despite {RoleAdminChanged} not being emitted signaling this. _Available since v3.1._"
      },
      "RoleGranted(bytes32,address,address)": {
        "details": "Emitted when `account` is granted `role`. `sender` is the account that originated the contract call, an admin role bearer except when using {AccessControl-_setupRole}."
      },
      "RoleRevoked(bytes32,address,address)": {
        "details": "Emitted when `account` is revoked `role`. `sender` is the account that originated the contract call:   - if using `revokeRole`, it is the admin role bearer   - if using `renounceRole`, it is the role bearer (i.e. `account`)"
      }
    },
    "kind": "dev",
    "methods": {
      "getRoleAdmin(bytes32)": {
        "details": "Returns the admin role that controls `role`. See {grantRole} and {revokeRole}. To change a role's admin, use {_setRoleAdmin}."
      },
      "grantRole(bytes32,address)": {
        "details": "Grants `role` to `account`. If `account` had not been already granted `role`, emits a {RoleGranted} event. Requirements: - the caller must have ``role``'s admin role. May emit a {RoleGranted} event."
      },
      "hasRole(bytes32,address)": {
        "details": "Returns `true` if `account` has been granted `role`."
      },
      "owner()": {
        "details": "Returns the address of the current owner."
      },
      "renounceOwnership()": {
        "details": "Leaves the contract without owner. It will not be possible to call `onlyOwner` functions. Can only be called by the current owner. NOTE: Renouncing ownership will leave the contract without an owner, thereby disabling any functionality that is only available to the owner."
      },
      "renounceRole(bytes32,address)": {
        "details": "Revokes `role` from the calling account. Roles are often managed via {grantRole} and {revokeRole}: this function's purpose is to provide a mechanism for accounts to lose their privileges if they are compromised (such as when a trusted device is misplaced). If the calling account had been revoked `role`, emits a {RoleRevoked} event. Requirements: - the caller must be `account`. May emit a {RoleRevoked} event."
      },
      "revokeRole(bytes32,address)": {
        "details": "Revokes `role` from `account`. If `account` had been granted `role`, emits a {RoleRevoked} event. Requirements: - the caller must have ``role``'s admin role. May emit a {RoleRevoked} event."
      },
      "supportsInterface(bytes4)": {
        "details": "See {IERC165-supportsInterface}."
      },
      "transferOwnership(address)": {
        "details": "Transfers ownership of the contract to a new account (`newOwner`). Can only be called by the current owner."
      }
    },
    "version": 1
  },
  "userdoc": {
    "kind": "user",
    "methods": {},
    "version": 1
  },
  "storageLayout": {
    "storage": [
      {
        "astId": 396,
        "contract": "contracts/FFFBusiness.sol:FFFBusiness",
        "label": "_owner",
        "offset": 0,
        "slot": "0",
        "type": "t_address"
      },
      {
        "astId": 24,
        "contract": "contracts/FFFBusiness.sol:FFFBusiness",
        "label": "_roles",
        "offset": 0,
        "slot": "1",
        "type": "t_mapping(t_bytes32,t_struct(RoleData)19_storage)"
      },
      {
        "astId": 512,
        "contract": "contracts/FFFBusiness.sol:FFFBusiness",
        "label": "_status",
        "offset": 0,
        "slot": "2",
        "type": "t_uint256"
      },
      {
        "astId": 2675,
        "contract": "contracts/FFFBusiness.sol:FFFBusiness",
        "label": "_MEMBER_KEY",
        "offset": 0,
        "slot": "3",
        "type": "t_bytes32"
      },
      {
        "astId": 2678,
        "contract": "contracts/FFFBusiness.sol:FFFBusiness",
        "label": "token",
        "offset": 0,
        "slot": "4",
        "type": "t_contract(IERC20)644"
      },
      {
        "astId": 2680,
        "contract": "contracts/FFFBusiness.sol:FFFBusiness",
        "label": "_businessWallet",
        "offset": 0,
        "slot": "5",
        "type": "t_address_payable"
      },
      {
        "astId": 2682,
        "contract": "contracts/FFFBusiness.sol:FFFBusiness",
        "label": "_totalMembers",
        "offset": 0,
        "slot": "6",
        "type": "t_uint128"
      },
      {
        "astId": 2684,
        "contract": "contracts/FFFBusiness.sol:FFFBusiness",
        "label": "_totalBalance",
        "offset": 0,
        "slot": "7",
        "type": "t_uint256"
      },
      {
        "astId": 2686,
        "contract": "contracts/FFFBusiness.sol:FFFBusiness",
        "label": "_MIN_AMOUNT_TO_DEPOSIT",
        "offset": 0,
        "slot": "8",
        "type": "t_uint256"
      },
      {
        "astId": 2688,
        "contract": "contracts/FFFBusiness.sol:FFFBusiness",
        "label": "_MAX_CONTRACT_BALANCE",
        "offset": 0,
        "slot": "9",
        "type": "t_uint256"
      },
      {
        "astId": 2690,
        "contract": "contracts/FFFBusiness.sol:FFFBusiness",
        "label": "_DEPOSIT_MULTIPLE",
        "offset": 0,
        "slot": "10",
        "type": "t_uint256"
      },
      {
        "astId": 2692,
        "contract": "contracts/FFFBusiness.sol:FFFBusiness",
        "label": "_MEMBERSHIP_PAYMENT_TO_BUSINESS",
        "offset": 0,
        "slot": "11",
        "type": "t_uint256"
      },
      {
        "astId": 2694,
        "contract": "contracts/FFFBusiness.sol:FFFBusiness",
        "label": "_MEMBERSHIP_PAYMENT_TO_UPLINE",
        "offset": 0,
        "slot": "12",
        "type": "t_uint256"
      },
      {
        "astId": 2696,
        "contract": "contracts/FFFBusiness.sol:FFFBusiness",
        "label": "_COMMISSION_PER_TIER_ONE",
        "offset": 0,
        "slot": "13",
        "type": "t_uint8"
      },
      {
        "astId": 2698,
        "contract": "contracts/FFFBusiness.sol:FFFBusiness",
        "label": "_COMMISSION_PER_TIER_TWO",
        "offset": 1,
        "slot": "13",
        "type": "t_uint8"
      },
      {
        "astId": 2700,
        "contract": "contracts/FFFBusiness.sol:FFFBusiness",
        "label": "_COMMISSION_PER_TIER_THREE",
        "offset": 2,
        "slot": "13",
        "type": "t_uint8"
      },
      {
        "astId": 2712,
        "contract": "contracts/FFFBusiness.sol:FFFBusiness",
        "label": "members",
        "offset": 0,
        "slot": "14",
        "type": "t_mapping(t_address,t_struct(Member)2707_storage)"
      }
    ],
    "types": {
      "t_address": {
        "encoding": "inplace",
        "label": "address",
        "numberOfBytes": "20"
      },
      "t_address_payable": {
        "encoding": "inplace",
        "label": "address payable",
        "numberOfBytes": "20"
      },
      "t_bool": {
        "encoding": "inplace",
        "label": "bool",
        "numberOfBytes": "1"
      },
      "t_bytes32": {
        "encoding": "inplace",
        "label": "bytes32",
        "numberOfBytes": "32"
      },
      "t_contract(IERC20)644": {
        "encoding": "inplace",
        "label": "contract IERC20",
        "numberOfBytes": "20"
      },
      "t_mapping(t_address,t_bool)": {
        "encoding": "mapping",
        "key": "t_address",
        "label": "mapping(address => bool)",
        "numberOfBytes": "32",
        "value": "t_bool"
      },
      "t_mapping(t_address,t_struct(Member)2707_storage)": {
        "encoding": "mapping",
        "key": "t_address",
        "label": "mapping(address => struct FFFBusiness.Member)",
        "numberOfBytes": "32",
        "value": "t_struct(Member)2707_storage"
      },
      "t_mapping(t_bytes32,t_struct(RoleData)19_storage)": {
        "encoding": "mapping",
        "key": "t_bytes32",
        "label": "mapping(bytes32 => struct AccessControl.RoleData)",
        "numberOfBytes": "32",
        "value": "t_struct(RoleData)19_storage"
      },
      "t_struct(Member)2707_storage": {
        "encoding": "inplace",
        "label": "struct FFFBusiness.Member",
        "members": [
          {
            "astId": 2702,
            "contract": "contracts/FFFBusiness.sol:FFFBusiness",
            "label": "memberWallet",
            "offset": 0,
            "slot": "0",
            "type": "t_address_payable"
          },
          {
            "astId": 2704,
            "contract": "contracts/FFFBusiness.sol:FFFBusiness",
            "label": "isActive",
            "offset": 20,
            "slot": "0",
            "type": "t_bool"
          },
          {
            "astId": 2706,
            "contract": "contracts/FFFBusiness.sol:FFFBusiness",
            "label": "balance",
            "offset": 0,
            "slot": "1",
            "type": "t_uint256"
          }
        ],
        "numberOfBytes": "64"
      },
      "t_struct(RoleData)19_storage": {
        "encoding": "inplace",
        "label": "struct AccessControl.RoleData",
        "members": [
          {
            "astId": 16,
            "contract": "contracts/FFFBusiness.sol:FFFBusiness",
            "label": "members",
            "offset": 0,
            "slot": "0",
            "type": "t_mapping(t_address,t_bool)"
          },
          {
            "astId": 18,
            "contract": "contracts/FFFBusiness.sol:FFFBusiness",
            "label": "adminRole",
            "offset": 0,
            "slot": "1",
            "type": "t_bytes32"
          }
        ],
        "numberOfBytes": "64"
      },
      "t_uint128": {
        "encoding": "inplace",
        "label": "uint128",
        "numberOfBytes": "16"
      },
      "t_uint256": {
        "encoding": "inplace",
        "label": "uint256",
        "numberOfBytes": "32"
      },
      "t_uint8": {
        "encoding": "inplace",
        "label": "uint8",
        "numberOfBytes": "1"
      }
    }
  }
}