{
  "address": "0xEbd5b020FEF9413CB420fff0C0CAE632315E8DdE",
  "abi": [
    {
      "inputs": [
        {
          "internalType": "address",
          "name": "_tokenAddress",
          "type": "address"
        }
      ],
      "stateMutability": "nonpayable",
      "type": "constructor"
    },
    {
      "anonymous": false,
      "inputs": [
        {
          "indexed": true,
          "internalType": "address",
          "name": "to",
          "type": "address"
        },
        {
          "indexed": false,
          "internalType": "uint256",
          "name": "amount",
          "type": "uint256"
        },
        {
          "indexed": false,
          "internalType": "uint256",
          "name": "timestamp",
          "type": "uint256"
        }
      ],
      "name": "CommissionPaid",
      "type": "event"
    },
    {
      "anonymous": false,
      "inputs": [
        {
          "indexed": false,
          "internalType": "string",
          "name": "config",
          "type": "string"
        },
        {
          "indexed": false,
          "internalType": "uint256",
          "name": "newValue",
          "type": "uint256"
        },
        {
          "indexed": false,
          "internalType": "uint256",
          "name": "timestamp",
          "type": "uint256"
        }
      ],
      "name": "ConfigUpdated",
      "type": "event"
    },
    {
      "anonymous": false,
      "inputs": [
        {
          "indexed": true,
          "internalType": "address",
          "name": "from",
          "type": "address"
        },
        {
          "indexed": false,
          "internalType": "uint256",
          "name": "amount",
          "type": "uint256"
        },
        {
          "indexed": false,
          "internalType": "uint256",
          "name": "timestamp",
          "type": "uint256"
        }
      ],
      "name": "DepositContract",
      "type": "event"
    },
    {
      "anonymous": false,
      "inputs": [
        {
          "indexed": true,
          "internalType": "address",
          "name": "from",
          "type": "address"
        },
        {
          "indexed": false,
          "internalType": "uint256",
          "name": "amount",
          "type": "uint256"
        },
        {
          "indexed": false,
          "internalType": "uint256",
          "name": "timestamp",
          "type": "uint256"
        }
      ],
      "name": "MembershipPaid",
      "type": "event"
    },
    {
      "anonymous": false,
      "inputs": [
        {
          "indexed": false,
          "internalType": "string",
          "name": "message",
          "type": "string"
        },
        {
          "indexed": true,
          "internalType": "address",
          "name": "oldOwner",
          "type": "address"
        },
        {
          "indexed": true,
          "internalType": "address",
          "name": "newOwner",
          "type": "address"
        },
        {
          "indexed": false,
          "internalType": "uint256",
          "name": "timestamp",
          "type": "uint256"
        }
      ],
      "name": "NewBusinessOwner",
      "type": "event"
    },
    {
      "anonymous": false,
      "inputs": [
        {
          "indexed": true,
          "internalType": "address",
          "name": "member",
          "type": "address"
        },
        {
          "indexed": false,
          "internalType": "uint256",
          "name": "timestamp",
          "type": "uint256"
        }
      ],
      "name": "NewMember",
      "type": "event"
    },
    {
      "anonymous": false,
      "inputs": [
        {
          "indexed": true,
          "internalType": "address",
          "name": "member",
          "type": "address"
        },
        {
          "indexed": false,
          "internalType": "uint256",
          "name": "amount",
          "type": "uint256"
        },
        {
          "indexed": false,
          "internalType": "uint256",
          "name": "timestamp",
          "type": "uint256"
        }
      ],
      "name": "NewSaving",
      "type": "event"
    },
    {
      "anonymous": false,
      "inputs": [
        {
          "indexed": true,
          "internalType": "address",
          "name": "previousOwner",
          "type": "address"
        },
        {
          "indexed": true,
          "internalType": "address",
          "name": "newOwner",
          "type": "address"
        }
      ],
      "name": "OwnershipTransferred",
      "type": "event"
    },
    {
      "anonymous": false,
      "inputs": [
        {
          "indexed": true,
          "internalType": "address",
          "name": "from",
          "type": "address"
        },
        {
          "indexed": false,
          "internalType": "uint256",
          "name": "amount",
          "type": "uint256"
        },
        {
          "indexed": false,
          "internalType": "uint256",
          "name": "timestamp",
          "type": "uint256"
        }
      ],
      "name": "TransferBusiness",
      "type": "event"
    },
    {
      "anonymous": false,
      "inputs": [
        {
          "indexed": true,
          "internalType": "address",
          "name": "to",
          "type": "address"
        },
        {
          "indexed": false,
          "internalType": "uint256",
          "name": "amount",
          "type": "uint256"
        },
        {
          "indexed": false,
          "internalType": "uint256",
          "name": "timestamp",
          "type": "uint256"
        }
      ],
      "name": "WithdrawalContract",
      "type": "event"
    },
    {
      "anonymous": false,
      "inputs": [
        {
          "indexed": true,
          "internalType": "address",
          "name": "to",
          "type": "address"
        },
        {
          "indexed": false,
          "internalType": "uint256",
          "name": "amount",
          "type": "uint256"
        },
        {
          "indexed": false,
          "internalType": "uint256",
          "name": "timestamp",
          "type": "uint256"
        }
      ],
      "name": "WithdrawalMember",
      "type": "event"
    },
    {
      "stateMutability": "payable",
      "type": "fallback"
    },
    {
      "inputs": [
        {
          "internalType": "address",
          "name": "_member",
          "type": "address"
        }
      ],
      "name": "checkActiveMember",
      "outputs": [
        {
          "internalType": "bool",
          "name": "",
          "type": "bool"
        }
      ],
      "stateMutability": "view",
      "type": "function"
    },
    {
      "inputs": [
        {
          "internalType": "address",
          "name": "_memberAddress",
          "type": "address"
        },
        {
          "internalType": "uint256",
          "name": "_decreaseAmount",
          "type": "uint256"
        }
      ],
      "name": "decreaseMemberFunds",
      "outputs": [],
      "stateMutability": "nonpayable",
      "type": "function"
    },
    {
      "inputs": [
        {
          "internalType": "uint256",
          "name": "_amount",
          "type": "uint256"
        }
      ],
      "name": "deposit",
      "outputs": [],
      "stateMutability": "nonpayable",
      "type": "function"
    },
    {
      "inputs": [
        {
          "internalType": "uint256",
          "name": "_amount",
          "type": "uint256"
        },
        {
          "internalType": "address",
          "name": "_firstLevelUpline",
          "type": "address"
        },
        {
          "internalType": "address",
          "name": "_secondLevelUpline",
          "type": "address"
        },
        {
          "internalType": "address",
          "name": "_thirtLevelUpline",
          "type": "address"
        }
      ],
      "name": "depositMemberFunds",
      "outputs": [],
      "stateMutability": "nonpayable",
      "type": "function"
    },
    {
      "inputs": [],
      "name": "getBusinessWallet",
      "outputs": [
        {
          "internalType": "address",
          "name": "",
          "type": "address"
        }
      ],
      "stateMutability": "view",
      "type": "function"
    },
    {
      "inputs": [],
      "name": "getCommissionTimestamp",
      "outputs": [
        {
          "internalType": "uint256",
          "name": "",
          "type": "uint256"
        }
      ],
      "stateMutability": "view",
      "type": "function"
    },
    {
      "inputs": [],
      "name": "getCurrentContractBalance",
      "outputs": [
        {
          "internalType": "uint256",
          "name": "",
          "type": "uint256"
        }
      ],
      "stateMutability": "view",
      "type": "function"
    },
    {
      "inputs": [],
      "name": "getDepositMultiple",
      "outputs": [
        {
          "internalType": "uint128",
          "name": "",
          "type": "uint128"
        }
      ],
      "stateMutability": "view",
      "type": "function"
    },
    {
      "inputs": [],
      "name": "getMaxContractBalance",
      "outputs": [
        {
          "internalType": "uint128",
          "name": "",
          "type": "uint128"
        }
      ],
      "stateMutability": "view",
      "type": "function"
    },
    {
      "inputs": [
        {
          "internalType": "address",
          "name": "_currentMember",
          "type": "address"
        }
      ],
      "name": "getMemberBalance",
      "outputs": [
        {
          "internalType": "uint256",
          "name": "",
          "type": "uint256"
        }
      ],
      "stateMutability": "view",
      "type": "function"
    },
    {
      "inputs": [],
      "name": "getMinAmountToDeposit",
      "outputs": [
        {
          "internalType": "uint128",
          "name": "",
          "type": "uint128"
        }
      ],
      "stateMutability": "view",
      "type": "function"
    },
    {
      "inputs": [],
      "name": "getPytTimestamp",
      "outputs": [
        {
          "internalType": "uint256",
          "name": "",
          "type": "uint256"
        }
      ],
      "stateMutability": "view",
      "type": "function"
    },
    {
      "inputs": [
        {
          "internalType": "address",
          "name": "_currentMember",
          "type": "address"
        }
      ],
      "name": "getTotalAffiliatesPerMember",
      "outputs": [
        {
          "internalType": "uint256",
          "name": "",
          "type": "uint256"
        }
      ],
      "stateMutability": "view",
      "type": "function"
    },
    {
      "inputs": [],
      "name": "getTotalMembers",
      "outputs": [
        {
          "internalType": "uint256",
          "name": "",
          "type": "uint256"
        }
      ],
      "stateMutability": "view",
      "type": "function"
    },
    {
      "inputs": [
        {
          "internalType": "address",
          "name": "_uplineAddress",
          "type": "address"
        },
        {
          "internalType": "address",
          "name": "_secondLevelUpline",
          "type": "address"
        },
        {
          "internalType": "address",
          "name": "_thirtLevelUpline",
          "type": "address"
        },
        {
          "internalType": "uint256",
          "name": "_amount",
          "type": "uint256"
        }
      ],
      "name": "memberEntrance",
      "outputs": [],
      "stateMutability": "nonpayable",
      "type": "function"
    },
    {
      "inputs": [],
      "name": "owner",
      "outputs": [
        {
          "internalType": "address",
          "name": "",
          "type": "address"
        }
      ],
      "stateMutability": "view",
      "type": "function"
    },
    {
      "inputs": [
        {
          "internalType": "uint256",
          "name": "_paymentAmount",
          "type": "uint256"
        },
        {
          "internalType": "address",
          "name": "_memberAddress",
          "type": "address"
        }
      ],
      "name": "paymentCommissions",
      "outputs": [],
      "stateMutability": "nonpayable",
      "type": "function"
    },
    {
      "inputs": [],
      "name": "renounceOwnership",
      "outputs": [],
      "stateMutability": "nonpayable",
      "type": "function"
    },
    {
      "inputs": [
        {
          "internalType": "address payable",
          "name": "_newBusinessWallet",
          "type": "address"
        }
      ],
      "name": "setBusinessWallet",
      "outputs": [],
      "stateMutability": "nonpayable",
      "type": "function"
    },
    {
      "inputs": [
        {
          "internalType": "uint8",
          "name": "_tier1",
          "type": "uint8"
        },
        {
          "internalType": "uint8",
          "name": "_tier2",
          "type": "uint8"
        },
        {
          "internalType": "uint8",
          "name": "_tier3",
          "type": "uint8"
        }
      ],
      "name": "setCommissionRates",
      "outputs": [],
      "stateMutability": "nonpayable",
      "type": "function"
    },
    {
      "inputs": [
        {
          "internalType": "uint128",
          "name": "_newMultiple",
          "type": "uint128"
        }
      ],
      "name": "setDepositMultiple",
      "outputs": [],
      "stateMutability": "nonpayable",
      "type": "function"
    },
    {
      "inputs": [
        {
          "internalType": "uint128",
          "name": "_newMaxBalance",
          "type": "uint128"
        }
      ],
      "name": "setMaxContractBalance",
      "outputs": [],
      "stateMutability": "nonpayable",
      "type": "function"
    },
    {
      "inputs": [
        {
          "internalType": "uint128",
          "name": "_toBusiness",
          "type": "uint128"
        },
        {
          "internalType": "uint128",
          "name": "_toUpline",
          "type": "uint128"
        }
      ],
      "name": "setMembershipPayments",
      "outputs": [],
      "stateMutability": "nonpayable",
      "type": "function"
    },
    {
      "inputs": [
        {
          "internalType": "uint128",
          "name": "_newMinAmount",
          "type": "uint128"
        }
      ],
      "name": "setMinAmountToDeposit",
      "outputs": [],
      "stateMutability": "nonpayable",
      "type": "function"
    },
    {
      "inputs": [
        {
          "internalType": "uint256",
          "name": "_pyt",
          "type": "uint256"
        },
        {
          "internalType": "uint256",
          "name": "_commission",
          "type": "uint256"
        }
      ],
      "name": "setTimestamps",
      "outputs": [],
      "stateMutability": "nonpayable",
      "type": "function"
    },
    {
      "inputs": [],
      "name": "token",
      "outputs": [
        {
          "internalType": "contract IERC20",
          "name": "",
          "type": "address"
        }
      ],
      "stateMutability": "view",
      "type": "function"
    },
    {
      "inputs": [
        {
          "internalType": "address",
          "name": "newOwner",
          "type": "address"
        }
      ],
      "name": "transferOwnership",
      "outputs": [],
      "stateMutability": "nonpayable",
      "type": "function"
    },
    {
      "inputs": [],
      "name": "withdraw",
      "outputs": [],
      "stateMutability": "nonpayable",
      "type": "function"
    },
    {
      "stateMutability": "payable",
      "type": "receive"
    }
  ],
  "transactionHash": "0xf2b619e9ba07708e19a1598d008a07db2777f40452cc0967cac569f19236174f",
  "args": [
    "0x4B846D9d563D434d275e2d3a532c30B0574DcA2e"
  ],
  "numDeployments": 5,
  "solcInputHash": "0b96fc40bd6f4eb6236d7b43997e452e",
  "bytecode": "0x60806040523480156200001157600080fd5b50604051620050f1380380620050f183398181016040528101906200003791906200067b565b620000576200004b6200032f60201b60201c565b6200033760201b60201c565b60018081905550600073ffffffffffffffffffffffffffffffffffffffff168173ffffffffffffffffffffffffffffffffffffffff1603620000d0576040517f08c379a0000000000000000000000000000000000000000000000000000000008152600401620000c7906200070e565b60405180910390fd5b6377359400600660006101000a8154816fffffffffffffffffffffffffffffffff02191690836fffffffffffffffffffffffffffffffff1602179055506509184e72a000600660106101000a8154816fffffffffffffffffffffffffffffffff02191690836fffffffffffffffffffffffffffffffff160217905550631dcd6500600760006101000a8154816fffffffffffffffffffffffffffffffff02191690836fffffffffffffffffffffffffffffffff1602179055506276a70060088190555062278d006009819055506317d78400600a60006101000a8154816fffffffffffffffffffffffffffffffff02191690836fffffffffffffffffffffffffffffffff1602179055506305f5e100600a60106101000a8154816fffffffffffffffffffffffffffffffff02191690836fffffffffffffffffffffffffffffffff1602179055506004600b60006101000a81548160ff021916908360ff1602179055506002600b60016101000a81548160ff021916908360ff1602179055506002600b60026101000a81548160ff021916908360ff16021790555033600360006101000a81548173ffffffffffffffffffffffffffffffffffffffff021916908373ffffffffffffffffffffffffffffffffffffffff16021790555080600260006101000a81548173ffffffffffffffffffffffffffffffffffffffff021916908373ffffffffffffffffffffffffffffffffffffffff160217905550600060058190555062000328600360009054906101000a900473ffffffffffffffffffffffffffffffffffffffff16620003fb60201b60201c565b5062000862565b600033905090565b60008060009054906101000a900473ffffffffffffffffffffffffffffffffffffffff169050816000806101000a81548173ffffffffffffffffffffffffffffffffffffffff021916908373ffffffffffffffffffffffffffffffffffffffff1602179055508173ffffffffffffffffffffffffffffffffffffffff168173ffffffffffffffffffffffffffffffffffffffff167f8be0079c531659141344cd1fd0a4f28419497f9722a3daafe3b4186f6b6457e060405160405180910390a35050565b80600073ffffffffffffffffffffffffffffffffffffffff168173ffffffffffffffffffffffffffffffffffffffff16036200046e576040517f08c379a0000000000000000000000000000000000000000000000000000000008152600401620004659062000780565b60405180910390fd5b60405180606001604052808373ffffffffffffffffffffffffffffffffffffffff1681526020016001151581526020016000815250600c60008473ffffffffffffffffffffffffffffffffffffffff1673ffffffffffffffffffffffffffffffffffffffff16815260200190815260200160002060008201518160000160006101000a81548173ffffffffffffffffffffffffffffffffffffffff021916908373ffffffffffffffffffffffffffffffffffffffff16021790555060208201518160000160146101000a81548160ff021916908315150217905550604082015181600101559050506004600081819054906101000a90046fffffffffffffffffffffffffffffffff16809291906200058690620007ed565b91906101000a8154816fffffffffffffffffffffffffffffffff02191690836fffffffffffffffffffffffffffffffff160217905550508173ffffffffffffffffffffffffffffffffffffffff167f7f48e4f7f3ef2c63408b16a799b8516cb879c145386aedd51a36938a02a1c2834260405162000605919062000845565b60405180910390a25050565b600080fd5b600073ffffffffffffffffffffffffffffffffffffffff82169050919050565b6000620006438262000616565b9050919050565b620006558162000636565b81146200066157600080fd5b50565b60008151905062000675816200064a565b92915050565b60006020828403121562000694576200069362000611565b5b6000620006a48482850162000664565b91505092915050565b600082825260208201905092915050565b7f546f6b656e20616464726573732063616e6e6f74206265207a65726f00000000600082015250565b6000620006f6601c83620006ad565b91506200070382620006be565b602082019050919050565b600060208201905081810360008301526200072981620006e7565b9050919050565b7f446972656363696f6e20696e76616c6964610000000000000000000000000000600082015250565b600062000768601283620006ad565b9150620007758262000730565b602082019050919050565b600060208201905081810360008301526200079b8162000759565b9050919050565b7f4e487b7100000000000000000000000000000000000000000000000000000000600052601160045260246000fd5b60006fffffffffffffffffffffffffffffffff82169050919050565b6000620007fa82620007d1565b91506fffffffffffffffffffffffffffffffff82036200081f576200081e620007a2565b5b600182019050919050565b6000819050919050565b6200083f816200082a565b82525050565b60006020820190506200085c600083018462000834565b92915050565b61487f80620008726000396000f3fe6080604052600436106101bb5760003560e01c80637f7efd1a116100ec578063ca55753a1161008a578063d59392de11610064578063d59392de14610636578063f2fde38b14610661578063fa1019771461068a578063fc0c546a146106b3576101fb565b8063ca55753a14610593578063cc2ec6ab146105d0578063d1947705146105f9576101fb565b8063aa331db5116100c6578063aa331db5146104eb578063b315ea3614610516578063b6b55f251461053f578063b713087014610568576101fb565b80637f7efd1a146104585780638da5cb5b146104955780638f180305146104c0576101fb565b80633ccfd60b116101595780634d6ece02116101335780634d6ece02146103c45780635afe70d7146103ed5780636d79008114610416578063715018a614610441576101fb565b80633ccfd60b1461035b5780633f37da5f146103725780634b71810d1461039b576101fb565b80632f3f199c116101955780632f3f199c146102b357806335b2455b146102dc578063361f1ad31461030557806337ca3b0614610330576101fb565b80630aa63285146102365780630b760cd914610261578063258cf9b81461028a576101fb565b366101fb576040517f08c379a00000000000000000000000000000000000000000000000000000000081526004016101f290612c2e565b60405180910390fd5b6040517f08c379a000000000000000000000000000000000000000000000000000000000815260040161022d90612c9a565b60405180910390fd5b34801561024257600080fd5b5061024b6106de565b6040516102589190612cd3565b60405180910390f35b34801561026d57600080fd5b5061028860048036038101906102839190612d3b565b6106e8565b005b34801561029657600080fd5b506102b160048036038101906102ac9190612d68565b6107ba565b005b3480156102bf57600080fd5b506102da60048036038101906102d59190612d3b565b6108ef565b005b3480156102e857600080fd5b5061030360048036038101906102fe9190612e32565b6109f0565b005b34801561031157600080fd5b5061031a610b11565b6040516103279190612e81565b60405180910390f35b34801561033c57600080fd5b50610345610b37565b6040516103529190612cd3565b60405180910390f35b34801561036757600080fd5b50610370610b41565b005b34801561037e57600080fd5b5061039960048036038101906103949190612d3b565b610b62565b005b3480156103a757600080fd5b506103c260048036038101906103bd9190612ed5565b610cb8565b005b3480156103d057600080fd5b506103eb60048036038101906103e69190612f28565b610dc2565b005b3480156103f957600080fd5b50610414600480360381019061040f9190612fa6565b610f2e565b005b34801561042257600080fd5b5061042b611070565b6040516104389190612cd3565b60405180910390f35b34801561044d57600080fd5b5061045661111b565b005b34801561046457600080fd5b5061047f600480360381019061047a9190612fd3565b61112f565b60405161048c919061301b565b60405180910390f35b3480156104a157600080fd5b506104aa611188565b6040516104b79190613045565b60405180910390f35b3480156104cc57600080fd5b506104d56111b1565b6040516104e29190612cd3565b60405180910390f35b3480156104f757600080fd5b506105006111e9565b60405161050d9190613045565b60405180910390f35b34801561052257600080fd5b5061053d60048036038101906105389190613060565b611213565b005b34801561054b57600080fd5b50610566600480360381019061056191906130c7565b61141f565b005b34801561057457600080fd5b5061057d6114bf565b60405161058a9190612e81565b60405180910390f35b34801561059f57600080fd5b506105ba60048036038101906105b59190612fd3565b6114e5565b6040516105c79190612cd3565b60405180910390f35b3480156105dc57600080fd5b506105f760048036038101906105f291906130f4565b611531565b005b34801561060557600080fd5b50610620600480360381019061061b9190612fd3565b611b47565b60405161062d9190612cd3565b60405180910390f35b34801561064257600080fd5b5061064b611b93565b6040516106589190612e81565b60405180910390f35b34801561066d57600080fd5b5061068860048036038101906106839190612fd3565b611bb9565b005b34801561069657600080fd5b506106b160048036038101906106ac919061315b565b611c3c565b005b3480156106bf57600080fd5b506106c8611ce9565b6040516106d591906131fa565b60405180910390f35b6000600954905090565b6106f0611d0f565b6000816fffffffffffffffffffffffffffffffff1611610745576040517f08c379a000000000000000000000000000000000000000000000000000000000815260040161073c90613261565b60405180910390fd5b80600760006101000a8154816fffffffffffffffffffffffffffffffff02191690836fffffffffffffffffffffffffffffffff1602179055507fd7474166e78731bc168caca1fe1ccebbd6f3c95baee64997902e6b48f442b81a81426040516107af9291906132fe565b60405180910390a150565b6107c2611d0f565b6000826fffffffffffffffffffffffffffffffff161180156107f657506000816fffffffffffffffffffffffffffffffff16115b610835576040517f08c379a000000000000000000000000000000000000000000000000000000000815260040161082c906133ac565b60405180910390fd5b81600a60006101000a8154816fffffffffffffffffffffffffffffffff02191690836fffffffffffffffffffffffffffffffff16021790555080600a60106101000a8154816fffffffffffffffffffffffffffffffff02191690836fffffffffffffffffffffffffffffffff1602179055507fd7474166e78731bc168caca1fe1ccebbd6f3c95baee64997902e6b48f442b81a81836108d491906133fb565b426040516108e392919061348b565b60405180910390a15050565b6108f7611d0f565b600660009054906101000a90046fffffffffffffffffffffffffffffffff166fffffffffffffffffffffffffffffffff16816fffffffffffffffffffffffffffffffff161161097b576040517f08c379a000000000000000000000000000000000000000000000000000000000815260040161097290613513565b60405180910390fd5b80600660106101000a8154816fffffffffffffffffffffffffffffffff02191690836fffffffffffffffffffffffffffffffff1602179055507fd7474166e78731bc168caca1fe1ccebbd6f3c95baee64997902e6b48f442b81a81426040516109e592919061357f565b60405180910390a150565b6109f8611d0f565b80600073ffffffffffffffffffffffffffffffffffffffff168173ffffffffffffffffffffffffffffffffffffffff1603610a68576040517f08c379a0000000000000000000000000000000000000000000000000000000008152600401610a5f90613607565b60405180910390fd5b82610a71611070565b1015610ab2576040517f08c379a0000000000000000000000000000000000000000000000000000000008152600401610aa990613699565b60405180910390fd5b610abc8284611d8d565b8173ffffffffffffffffffffffffffffffffffffffff167fe37b2ae9cc03ec700b9146c4df2fc797e7a1119c08fc25513755ab5315faa6d28442604051610b049291906136b9565b60405180910390a2505050565b6000600660009054906101000a90046fffffffffffffffffffffffffffffffff16905090565b6000600854905090565b610b49611d0f565b6000610b53611070565b9050610b5f3382611e21565b50565b610b6a611d0f565b6000816fffffffffffffffffffffffffffffffff1611610bbf576040517f08c379a0000000000000000000000000000000000000000000000000000000008152600401610bb690613754565b60405180910390fd5b600660109054906101000a90046fffffffffffffffffffffffffffffffff166fffffffffffffffffffffffffffffffff16816fffffffffffffffffffffffffffffffff1610610c43576040517f08c379a0000000000000000000000000000000000000000000000000000000008152600401610c3a906137c0565b60405180910390fd5b80600660006101000a8154816fffffffffffffffffffffffffffffffff02191690836fffffffffffffffffffffffffffffffff1602179055507fd7474166e78731bc168caca1fe1ccebbd6f3c95baee64997902e6b48f442b81a8142604051610cad92919061382c565b60405180910390a150565b610cc0611d0f565b6064818385610ccf9190613868565b610cd99190613868565b60ff161115610d1d576040517f08c379a0000000000000000000000000000000000000000000000000000000008152600401610d149061390f565b60405180910390fd5b82600b60006101000a81548160ff021916908360ff16021790555081600b60016101000a81548160ff021916908360ff16021790555080600b60026101000a81548160ff021916908360ff1602179055507fd7474166e78731bc168caca1fe1ccebbd6f3c95baee64997902e6b48f442b81a818385610d9c9190613868565b610da69190613868565b42604051610db59291906139ac565b60405180910390a1505050565b610dca611d0f565b6000600c60008473ffffffffffffffffffffffffffffffffffffffff1673ffffffffffffffffffffffffffffffffffffffff16815260200190815260200160002090508060000160149054906101000a900460ff16610e5e576040517f08c379a0000000000000000000000000000000000000000000000000000000008152600401610e5590613a34565b60405180910390fd5b8181600101541015610ea5576040517f08c379a0000000000000000000000000000000000000000000000000000000008152600401610e9c90613aa0565b60405180910390fd5b81816001016000828254610eb99190613ac0565b925050819055508160056000828254610ed29190613ac0565b925050819055508273ffffffffffffffffffffffffffffffffffffffff167f8d39944b06acdac638a7aa16ecba5a5b350aba42c775308dab4c947d91f4f18a8342604051610f219291906136b9565b60405180910390a2505050565b610f36611d0f565b600073ffffffffffffffffffffffffffffffffffffffff168173ffffffffffffffffffffffffffffffffffffffff1603610fa5576040517f08c379a0000000000000000000000000000000000000000000000000000000008152600401610f9c90613b40565b60405180910390fd5b80600360006101000a81548173ffffffffffffffffffffffffffffffffffffffff021916908373ffffffffffffffffffffffffffffffffffffffff1602179055508073ffffffffffffffffffffffffffffffffffffffff16600360009054906101000a900473ffffffffffffffffffffffffffffffffffffffff1673ffffffffffffffffffffffffffffffffffffffff167f9d6ad1956bc285ee763af0abf79be6b40f0fe495e250bd80c1bae2293ecc1df8426040516110659190613bac565b60405180910390a350565b600061107a611d0f565b600260009054906101000a900473ffffffffffffffffffffffffffffffffffffffff1673ffffffffffffffffffffffffffffffffffffffff166370a08231306040518263ffffffff1660e01b81526004016110d59190613045565b602060405180830381865afa1580156110f2573d6000803e3d6000fd5b505050506040513d601f19601f820116820180604052508101906111169190613bef565b905090565b611123611d0f565b61112d6000611ed9565b565b6000600c60008373ffffffffffffffffffffffffffffffffffffffff1673ffffffffffffffffffffffffffffffffffffffff16815260200190815260200160002060000160149054906101000a900460ff169050919050565b60008060009054906101000a900473ffffffffffffffffffffffffffffffffffffffff16905090565b6000600460009054906101000a90046fffffffffffffffffffffffffffffffff166fffffffffffffffffffffffffffffffff16905090565b6000600360009054906101000a900473ffffffffffffffffffffffffffffffffffffffff16905090565b600c60003373ffffffffffffffffffffffffffffffffffffffff1673ffffffffffffffffffffffffffffffffffffffff16815260200190815260200160002060000160149054906101000a900460ff166112715761127033611f9d565b5b600073ffffffffffffffffffffffffffffffffffffffff168473ffffffffffffffffffffffffffffffffffffffff161461134a57600d60008573ffffffffffffffffffffffffffffffffffffffff1673ffffffffffffffffffffffffffffffffffffffff168152602001908152602001600020339080600181540180825580915050600190039060005260206000200160009091909190916101000a81548173ffffffffffffffffffffffffffffffffffffffff021916908373ffffffffffffffffffffffffffffffffffffffff16021790555061140d565b600d6000600360009054906101000a900473ffffffffffffffffffffffffffffffffffffffff1673ffffffffffffffffffffffffffffffffffffffff1673ffffffffffffffffffffffffffffffffffffffff168152602001908152602001600020339080600181540180825580915050600190039060005260206000200160009091909190916101000a81548173ffffffffffffffffffffffffffffffffffffffff021916908373ffffffffffffffffffffffffffffffffffffffff1602179055505b611419818585856121ac565b50505050565b611427611d0f565b600081611432611070565b61143c9190613c1c565b9050600660109054906101000a90046fffffffffffffffffffffffffffffffff166fffffffffffffffffffffffffffffffff168111156114b1576040517f08c379a00000000000000000000000000000000000000000000000000000000081526004016114a890613cc2565b60405180910390fd5b6114bb3383612507565b5050565b6000600660109054906101000a90046fffffffffffffffffffffffffffffffff16905090565b6000600c60008373ffffffffffffffffffffffffffffffffffffffff1673ffffffffffffffffffffffffffffffffffffffff168152602001908152602001600020600101549050919050565b600c60003373ffffffffffffffffffffffffffffffffffffffff1673ffffffffffffffffffffffffffffffffffffffff16815260200190815260200160002060000160149054906101000a900460ff166115c0576040517f08c379a00000000000000000000000000000000000000000000000000000000081526004016115b790613a34565b60405180910390fd5b600660009054906101000a90046fffffffffffffffffffffffffffffffff166fffffffffffffffffffffffffffffffff16841015611633576040517f08c379a000000000000000000000000000000000000000000000000000000000815260040161162a90613d2e565b60405180910390fd5b6000600760009054906101000a90046fffffffffffffffffffffffffffffffff166fffffffffffffffffffffffffffffffff16856116719190613d7d565b146116b1576040517f08c379a00000000000000000000000000000000000000000000000000000000081526004016116a890613dfa565b60405180910390fd5b600660109054906101000a90046fffffffffffffffffffffffffffffffff166fffffffffffffffffffffffffffffffff16846005546116f09190613c1c565b1115611731576040517f08c379a000000000000000000000000000000000000000000000000000000000815260040161172890613e8c565b60405180910390fd5b61173b3385612507565b836005600082825461174d9190613c1c565b9250508190555083600c60003373ffffffffffffffffffffffffffffffffffffffff1673ffffffffffffffffffffffffffffffffffffffff16815260200190815260200160002060010160008282546117a69190613c1c565b925050819055503373ffffffffffffffffffffffffffffffffffffffff167f6e88c611323cf4a2bd9e908bf748750db2a19609319972f06a960f492071e0e085426040516117f59291906136b9565b60405180910390a2600061181b85600b60009054906101000a900460ff1660ff166127ab565b9050600061183b86600b60019054906101000a900460ff1660ff166127ab565b9050600061185b87600b60029054906101000a900460ff1660ff166127ab565b9050600081838561186c9190613c1c565b6118769190613c1c565b9050600081896118869190613ac0565b90508181116118ca576040517f08c379a00000000000000000000000000000000000000000000000000000000081526004016118c190613f1e565b60405180910390fd5b600073ffffffffffffffffffffffffffffffffffffffff168873ffffffffffffffffffffffffffffffffffffffff161461195d576119088886611d8d565b8773ffffffffffffffffffffffffffffffffffffffff167fe37b2ae9cc03ec700b9146c4df2fc797e7a1119c08fc25513755ab5315faa6d286426040516119509291906136b9565b60405180910390a2600094505b600073ffffffffffffffffffffffffffffffffffffffff168773ffffffffffffffffffffffffffffffffffffffff16146119f05761199b8785611d8d565b8673ffffffffffffffffffffffffffffffffffffffff167fe37b2ae9cc03ec700b9146c4df2fc797e7a1119c08fc25513755ab5315faa6d285426040516119e39291906136b9565b60405180910390a2600093505b600073ffffffffffffffffffffffffffffffffffffffff168673ffffffffffffffffffffffffffffffffffffffff1614611a8357611a2e8684611d8d565b8573ffffffffffffffffffffffffffffffffffffffff167fe37b2ae9cc03ec700b9146c4df2fc797e7a1119c08fc25513755ab5315faa6d28642604051611a769291906136b9565b60405180910390a2600092505b828486611a909190613c1c565b611a9a9190613c1c565b81611aa59190613c1c565b9050611ad3600360009054906101000a900473ffffffffffffffffffffffffffffffffffffffff1682611d8d565b8860056000828254611ae59190613c1c565b925050819055503373ffffffffffffffffffffffffffffffffffffffff167f3428e989e797df55e8af7c22735e19d98f469023d200174911b2c8e0870240fe8242604051611b349291906136b9565b60405180910390a2505050505050505050565b6000600d60008373ffffffffffffffffffffffffffffffffffffffff1673ffffffffffffffffffffffffffffffffffffffff168152602001908152602001600020805490509050919050565b6000600760009054906101000a90046fffffffffffffffffffffffffffffffff16905090565b611bc1611d0f565b600073ffffffffffffffffffffffffffffffffffffffff168173ffffffffffffffffffffffffffffffffffffffff1603611c30576040517f08c379a0000000000000000000000000000000000000000000000000000000008152600401611c2790613fb0565b60405180910390fd5b611c3981611ed9565b50565b611c44611d0f565b600082118015611c545750600081115b611c93576040517f08c379a0000000000000000000000000000000000000000000000000000000008152600401611c8a90614042565b60405180910390fd5b81600881905550806009819055507fd7474166e78731bc168caca1fe1ccebbd6f3c95baee64997902e6b48f442b81a8183611cce9190613c1c565b42604051611cdd9291906140ae565b60405180910390a15050565b600260009054906101000a900473ffffffffffffffffffffffffffffffffffffffff1681565b611d176127cd565b73ffffffffffffffffffffffffffffffffffffffff16611d35611188565b73ffffffffffffffffffffffffffffffffffffffff1614611d8b576040517f08c379a0000000000000000000000000000000000000000000000000000000008152600401611d8290614136565b60405180910390fd5b565b60008111611dd0576040517f08c379a0000000000000000000000000000000000000000000000000000000008152600401611dc7906141c8565b60405180910390fd5b611e1d8282600260009054906101000a900473ffffffffffffffffffffffffffffffffffffffff1673ffffffffffffffffffffffffffffffffffffffff166127d59092919063ffffffff16565b5050565b611e2961285b565b80611e32611070565b1015611e73576040517f08c379a0000000000000000000000000000000000000000000000000000000008152600401611e6a90613699565b60405180910390fd5b611e7d8282611d8d565b3373ffffffffffffffffffffffffffffffffffffffff167f6dc924e950dd523781352d0a7468f2ee2905084dea2bb7411d7996224ce75a888242604051611ec59291906136b9565b60405180910390a2611ed56128aa565b5050565b60008060009054906101000a900473ffffffffffffffffffffffffffffffffffffffff169050816000806101000a81548173ffffffffffffffffffffffffffffffffffffffff021916908373ffffffffffffffffffffffffffffffffffffffff1602179055508173ffffffffffffffffffffffffffffffffffffffff168173ffffffffffffffffffffffffffffffffffffffff167f8be0079c531659141344cd1fd0a4f28419497f9722a3daafe3b4186f6b6457e060405160405180910390a35050565b80600073ffffffffffffffffffffffffffffffffffffffff168173ffffffffffffffffffffffffffffffffffffffff160361200d576040517f08c379a000000000000000000000000000000000000000000000000000000000815260040161200490613607565b60405180910390fd5b60405180606001604052808373ffffffffffffffffffffffffffffffffffffffff1681526020016001151581526020016000815250600c60008473ffffffffffffffffffffffffffffffffffffffff1673ffffffffffffffffffffffffffffffffffffffff16815260200190815260200160002060008201518160000160006101000a81548173ffffffffffffffffffffffffffffffffffffffff021916908373ffffffffffffffffffffffffffffffffffffffff16021790555060208201518160000160146101000a81548160ff021916908315150217905550604082015181600101559050506004600081819054906101000a90046fffffffffffffffffffffffffffffffff1680929190612123906141e8565b91906101000a8154816fffffffffffffffffffffffffffffffff02191690836fffffffffffffffffffffffffffffffff160217905550508173ffffffffffffffffffffffffffffffffffffffff167f7f48e4f7f3ef2c63408b16a799b8516cb879c145386aedd51a36938a02a1c283426040516121a09190612cd3565b60405180910390a25050565b600c60003373ffffffffffffffffffffffffffffffffffffffff1673ffffffffffffffffffffffffffffffffffffffff16815260200190815260200160002060000160149054906101000a900460ff1661223b576040517f08c379a000000000000000000000000000000000000000000000000000000000815260040161223290613a34565b60405180910390fd5b6000600a60109054906101000a90046fffffffffffffffffffffffffffffffff16600a60009054906101000a90046fffffffffffffffffffffffffffffffff1661228591906133fb565b6fffffffffffffffffffffffffffffffff169050600081866122a79190613ac0565b905081600660009054906101000a90046fffffffffffffffffffffffffffffffff166fffffffffffffffffffffffffffffffff166122e59190613c1c565b861015612327576040517f08c379a000000000000000000000000000000000000000000000000000000000815260040161231e9061426c565b60405180910390fd5b6123313383612507565b61238d600360009054906101000a900473ffffffffffffffffffffffffffffffffffffffff16600a60009054906101000a90046fffffffffffffffffffffffffffffffff166fffffffffffffffffffffffffffffffff16611d8d565b3373ffffffffffffffffffffffffffffffffffffffff167f8fed26ea05e17903891c5c2a70ac7ce2aeafbb48acf403b9defdb2c96ab2e5c3600a60009054906101000a90046fffffffffffffffffffffffffffffffff16426040516123f392919061428c565b60405180910390a261243585600a60109054906101000a90046fffffffffffffffffffffffffffffffff166fffffffffffffffffffffffffffffffff16611d8d565b8473ffffffffffffffffffffffffffffffffffffffff167fe37b2ae9cc03ec700b9146c4df2fc797e7a1119c08fc25513755ab5315faa6d2600a60109054906101000a90046fffffffffffffffffffffffffffffffff164260405161249b92919061428c565b60405180910390a26124af81868686611531565b3373ffffffffffffffffffffffffffffffffffffffff167f6e88c611323cf4a2bd9e908bf748750db2a19609319972f06a960f492071e0e082426040516124f79291906136b9565b60405180910390a2505050505050565b80600260009054906101000a900473ffffffffffffffffffffffffffffffffffffffff1673ffffffffffffffffffffffffffffffffffffffff1663dd62ed3e84306040518363ffffffff1660e01b81526004016125659291906142b5565b602060405180830381865afa158015612582573d6000803e3d6000fd5b505050506040513d601f19601f820116820180604052508101906125a69190613bef565b10156125e7576040517f08c379a00000000000000000000000000000000000000000000000000000000081526004016125de9061432a565b60405180910390fd5b600260009054906101000a900473ffffffffffffffffffffffffffffffffffffffff1673ffffffffffffffffffffffffffffffffffffffff166370a08231836040518263ffffffff1660e01b81526004016126429190613045565b602060405180830381865afa15801561265f573d6000803e3d6000fd5b505050506040513d601f19601f820116820180604052508101906126839190613bef565b8111156126c5576040517f08c379a00000000000000000000000000000000000000000000000000000000081526004016126bc90614396565b60405180910390fd5b60008111612708576040517f08c379a00000000000000000000000000000000000000000000000000000000081526004016126ff90614402565b60405180910390fd5b612757823083600260009054906101000a900473ffffffffffffffffffffffffffffffffffffffff1673ffffffffffffffffffffffffffffffffffffffff166128b3909392919063ffffffff16565b8173ffffffffffffffffffffffffffffffffffffffff167f695b93e5f85b6ac34424e1299d94bc079fb230aa7e5568a4e2e6214828cc936b824260405161279f9291906136b9565b60405180910390a25050565b6000606482846127bb9190614422565b6127c59190614464565b905092915050565b600033905090565b6128568363a9059cbb60e01b84846040516024016127f4929190614495565b604051602081830303815290604052907bffffffffffffffffffffffffffffffffffffffffffffffffffffffff19166020820180517bffffffffffffffffffffffffffffffffffffffffffffffffffffffff838183161783525050505061293c565b505050565b6002600154036128a0576040517f08c379a00000000000000000000000000000000000000000000000000000000081526004016128979061450a565b60405180910390fd5b6002600181905550565b60018081905550565b612936846323b872dd60e01b8585856040516024016128d49392919061452a565b604051602081830303815290604052907bffffffffffffffffffffffffffffffffffffffffffffffffffffffff19166020820180517bffffffffffffffffffffffffffffffffffffffffffffffffffffffff838183161783525050505061293c565b50505050565b600061299e826040518060400160405280602081526020017f5361666545524332303a206c6f772d6c6576656c2063616c6c206661696c65648152508573ffffffffffffffffffffffffffffffffffffffff16612a049092919063ffffffff16565b90506000815114806129c05750808060200190518101906129bf919061458d565b5b6129ff576040517f08c379a00000000000000000000000000000000000000000000000000000000081526004016129f69061462c565b60405180910390fd5b505050565b6060612a138484600085612a1c565b90509392505050565b606082471015612a61576040517f08c379a0000000000000000000000000000000000000000000000000000000008152600401612a58906146be565b60405180910390fd5b6000808673ffffffffffffffffffffffffffffffffffffffff168587604051612a8a919061474f565b60006040518083038185875af1925050503d8060008114612ac7576040519150601f19603f3d011682016040523d82523d6000602084013e612acc565b606091505b5091509150612add87838387612ae9565b92505050949350505050565b60608315612b4b576000835103612b4357612b0385612b5e565b612b42576040517f08c379a0000000000000000000000000000000000000000000000000000000008152600401612b39906147b2565b60405180910390fd5b5b829050612b56565b612b558383612b81565b5b949350505050565b6000808273ffffffffffffffffffffffffffffffffffffffff163b119050919050565b600082511115612b945781518083602001fd5b806040517f08c379a0000000000000000000000000000000000000000000000000000000008152600401612bc89190614827565b60405180910390fd5b600082825260208201905092915050565b7f4574686572206e6f742061636365707465640000000000000000000000000000600082015250565b6000612c18601283612bd1565b9150612c2382612be2565b602082019050919050565b60006020820190508181036000830152612c4781612c0b565b9050919050565b7f46756e6374696f6e206e6f7420737570706f7274656400000000000000000000600082015250565b6000612c84601683612bd1565b9150612c8f82612c4e565b602082019050919050565b60006020820190508181036000830152612cb381612c77565b9050919050565b6000819050919050565b612ccd81612cba565b82525050565b6000602082019050612ce86000830184612cc4565b92915050565b600080fd5b60006fffffffffffffffffffffffffffffffff82169050919050565b612d1881612cf3565b8114612d2357600080fd5b50565b600081359050612d3581612d0f565b92915050565b600060208284031215612d5157612d50612cee565b5b6000612d5f84828501612d26565b91505092915050565b60008060408385031215612d7f57612d7e612cee565b5b6000612d8d85828601612d26565b9250506020612d9e85828601612d26565b9150509250929050565b612db181612cba565b8114612dbc57600080fd5b50565b600081359050612dce81612da8565b92915050565b600073ffffffffffffffffffffffffffffffffffffffff82169050919050565b6000612dff82612dd4565b9050919050565b612e0f81612df4565b8114612e1a57600080fd5b50565b600081359050612e2c81612e06565b92915050565b60008060408385031215612e4957612e48612cee565b5b6000612e5785828601612dbf565b9250506020612e6885828601612e1d565b9150509250929050565b612e7b81612cf3565b82525050565b6000602082019050612e966000830184612e72565b92915050565b600060ff82169050919050565b612eb281612e9c565b8114612ebd57600080fd5b50565b600081359050612ecf81612ea9565b92915050565b600080600060608486031215612eee57612eed612cee565b5b6000612efc86828701612ec0565b9350506020612f0d86828701612ec0565b9250506040612f1e86828701612ec0565b9150509250925092565b60008060408385031215612f3f57612f3e612cee565b5b6000612f4d85828601612e1d565b9250506020612f5e85828601612dbf565b9150509250929050565b6000612f7382612dd4565b9050919050565b612f8381612f68565b8114612f8e57600080fd5b50565b600081359050612fa081612f7a565b92915050565b600060208284031215612fbc57612fbb612cee565b5b6000612fca84828501612f91565b91505092915050565b600060208284031215612fe957612fe8612cee565b5b6000612ff784828501612e1d565b91505092915050565b60008115159050919050565b61301581613000565b82525050565b6000602082019050613030600083018461300c565b92915050565b61303f81612df4565b82525050565b600060208201905061305a6000830184613036565b92915050565b6000806000806080858703121561307a57613079612cee565b5b600061308887828801612e1d565b945050602061309987828801612e1d565b93505060406130aa87828801612e1d565b92505060606130bb87828801612dbf565b91505092959194509250565b6000602082840312156130dd576130dc612cee565b5b60006130eb84828501612dbf565b91505092915050565b6000806000806080858703121561310e5761310d612cee565b5b600061311c87828801612dbf565b945050602061312d87828801612e1d565b935050604061313e87828801612e1d565b925050606061314f87828801612e1d565b91505092959194509250565b6000806040838503121561317257613171612cee565b5b600061318085828601612dbf565b925050602061319185828601612dbf565b9150509250929050565b6000819050919050565b60006131c06131bb6131b684612dd4565b61319b565b612dd4565b9050919050565b60006131d2826131a5565b9050919050565b60006131e4826131c7565b9050919050565b6131f4816131d9565b82525050565b600060208201905061320f60008301846131eb565b92915050565b7f4d756c7469706c65206d7573742062652067726561746572207468616e203000600082015250565b600061324b601f83612bd1565b915061325682613215565b602082019050919050565b6000602082019050818103600083015261327a8161323e565b9050919050565b7f4445504f5349545f4d554c5449504c4500000000000000000000000000000000600082015250565b60006132b7601083612bd1565b91506132c282613281565b602082019050919050565b60006132e86132e36132de84612cf3565b61319b565b612cba565b9050919050565b6132f8816132cd565b82525050565b60006060820190508181036000830152613317816132aa565b905061332660208301856132ef565b6133336040830184612cc4565b9392505050565b7f4d656d62657273686970207061796d656e7473206d75737420626520706f736960008201527f7469766500000000000000000000000000000000000000000000000000000000602082015250565b6000613396602483612bd1565b91506133a18261333a565b604082019050919050565b600060208201905081810360008301526133c581613389565b9050919050565b7f4e487b7100000000000000000000000000000000000000000000000000000000600052601160045260246000fd5b600061340682612cf3565b915061341183612cf3565b925082820190506fffffffffffffffffffffffffffffffff811115613439576134386133cc565b5b92915050565b7f4d454d424552534849505f5041594d454e545300000000000000000000000000600082015250565b6000613475601383612bd1565b91506134808261343f565b602082019050919050565b600060608201905081810360008301526134a481613468565b90506134b360208301856132ef565b6134c06040830184612cc4565b9392505050565b7f4d6178206d75737420657863656564206d696e00000000000000000000000000600082015250565b60006134fd601383612bd1565b9150613508826134c7565b602082019050919050565b6000602082019050818103600083015261352c816134f0565b9050919050565b7f4d41585f434f4e54524143545f42414c414e4345000000000000000000000000600082015250565b6000613569601483612bd1565b915061357482613533565b602082019050919050565b600060608201905081810360008301526135988161355c565b90506135a760208301856132ef565b6135b46040830184612cc4565b9392505050565b7f446972656363696f6e20696e76616c6964610000000000000000000000000000600082015250565b60006135f1601283612bd1565b91506135fc826135bb565b602082019050919050565b60006020820190508181036000830152613620816135e4565b9050919050565b7f436f6e747261746f206e6f206375656e746120636f6e20737566696369656e7460008201527f657320666f6e646f730000000000000000000000000000000000000000000000602082015250565b6000613683602983612bd1565b915061368e82613627565b604082019050919050565b600060208201905081810360008301526136b281613676565b9050919050565b60006040820190506136ce6000830185612cc4565b6136db6020830184612cc4565b9392505050565b7f4d696e696d756d20616d6f756e74206d7573742062652067726561746572207460008201527f68616e2030000000000000000000000000000000000000000000000000000000602082015250565b600061373e602583612bd1565b9150613749826136e2565b604082019050919050565b6000602082019050818103600083015261376d81613731565b9050919050565b7f4d696e2063616e6e6f7420657863656564206d61780000000000000000000000600082015250565b60006137aa601583612bd1565b91506137b582613774565b602082019050919050565b600060208201905081810360008301526137d98161379d565b9050919050565b7f4d494e5f414d4f554e545f544f5f4445504f5349540000000000000000000000600082015250565b6000613816601583612bd1565b9150613821826137e0565b602082019050919050565b6000606082019050818103600083015261384581613809565b905061385460208301856132ef565b6138616040830184612cc4565b9392505050565b600061387382612e9c565b915061387e83612e9c565b9250828201905060ff811115613897576138966133cc565b5b92915050565b7f546f74616c20636f6d6d697373696f6e2063616e6e6f7420657863656564203160008201527f3030250000000000000000000000000000000000000000000000000000000000602082015250565b60006138f9602383612bd1565b91506139048261389d565b604082019050919050565b60006020820190508181036000830152613928816138ec565b9050919050565b7f434f4d4d495353494f4e5f524154455300000000000000000000000000000000600082015250565b6000613965601083612bd1565b91506139708261392f565b602082019050919050565b600061399661399161398c84612e9c565b61319b565b612cba565b9050919050565b6139a68161397b565b82525050565b600060608201905081810360008301526139c581613958565b90506139d4602083018561399d565b6139e16040830184612cc4565b9392505050565b7f4d69656d62726f206e6f2061637469766f000000000000000000000000000000600082015250565b6000613a1e601183612bd1565b9150613a29826139e8565b602082019050919050565b60006020820190508181036000830152613a4d81613a11565b9050919050565b7f4d6f6e746f20696e76616c69646f000000000000000000000000000000000000600082015250565b6000613a8a600e83612bd1565b9150613a9582613a54565b602082019050919050565b60006020820190508181036000830152613ab981613a7d565b9050919050565b6000613acb82612cba565b9150613ad683612cba565b9250828203905081811115613aee57613aed6133cc565b5b92915050565b7f496e76616c696420616464726573730000000000000000000000000000000000600082015250565b6000613b2a600f83612bd1565b9150613b3582613af4565b602082019050919050565b60006020820190508181036000830152613b5981613b1d565b9050919050565b7f425553494e4553535f57414c4c45540000000000000000000000000000000000600082015250565b6000613b96600f83612bd1565b9150613ba182613b60565b602082019050919050565b60006040820190508181036000830152613bc581613b89565b9050613bd46020830184612cc4565b92915050565b600081519050613be981612da8565b92915050565b600060208284031215613c0557613c04612cee565b5b6000613c1384828501613bda565b91505092915050565b6000613c2782612cba565b9150613c3283612cba565b9250828201905080821115613c4a57613c496133cc565b5b92915050565b7f456c206465706f7369746f206e6f207075656465207375706572617220656c2060008201527f6c696d6974652064656c20636f6e747261746f00000000000000000000000000602082015250565b6000613cac603383612bd1565b9150613cb782613c50565b604082019050919050565b60006020820190508181036000830152613cdb81613c9f565b9050919050565b7f4465706f7369746f206e6f20616c63616e7a61206d6f6e746f206d696e696d6f600082015250565b6000613d18602083612bd1565b9150613d2382613ce2565b602082019050919050565b60006020820190508181036000830152613d4781613d0b565b9050919050565b7f4e487b7100000000000000000000000000000000000000000000000000000000600052601260045260246000fd5b6000613d8882612cba565b9150613d9383612cba565b925082613da357613da2613d4e565b5b828206905092915050565b7f56616c6f722064656c206465706f7369746f206e6f2065732076616c69646f00600082015250565b6000613de4601f83612bd1565b9150613def82613dae565b602082019050919050565b60006020820190508181036000830152613e1381613dd7565b9050919050565b7f4465706f7369746f2073757065726120656c206d6f6e746f20736f706f72746160008201527f646f20706f7220656c20636f6e747261746f0000000000000000000000000000602082015250565b6000613e76603283612bd1565b9150613e8182613e1a565b604082019050919050565b60006020820190508181036000830152613ea581613e69565b9050919050565b7f4572726f7220656e20656c2063616c63756c6f20646520636f6d6973696f6e6560008201527f7300000000000000000000000000000000000000000000000000000000000000602082015250565b6000613f08602183612bd1565b9150613f1382613eac565b604082019050919050565b60006020820190508181036000830152613f3781613efb565b9050919050565b7f4f776e61626c653a206e6577206f776e657220697320746865207a65726f206160008201527f6464726573730000000000000000000000000000000000000000000000000000602082015250565b6000613f9a602683612bd1565b9150613fa582613f3e565b604082019050919050565b60006020820190508181036000830152613fc981613f8d565b9050919050565b7f54696d657374616d7073206d7573742062652067726561746572207468616e2060008201527f3000000000000000000000000000000000000000000000000000000000000000602082015250565b600061402c602183612bd1565b915061403782613fd0565b604082019050919050565b6000602082019050818103600083015261405b8161401f565b9050919050565b7f54494d455354414d505300000000000000000000000000000000000000000000600082015250565b6000614098600a83612bd1565b91506140a382614062565b602082019050919050565b600060608201905081810360008301526140c78161408b565b90506140d66020830185612cc4565b6140e36040830184612cc4565b9392505050565b7f4f776e61626c653a2063616c6c6572206973206e6f7420746865206f776e6572600082015250565b6000614120602083612bd1565b915061412b826140ea565b602082019050919050565b6000602082019050818103600083015261414f81614113565b9050919050565b7f4c612063616e74696461642061207472616e736665726972206465626520736560008201527f72206d61796f722061206365726f000000000000000000000000000000000000602082015250565b60006141b2602e83612bd1565b91506141bd82614156565b604082019050919050565b600060208201905081810360008301526141e1816141a5565b9050919050565b60006141f382612cf3565b91506fffffffffffffffffffffffffffffffff8203614215576142146133cc565b5b600182019050919050565b7f4d6f6e746f20696e737566696369656e74650000000000000000000000000000600082015250565b6000614256601283612bd1565b915061426182614220565b602082019050919050565b6000602082019050818103600083015261428581614249565b9050919050565b60006040820190506142a160008301856132ef565b6142ae6020830184612cc4565b9392505050565b60006040820190506142ca6000830185613036565b6142d76020830184613036565b9392505050565b7f496e73756666696369656e7420616c6c6f77616e636500000000000000000000600082015250565b6000614314601683612bd1565b915061431f826142de565b602082019050919050565b6000602082019050818103600083015261434381614307565b9050919050565b7f4e6f206375656e74617320636f6e205553445420656e2074752077616c6c6574600082015250565b6000614380602083612bd1565b915061438b8261434a565b602082019050919050565b600060208201905081810360008301526143af81614373565b9050919050565b7f4465706f7369746f206e6f2070756564652073657220766163696f0000000000600082015250565b60006143ec601b83612bd1565b91506143f7826143b6565b602082019050919050565b6000602082019050818103600083015261441b816143df565b9050919050565b600061442d82612cba565b915061443883612cba565b925082820261444681612cba565b9150828204841483151761445d5761445c6133cc565b5b5092915050565b600061446f82612cba565b915061447a83612cba565b92508261448a57614489613d4e565b5b828204905092915050565b60006040820190506144aa6000830185613036565b6144b76020830184612cc4565b9392505050565b7f5265656e7472616e637947756172643a207265656e7472616e742063616c6c00600082015250565b60006144f4601f83612bd1565b91506144ff826144be565b602082019050919050565b60006020820190508181036000830152614523816144e7565b9050919050565b600060608201905061453f6000830186613036565b61454c6020830185613036565b6145596040830184612cc4565b949350505050565b61456a81613000565b811461457557600080fd5b50565b60008151905061458781614561565b92915050565b6000602082840312156145a3576145a2612cee565b5b60006145b184828501614578565b91505092915050565b7f5361666545524332303a204552433230206f7065726174696f6e20646964206e60008201527f6f74207375636365656400000000000000000000000000000000000000000000602082015250565b6000614616602a83612bd1565b9150614621826145ba565b604082019050919050565b6000602082019050818103600083015261464581614609565b9050919050565b7f416464726573733a20696e73756666696369656e742062616c616e636520666f60008201527f722063616c6c0000000000000000000000000000000000000000000000000000602082015250565b60006146a8602683612bd1565b91506146b38261464c565b604082019050919050565b600060208201905081810360008301526146d78161469b565b9050919050565b600081519050919050565b600081905092915050565b60005b838110156147125780820151818401526020810190506146f7565b60008484015250505050565b6000614729826146de565b61473381856146e9565b93506147438185602086016146f4565b80840191505092915050565b600061475b828461471e565b915081905092915050565b7f416464726573733a2063616c6c20746f206e6f6e2d636f6e7472616374000000600082015250565b600061479c601d83612bd1565b91506147a782614766565b602082019050919050565b600060208201905081810360008301526147cb8161478f565b9050919050565b600081519050919050565b6000601f19601f8301169050919050565b60006147f9826147d2565b6148038185612bd1565b93506148138185602086016146f4565b61481c816147dd565b840191505092915050565b6000602082019050818103600083015261484181846147ee565b90509291505056fea264697066735822122062c0f870e67ce8727be8b2b134e09f68a77d92f2c21654582c21e0e36624df5d64736f6c63430008140033",
  "devdoc": {
    "kind": "dev",
    "methods": {
      "owner()": {
        "details": "Returns the address of the current owner."
      },
      "renounceOwnership()": {
        "details": "Leaves the contract without owner. It will not be possible to call `onlyOwner` functions. Can only be called by the current owner. NOTE: Renouncing ownership will leave the contract without an owner, thereby disabling any functionality that is only available to the owner."
      },
      "transferOwnership(address)": {
        "details": "Transfers ownership of the contract to a new account (`newOwner`). Can only be called by the current owner."
      }
    },
    "version": 1
  },
  "userdoc": {
    "kind": "user",
    "methods": {},
    "version": 1
  },
  "storageLayout": {
    "storage": [
      {
        "astId": 7,
        "contract": "contracts/FFFBusiness.sol:FFFBusiness",
        "label": "_owner",
        "offset": 0,
        "slot": "0",
        "type": "t_address"
      },
      {
        "astId": 123,
        "contract": "contracts/FFFBusiness.sol:FFFBusiness",
        "label": "_status",
        "offset": 0,
        "slot": "1",
        "type": "t_uint256"
      },
      {
        "astId": 1043,
        "contract": "contracts/FFFBusiness.sol:FFFBusiness",
        "label": "token",
        "offset": 0,
        "slot": "2",
        "type": "t_contract(IERC20)255"
      },
      {
        "astId": 1045,
        "contract": "contracts/FFFBusiness.sol:FFFBusiness",
        "label": "_businessWallet",
        "offset": 0,
        "slot": "3",
        "type": "t_address_payable"
      },
      {
        "astId": 1047,
        "contract": "contracts/FFFBusiness.sol:FFFBusiness",
        "label": "_totalMembers",
        "offset": 0,
        "slot": "4",
        "type": "t_uint128"
      },
      {
        "astId": 1049,
        "contract": "contracts/FFFBusiness.sol:FFFBusiness",
        "label": "_totalBalance",
        "offset": 0,
        "slot": "5",
        "type": "t_uint256"
      },
      {
        "astId": 1051,
        "contract": "contracts/FFFBusiness.sol:FFFBusiness",
        "label": "_MIN_AMOUNT_TO_DEPOSIT",
        "offset": 0,
        "slot": "6",
        "type": "t_uint128"
      },
      {
        "astId": 1053,
        "contract": "contracts/FFFBusiness.sol:FFFBusiness",
        "label": "_MAX_CONTRACT_BALANCE",
        "offset": 16,
        "slot": "6",
        "type": "t_uint128"
      },
      {
        "astId": 1055,
        "contract": "contracts/FFFBusiness.sol:FFFBusiness",
        "label": "_DEPOSIT_MULTIPLE",
        "offset": 0,
        "slot": "7",
        "type": "t_uint128"
      },
      {
        "astId": 1057,
        "contract": "contracts/FFFBusiness.sol:FFFBusiness",
        "label": "_PYT_TIMESTAMP",
        "offset": 0,
        "slot": "8",
        "type": "t_uint256"
      },
      {
        "astId": 1059,
        "contract": "contracts/FFFBusiness.sol:FFFBusiness",
        "label": "_COMMISSION_TIMESTAMP",
        "offset": 0,
        "slot": "9",
        "type": "t_uint256"
      },
      {
        "astId": 1061,
        "contract": "contracts/FFFBusiness.sol:FFFBusiness",
        "label": "_MEMBERSHIP_PAYMENT_TO_BUSINESS",
        "offset": 0,
        "slot": "10",
        "type": "t_uint128"
      },
      {
        "astId": 1063,
        "contract": "contracts/FFFBusiness.sol:FFFBusiness",
        "label": "_MEMBERSHIP_PAYMENT_TO_UPLINE",
        "offset": 16,
        "slot": "10",
        "type": "t_uint128"
      },
      {
        "astId": 1065,
        "contract": "contracts/FFFBusiness.sol:FFFBusiness",
        "label": "_COMMISSION_PER_TIER_ONE",
        "offset": 0,
        "slot": "11",
        "type": "t_uint8"
      },
      {
        "astId": 1067,
        "contract": "contracts/FFFBusiness.sol:FFFBusiness",
        "label": "_COMMISSION_PER_TIER_TWO",
        "offset": 1,
        "slot": "11",
        "type": "t_uint8"
      },
      {
        "astId": 1069,
        "contract": "contracts/FFFBusiness.sol:FFFBusiness",
        "label": "_COMMISSION_PER_TIER_THREE",
        "offset": 2,
        "slot": "11",
        "type": "t_uint8"
      },
      {
        "astId": 1081,
        "contract": "contracts/FFFBusiness.sol:FFFBusiness",
        "label": "members",
        "offset": 0,
        "slot": "12",
        "type": "t_mapping(t_address,t_struct(Member)1076_storage)"
      },
      {
        "astId": 1086,
        "contract": "contracts/FFFBusiness.sol:FFFBusiness",
        "label": "enrolled",
        "offset": 0,
        "slot": "13",
        "type": "t_mapping(t_address,t_array(t_address)dyn_storage)"
      }
    ],
    "types": {
      "t_address": {
        "encoding": "inplace",
        "label": "address",
        "numberOfBytes": "20"
      },
      "t_address_payable": {
        "encoding": "inplace",
        "label": "address payable",
        "numberOfBytes": "20"
      },
      "t_array(t_address)dyn_storage": {
        "base": "t_address",
        "encoding": "dynamic_array",
        "label": "address[]",
        "numberOfBytes": "32"
      },
      "t_bool": {
        "encoding": "inplace",
        "label": "bool",
        "numberOfBytes": "1"
      },
      "t_contract(IERC20)255": {
        "encoding": "inplace",
        "label": "contract IERC20",
        "numberOfBytes": "20"
      },
      "t_mapping(t_address,t_array(t_address)dyn_storage)": {
        "encoding": "mapping",
        "key": "t_address",
        "label": "mapping(address => address[])",
        "numberOfBytes": "32",
        "value": "t_array(t_address)dyn_storage"
      },
      "t_mapping(t_address,t_struct(Member)1076_storage)": {
        "encoding": "mapping",
        "key": "t_address",
        "label": "mapping(address => struct FFFBusiness.Member)",
        "numberOfBytes": "32",
        "value": "t_struct(Member)1076_storage"
      },
      "t_struct(Member)1076_storage": {
        "encoding": "inplace",
        "label": "struct FFFBusiness.Member",
        "members": [
          {
            "astId": 1071,
            "contract": "contracts/FFFBusiness.sol:FFFBusiness",
            "label": "memberWallet",
            "offset": 0,
            "slot": "0",
            "type": "t_address_payable"
          },
          {
            "astId": 1073,
            "contract": "contracts/FFFBusiness.sol:FFFBusiness",
            "label": "isActive",
            "offset": 20,
            "slot": "0",
            "type": "t_bool"
          },
          {
            "astId": 1075,
            "contract": "contracts/FFFBusiness.sol:FFFBusiness",
            "label": "balance",
            "offset": 0,
            "slot": "1",
            "type": "t_uint256"
          }
        ],
        "numberOfBytes": "64"
      },
      "t_uint128": {
        "encoding": "inplace",
        "label": "uint128",
        "numberOfBytes": "16"
      },
      "t_uint256": {
        "encoding": "inplace",
        "label": "uint256",
        "numberOfBytes": "32"
      },
      "t_uint8": {
        "encoding": "inplace",
        "label": "uint8",
        "numberOfBytes": "1"
      }
    }
  }
}