{
  "address": "0x40E6dFc291B42ACCeEcB1Aa7790eD4ABcaaCA923",
  "abi": [
    {
      "inputs": [
        {
          "internalType": "address",
          "name": "_tokenAddress",
          "type": "address"
        },
        {
          "internalType": "string",
          "name": "memberKey",
          "type": "string"
        }
      ],
      "stateMutability": "nonpayable",
      "type": "constructor"
    },
    {
      "anonymous": false,
      "inputs": [
        {
          "indexed": true,
          "internalType": "address",
          "name": "to",
          "type": "address"
        },
        {
          "indexed": false,
          "internalType": "uint256",
          "name": "amount",
          "type": "uint256"
        },
        {
          "indexed": false,
          "internalType": "uint256",
          "name": "timestamp",
          "type": "uint256"
        }
      ],
      "name": "CommissionPaid",
      "type": "event"
    },
    {
      "anonymous": false,
      "inputs": [
        {
          "indexed": false,
          "internalType": "string",
          "name": "config",
          "type": "string"
        },
        {
          "indexed": false,
          "internalType": "uint256",
          "name": "newValue",
          "type": "uint256"
        },
        {
          "indexed": false,
          "internalType": "uint256",
          "name": "timestamp",
          "type": "uint256"
        }
      ],
      "name": "ConfigUpdated",
      "type": "event"
    },
    {
      "anonymous": false,
      "inputs": [
        {
          "indexed": true,
          "internalType": "address",
          "name": "from",
          "type": "address"
        },
        {
          "indexed": false,
          "internalType": "uint256",
          "name": "amount",
          "type": "uint256"
        },
        {
          "indexed": false,
          "internalType": "uint256",
          "name": "timestamp",
          "type": "uint256"
        }
      ],
      "name": "DepositContract",
      "type": "event"
    },
    {
      "anonymous": false,
      "inputs": [
        {
          "indexed": true,
          "internalType": "address",
          "name": "updater",
          "type": "address"
        }
      ],
      "name": "KeyUpdated",
      "type": "event"
    },
    {
      "anonymous": false,
      "inputs": [
        {
          "indexed": false,
          "internalType": "string",
          "name": "message",
          "type": "string"
        },
        {
          "indexed": false,
          "internalType": "uint256",
          "name": "amount",
          "type": "uint256"
        }
      ],
      "name": "Log",
      "type": "event"
    },
    {
      "anonymous": false,
      "inputs": [
        {
          "indexed": true,
          "internalType": "address",
          "name": "from",
          "type": "address"
        },
        {
          "indexed": false,
          "internalType": "uint256",
          "name": "amount",
          "type": "uint256"
        },
        {
          "indexed": false,
          "internalType": "uint256",
          "name": "timestamp",
          "type": "uint256"
        }
      ],
      "name": "MembershipPaid",
      "type": "event"
    },
    {
      "anonymous": false,
      "inputs": [
        {
          "indexed": false,
          "internalType": "string",
          "name": "message",
          "type": "string"
        },
        {
          "indexed": true,
          "internalType": "address",
          "name": "oldOwner",
          "type": "address"
        },
        {
          "indexed": true,
          "internalType": "address",
          "name": "newOwner",
          "type": "address"
        },
        {
          "indexed": false,
          "internalType": "uint256",
          "name": "timestamp",
          "type": "uint256"
        }
      ],
      "name": "NewBusinessOwner",
      "type": "event"
    },
    {
      "anonymous": false,
      "inputs": [
        {
          "indexed": true,
          "internalType": "address",
          "name": "member",
          "type": "address"
        },
        {
          "indexed": false,
          "internalType": "uint256",
          "name": "timestamp",
          "type": "uint256"
        }
      ],
      "name": "NewMember",
      "type": "event"
    },
    {
      "anonymous": false,
      "inputs": [
        {
          "indexed": true,
          "internalType": "address",
          "name": "member",
          "type": "address"
        },
        {
          "indexed": false,
          "internalType": "uint256",
          "name": "amount",
          "type": "uint256"
        },
        {
          "indexed": false,
          "internalType": "uint256",
          "name": "timestamp",
          "type": "uint256"
        }
      ],
      "name": "NewSaving",
      "type": "event"
    },
    {
      "anonymous": false,
      "inputs": [
        {
          "indexed": true,
          "internalType": "address",
          "name": "previousOwner",
          "type": "address"
        },
        {
          "indexed": true,
          "internalType": "address",
          "name": "newOwner",
          "type": "address"
        }
      ],
      "name": "OwnershipTransferred",
      "type": "event"
    },
    {
      "anonymous": false,
      "inputs": [
        {
          "indexed": false,
          "internalType": "string",
          "name": "message",
          "type": "string"
        },
        {
          "indexed": true,
          "internalType": "address",
          "name": "to",
          "type": "address"
        },
        {
          "indexed": false,
          "internalType": "uint256",
          "name": "amount",
          "type": "uint256"
        }
      ],
      "name": "ProccessPayment",
      "type": "event"
    },
    {
      "anonymous": false,
      "inputs": [
        {
          "indexed": true,
          "internalType": "address",
          "name": "to",
          "type": "address"
        },
        {
          "indexed": false,
          "internalType": "uint256",
          "name": "amount",
          "type": "uint256"
        },
        {
          "indexed": false,
          "internalType": "uint256",
          "name": "timestamp",
          "type": "uint256"
        }
      ],
      "name": "PullCommissionPaid",
      "type": "event"
    },
    {
      "anonymous": false,
      "inputs": [
        {
          "indexed": true,
          "internalType": "bytes32",
          "name": "role",
          "type": "bytes32"
        },
        {
          "indexed": true,
          "internalType": "bytes32",
          "name": "previousAdminRole",
          "type": "bytes32"
        },
        {
          "indexed": true,
          "internalType": "bytes32",
          "name": "newAdminRole",
          "type": "bytes32"
        }
      ],
      "name": "RoleAdminChanged",
      "type": "event"
    },
    {
      "anonymous": false,
      "inputs": [
        {
          "indexed": true,
          "internalType": "bytes32",
          "name": "role",
          "type": "bytes32"
        },
        {
          "indexed": true,
          "internalType": "address",
          "name": "account",
          "type": "address"
        },
        {
          "indexed": true,
          "internalType": "address",
          "name": "sender",
          "type": "address"
        }
      ],
      "name": "RoleGranted",
      "type": "event"
    },
    {
      "anonymous": false,
      "inputs": [
        {
          "indexed": true,
          "internalType": "bytes32",
          "name": "role",
          "type": "bytes32"
        },
        {
          "indexed": true,
          "internalType": "address",
          "name": "account",
          "type": "address"
        },
        {
          "indexed": true,
          "internalType": "address",
          "name": "sender",
          "type": "address"
        }
      ],
      "name": "RoleRevoked",
      "type": "event"
    },
    {
      "anonymous": false,
      "inputs": [
        {
          "indexed": true,
          "internalType": "address",
          "name": "from",
          "type": "address"
        },
        {
          "indexed": false,
          "internalType": "uint256",
          "name": "amount",
          "type": "uint256"
        },
        {
          "indexed": false,
          "internalType": "uint256",
          "name": "timestamp",
          "type": "uint256"
        }
      ],
      "name": "TransferBusiness",
      "type": "event"
    },
    {
      "anonymous": false,
      "inputs": [
        {
          "indexed": true,
          "internalType": "address",
          "name": "to",
          "type": "address"
        },
        {
          "indexed": false,
          "internalType": "uint256",
          "name": "amount",
          "type": "uint256"
        },
        {
          "indexed": false,
          "internalType": "uint256",
          "name": "timestamp",
          "type": "uint256"
        }
      ],
      "name": "WithdrawalContract",
      "type": "event"
    },
    {
      "anonymous": false,
      "inputs": [
        {
          "indexed": true,
          "internalType": "address",
          "name": "member",
          "type": "address"
        },
        {
          "indexed": true,
          "internalType": "address",
          "name": "to",
          "type": "address"
        },
        {
          "indexed": false,
          "internalType": "uint256",
          "name": "amount",
          "type": "uint256"
        },
        {
          "indexed": false,
          "internalType": "uint256",
          "name": "timestamp",
          "type": "uint256"
        }
      ],
      "name": "WithdrawalMember",
      "type": "event"
    },
    {
      "stateMutability": "payable",
      "type": "fallback"
    },
    {
      "inputs": [],
      "name": "ADMIN_ROLE",
      "outputs": [
        {
          "internalType": "bytes32",
          "name": "",
          "type": "bytes32"
        }
      ],
      "stateMutability": "view",
      "type": "function"
    },
    {
      "inputs": [],
      "name": "DEFAULT_ADMIN_ROLE",
      "outputs": [
        {
          "internalType": "bytes32",
          "name": "",
          "type": "bytes32"
        }
      ],
      "stateMutability": "view",
      "type": "function"
    },
    {
      "inputs": [
        {
          "internalType": "address",
          "name": "account",
          "type": "address"
        }
      ],
      "name": "addAdmin",
      "outputs": [],
      "stateMutability": "nonpayable",
      "type": "function"
    },
    {
      "inputs": [
        {
          "internalType": "uint256",
          "name": "_amount",
          "type": "uint256"
        }
      ],
      "name": "deposit",
      "outputs": [],
      "stateMutability": "nonpayable",
      "type": "function"
    },
    {
      "inputs": [
        {
          "internalType": "uint256",
          "name": "_amount",
          "type": "uint256"
        },
        {
          "internalType": "address",
          "name": "_firstLevelUpline",
          "type": "address"
        },
        {
          "internalType": "address",
          "name": "_secondLevelUpline",
          "type": "address"
        },
        {
          "internalType": "address",
          "name": "_thirtLevelUpline",
          "type": "address"
        },
        {
          "internalType": "string",
          "name": "_memberKey",
          "type": "string"
        }
      ],
      "name": "depositMemberFunds",
      "outputs": [],
      "stateMutability": "nonpayable",
      "type": "function"
    },
    {
      "inputs": [],
      "name": "getBusinessWallet",
      "outputs": [
        {
          "internalType": "address",
          "name": "",
          "type": "address"
        }
      ],
      "stateMutability": "view",
      "type": "function"
    },
    {
      "inputs": [],
      "name": "getCommissionPerFistLevelUpline",
      "outputs": [
        {
          "internalType": "uint8",
          "name": "",
          "type": "uint8"
        }
      ],
      "stateMutability": "view",
      "type": "function"
    },
    {
      "inputs": [],
      "name": "getCommissionPerSecondLevelUpline",
      "outputs": [
        {
          "internalType": "uint8",
          "name": "",
          "type": "uint8"
        }
      ],
      "stateMutability": "view",
      "type": "function"
    },
    {
      "inputs": [],
      "name": "getCommissionPerThirtLevelUpline",
      "outputs": [
        {
          "internalType": "uint8",
          "name": "",
          "type": "uint8"
        }
      ],
      "stateMutability": "view",
      "type": "function"
    },
    {
      "inputs": [],
      "name": "getCurrentContractBalance",
      "outputs": [
        {
          "internalType": "uint256",
          "name": "",
          "type": "uint256"
        }
      ],
      "stateMutability": "view",
      "type": "function"
    },
    {
      "inputs": [],
      "name": "getDepositMultiple",
      "outputs": [
        {
          "internalType": "uint256",
          "name": "",
          "type": "uint256"
        }
      ],
      "stateMutability": "view",
      "type": "function"
    },
    {
      "inputs": [],
      "name": "getMaxContractBalance",
      "outputs": [
        {
          "internalType": "uint256",
          "name": "",
          "type": "uint256"
        }
      ],
      "stateMutability": "view",
      "type": "function"
    },
    {
      "inputs": [],
      "name": "getMembershipPaymentToBusiness",
      "outputs": [
        {
          "internalType": "uint256",
          "name": "",
          "type": "uint256"
        }
      ],
      "stateMutability": "view",
      "type": "function"
    },
    {
      "inputs": [],
      "name": "getMembershipPaymentToUpline",
      "outputs": [
        {
          "internalType": "uint256",
          "name": "",
          "type": "uint256"
        }
      ],
      "stateMutability": "view",
      "type": "function"
    },
    {
      "inputs": [],
      "name": "getMinAmountToDeposit",
      "outputs": [
        {
          "internalType": "uint256",
          "name": "",
          "type": "uint256"
        }
      ],
      "stateMutability": "view",
      "type": "function"
    },
    {
      "inputs": [
        {
          "internalType": "bytes32",
          "name": "role",
          "type": "bytes32"
        }
      ],
      "name": "getRoleAdmin",
      "outputs": [
        {
          "internalType": "bytes32",
          "name": "",
          "type": "bytes32"
        }
      ],
      "stateMutability": "view",
      "type": "function"
    },
    {
      "inputs": [],
      "name": "getTotalMembers",
      "outputs": [
        {
          "internalType": "uint256",
          "name": "",
          "type": "uint256"
        }
      ],
      "stateMutability": "view",
      "type": "function"
    },
    {
      "inputs": [
        {
          "internalType": "bytes32",
          "name": "role",
          "type": "bytes32"
        },
        {
          "internalType": "address",
          "name": "account",
          "type": "address"
        }
      ],
      "name": "grantRole",
      "outputs": [],
      "stateMutability": "nonpayable",
      "type": "function"
    },
    {
      "inputs": [
        {
          "internalType": "bytes32",
          "name": "role",
          "type": "bytes32"
        },
        {
          "internalType": "address",
          "name": "account",
          "type": "address"
        }
      ],
      "name": "hasRole",
      "outputs": [
        {
          "internalType": "bool",
          "name": "",
          "type": "bool"
        }
      ],
      "stateMutability": "view",
      "type": "function"
    },
    {
      "inputs": [
        {
          "internalType": "uint256",
          "name": "_paymentAmount",
          "type": "uint256"
        },
        {
          "internalType": "address",
          "name": "_memberAddress",
          "type": "address"
        },
        {
          "internalType": "uint256",
          "name": "_currentMemberBalance",
          "type": "uint256"
        },
        {
          "internalType": "address",
          "name": "_walletToPay",
          "type": "address"
        }
      ],
      "name": "liquidateMemberFunds",
      "outputs": [],
      "stateMutability": "nonpayable",
      "type": "function"
    },
    {
      "inputs": [
        {
          "internalType": "address",
          "name": "_uplineAddress",
          "type": "address"
        },
        {
          "internalType": "address",
          "name": "_secondLevelUpline",
          "type": "address"
        },
        {
          "internalType": "address",
          "name": "_thirtLevelUpline",
          "type": "address"
        },
        {
          "internalType": "uint256",
          "name": "_amount",
          "type": "uint256"
        },
        {
          "internalType": "string",
          "name": "_memberKey",
          "type": "string"
        }
      ],
      "name": "memberEntrance",
      "outputs": [],
      "stateMutability": "nonpayable",
      "type": "function"
    },
    {
      "inputs": [],
      "name": "owner",
      "outputs": [
        {
          "internalType": "address",
          "name": "",
          "type": "address"
        }
      ],
      "stateMutability": "view",
      "type": "function"
    },
    {
      "inputs": [
        {
          "internalType": "uint256",
          "name": "_paymentAmount",
          "type": "uint256"
        },
        {
          "internalType": "address",
          "name": "_memberAddress",
          "type": "address"
        },
        {
          "internalType": "bool",
          "name": "_isPullCommission",
          "type": "bool"
        }
      ],
      "name": "paymentCommissions",
      "outputs": [],
      "stateMutability": "nonpayable",
      "type": "function"
    },
    {
      "inputs": [
        {
          "internalType": "address",
          "name": "account",
          "type": "address"
        }
      ],
      "name": "removeAdmin",
      "outputs": [],
      "stateMutability": "nonpayable",
      "type": "function"
    },
    {
      "inputs": [],
      "name": "renounceOwnership",
      "outputs": [],
      "stateMutability": "nonpayable",
      "type": "function"
    },
    {
      "inputs": [
        {
          "internalType": "bytes32",
          "name": "role",
          "type": "bytes32"
        },
        {
          "internalType": "address",
          "name": "account",
          "type": "address"
        }
      ],
      "name": "renounceRole",
      "outputs": [],
      "stateMutability": "nonpayable",
      "type": "function"
    },
    {
      "inputs": [
        {
          "internalType": "bytes32",
          "name": "role",
          "type": "bytes32"
        },
        {
          "internalType": "address",
          "name": "account",
          "type": "address"
        }
      ],
      "name": "revokeRole",
      "outputs": [],
      "stateMutability": "nonpayable",
      "type": "function"
    },
    {
      "inputs": [
        {
          "internalType": "address payable",
          "name": "_newBusinessWallet",
          "type": "address"
        }
      ],
      "name": "setBusinessWallet",
      "outputs": [],
      "stateMutability": "nonpayable",
      "type": "function"
    },
    {
      "inputs": [
        {
          "internalType": "uint8",
          "name": "_tier1",
          "type": "uint8"
        }
      ],
      "name": "setCommissionPerFistLevelUpline",
      "outputs": [],
      "stateMutability": "nonpayable",
      "type": "function"
    },
    {
      "inputs": [
        {
          "internalType": "uint8",
          "name": "_tier2",
          "type": "uint8"
        }
      ],
      "name": "setCommissionPerSecondLevelUpline",
      "outputs": [],
      "stateMutability": "nonpayable",
      "type": "function"
    },
    {
      "inputs": [
        {
          "internalType": "uint8",
          "name": "_tier3",
          "type": "uint8"
        }
      ],
      "name": "setCommissionPerThirtLevelUpline",
      "outputs": [],
      "stateMutability": "nonpayable",
      "type": "function"
    },
    {
      "inputs": [
        {
          "internalType": "uint256",
          "name": "_newMultiple",
          "type": "uint256"
        }
      ],
      "name": "setDepositMultiple",
      "outputs": [],
      "stateMutability": "nonpayable",
      "type": "function"
    },
    {
      "inputs": [
        {
          "internalType": "uint256",
          "name": "_newMaxBalance",
          "type": "uint256"
        }
      ],
      "name": "setMaxContractBalance",
      "outputs": [],
      "stateMutability": "nonpayable",
      "type": "function"
    },
    {
      "inputs": [
        {
          "internalType": "uint256",
          "name": "_toBusiness",
          "type": "uint256"
        }
      ],
      "name": "setMembershipPaymentToBusiness",
      "outputs": [],
      "stateMutability": "nonpayable",
      "type": "function"
    },
    {
      "inputs": [
        {
          "internalType": "uint256",
          "name": "_toUpline",
          "type": "uint256"
        }
      ],
      "name": "setMembershipPaymentToUpline",
      "outputs": [],
      "stateMutability": "nonpayable",
      "type": "function"
    },
    {
      "inputs": [
        {
          "internalType": "uint256",
          "name": "_newMinAmount",
          "type": "uint256"
        }
      ],
      "name": "setMinAmountToDeposit",
      "outputs": [],
      "stateMutability": "nonpayable",
      "type": "function"
    },
    {
      "inputs": [
        {
          "internalType": "bytes4",
          "name": "interfaceId",
          "type": "bytes4"
        }
      ],
      "name": "supportsInterface",
      "outputs": [
        {
          "internalType": "bool",
          "name": "",
          "type": "bool"
        }
      ],
      "stateMutability": "view",
      "type": "function"
    },
    {
      "inputs": [],
      "name": "token",
      "outputs": [
        {
          "internalType": "contract IERC20",
          "name": "",
          "type": "address"
        }
      ],
      "stateMutability": "view",
      "type": "function"
    },
    {
      "inputs": [
        {
          "internalType": "address",
          "name": "newOwner",
          "type": "address"
        }
      ],
      "name": "transferOwnership",
      "outputs": [],
      "stateMutability": "nonpayable",
      "type": "function"
    },
    {
      "inputs": [],
      "name": "withdraw",
      "outputs": [],
      "stateMutability": "nonpayable",
      "type": "function"
    },
    {
      "stateMutability": "payable",
      "type": "receive"
    }
  ],
  "transactionHash": "0xe894b9c4a5670c2f30258c831f07c424e305ff6f9758c3d10d141b6f0a43a312",
  "args": [
    "0xdAC17F958D2ee523a2206206994597C13D831ec7",
    "1xJ+yM}D6w079Dmh4&FCU"
  ],
  "numDeployments": 1,
  "solcInputHash": "392c5766a41ac515a6ad3d95c9157d16",
  "bytecode": "0x60806040523480156200001157600080fd5b5060405162005c7138038062005c7183398181016040528101906200003791906200069c565b620000576200004b6200026660201b60201c565b6200026e60201b60201c565b6001600281905550600073ffffffffffffffffffffffffffffffffffffffff168273ffffffffffffffffffffffffffffffffffffffff1603620000d1576040517f08c379a0000000000000000000000000000000000000000000000000000000008152600401620000c89062000763565b60405180910390fd5b620000e66000801b336200033260201b60201c565b620001187fa49807205ce4d355092ef5a8a18f56e8913cf4a201fbe287825b095693c21775336200033260201b60201c565b806040516020016200012b9190620007d2565b6040516020818303038152906040528051906020012060038190555063773594006008819055506509184e72a000600981905550631dcd6500600a819055506317d78400600b819055506305f5e100600c819055506004600d60006101000a81548160ff021916908360ff1602179055506002600d60016101000a81548160ff021916908360ff1602179055506002600d60026101000a81548160ff021916908360ff16021790555033600560006101000a81548173ffffffffffffffffffffffffffffffffffffffff021916908373ffffffffffffffffffffffffffffffffffffffff16021790555081600460006101000a81548173ffffffffffffffffffffffffffffffffffffffff021916908373ffffffffffffffffffffffffffffffffffffffff16021790555060006007819055505050620007eb565b600033905090565b60008060009054906101000a900473ffffffffffffffffffffffffffffffffffffffff169050816000806101000a81548173ffffffffffffffffffffffffffffffffffffffff021916908373ffffffffffffffffffffffffffffffffffffffff1602179055508173ffffffffffffffffffffffffffffffffffffffff168173ffffffffffffffffffffffffffffffffffffffff167f8be0079c531659141344cd1fd0a4f28419497f9722a3daafe3b4186f6b6457e060405160405180910390a35050565b6200034482826200034860201b60201c565b5050565b6200035a82826200043960201b60201c565b6200043557600180600084815260200190815260200160002060000160008373ffffffffffffffffffffffffffffffffffffffff1673ffffffffffffffffffffffffffffffffffffffff16815260200190815260200160002060006101000a81548160ff021916908315150217905550620003da6200026660201b60201c565b73ffffffffffffffffffffffffffffffffffffffff168173ffffffffffffffffffffffffffffffffffffffff16837f2f8788117e7eff1d82e926ec794901d17c78024a50270940304540a733656f0d60405160405180910390a45b5050565b60006001600084815260200190815260200160002060000160008373ffffffffffffffffffffffffffffffffffffffff1673ffffffffffffffffffffffffffffffffffffffff16815260200190815260200160002060009054906101000a900460ff16905092915050565b6000604051905090565b600080fd5b600080fd5b600073ffffffffffffffffffffffffffffffffffffffff82169050919050565b6000620004e582620004b8565b9050919050565b620004f781620004d8565b81146200050357600080fd5b50565b6000815190506200051781620004ec565b92915050565b600080fd5b600080fd5b6000601f19601f8301169050919050565b7f4e487b7100000000000000000000000000000000000000000000000000000000600052604160045260246000fd5b620005728262000527565b810181811067ffffffffffffffff8211171562000594576200059362000538565b5b80604052505050565b6000620005a9620004a4565b9050620005b7828262000567565b919050565b600067ffffffffffffffff821115620005da57620005d962000538565b5b620005e58262000527565b9050602081019050919050565b60005b8381101562000612578082015181840152602081019050620005f5565b60008484015250505050565b6000620006356200062f84620005bc565b6200059d565b90508281526020810184848401111562000654576200065362000522565b5b62000661848285620005f2565b509392505050565b600082601f8301126200068157620006806200051d565b5b8151620006938482602086016200061e565b91505092915050565b60008060408385031215620006b657620006b5620004ae565b5b6000620006c68582860162000506565b925050602083015167ffffffffffffffff811115620006ea57620006e9620004b3565b5b620006f88582860162000669565b9150509250929050565b600082825260208201905092915050565b7f546f6b656e20616464726573732063616e6e6f74206265207a65726f00000000600082015250565b60006200074b601c8362000702565b9150620007588262000713565b602082019050919050565b600060208201905081810360008301526200077e816200073c565b9050919050565b600081519050919050565b600081905092915050565b6000620007a88262000785565b620007b4818562000790565b9350620007c6818560208601620005f2565b80840191505092915050565b6000620007e082846200079b565b915081905092915050565b61547680620007fb6000396000f3fe60806040526004361061023f5760003560e01c806377f339751161012e578063b7130870116100ab578063d79c5abb1161006f578063d79c5abb14610889578063e2d71d6a146108b2578063e341c7db146108db578063f2fde38b14610904578063fc0c546a1461092d5761027f565b8063b7130870146107b6578063bcf3f6ff146107e1578063bd69c1271461080c578063d547741f14610835578063d59392de1461085e5761027f565b806391d14854116100f257806391d14854146106cf57806394fbe8461461070c578063a217fddf14610737578063aa331db514610762578063b6b55f251461078d5761027f565b806377f33975146105fa57806388e19794146106255780638cb20e6f146106505780638da5cb5b146106795780638f180305146106a45761027f565b806336568abe116101bc5780636d790081116101805780636d7900811461053b578063704802751461056657806370f710791461058f578063715018a6146105b857806375b238fc146105cf5761027f565b806336568abe146104805780633ccfd60b146104a95780633f4bf03c146104c057806348d5c401146104e95780635afe70d7146105125761027f565b80632a5e63a1116102035780632a5e63a1146103b15780632f2ff15d146103da578063312adf5814610403578063350705501461042c578063361f1ad3146104555761027f565b80630109705c146102ba57806301ffc9a7146102e55780631785f53c14610322578063248a9ca31461034b57806327f3547f146103885761027f565b3661027f576040517f08c379a000000000000000000000000000000000000000000000000000000000815260040161027690612ff3565b60405180910390fd5b6040517f08c379a00000000000000000000000000000000000000000000000000000000081526004016102b19061305f565b60405180910390fd5b3480156102c657600080fd5b506102cf610958565b6040516102dc919061309b565b60405180910390f35b3480156102f157600080fd5b5061030c60048036038101906103079190613122565b61096f565b604051610319919061316a565b60405180910390f35b34801561032e57600080fd5b50610349600480360381019061034491906131e3565b6109e9565b005b34801561035757600080fd5b50610372600480360381019061036d9190613246565b610a1e565b60405161037f9190613282565b60405180910390f35b34801561039457600080fd5b506103af60048036038101906103aa91906132d3565b610a3e565b005b3480156103bd57600080fd5b506103d860048036038101906103d39190613446565b610b10565b005b3480156103e657600080fd5b5061040160048036038101906103fc91906134dd565b610e79565b005b34801561040f57600080fd5b5061042a600480360381019061042591906132d3565b610e9a565b005b34801561043857600080fd5b50610453600480360381019061044e919061351d565b610f6c565b005b34801561046157600080fd5b5061046a61114a565b6040516104779190613593565b60405180910390f35b34801561048c57600080fd5b506104a760048036038101906104a291906134dd565b611154565b005b3480156104b557600080fd5b506104be6111d7565b005b3480156104cc57600080fd5b506104e760048036038101906104e291906132d3565b6111f8565b005b3480156104f557600080fd5b50610510600480360381019061050b91906135da565b611287565b005b34801561051e57600080fd5b5061053960048036038101906105349190613645565b611396565b005b34801561054757600080fd5b506105506114fb565b60405161055d9190613593565b60405180910390f35b34801561057257600080fd5b5061058d600480360381019061058891906131e3565b61159e565b005b34801561059b57600080fd5b506105b660048036038101906105b1919061369e565b6115d3565b005b3480156105c457600080fd5b506105cd611730565b005b3480156105db57600080fd5b506105e4611744565b6040516105f19190613282565b60405180910390f35b34801561060657600080fd5b5061060f611768565b60405161061c9190613593565b60405180910390f35b34801561063157600080fd5b5061063a611772565b6040516106479190613593565b60405180910390f35b34801561065c57600080fd5b50610677600480360381019061067291906132d3565b61177c565b005b34801561068557600080fd5b5061068e611871565b60405161069b9190613700565b60405180910390f35b3480156106b057600080fd5b506106b961189a565b6040516106c69190613593565b60405180910390f35b3480156106db57600080fd5b506106f660048036038101906106f191906134dd565b6118d2565b604051610703919061316a565b60405180910390f35b34801561071857600080fd5b5061072161193d565b60405161072e919061309b565b60405180910390f35b34801561074357600080fd5b5061074c611954565b6040516107599190613282565b60405180910390f35b34801561076e57600080fd5b5061077761195b565b6040516107849190613700565b60405180910390f35b34801561079957600080fd5b506107b460048036038101906107af91906132d3565b611985565b005b3480156107c257600080fd5b506107cb611a1a565b6040516107d89190613593565b60405180910390f35b3480156107ed57600080fd5b506107f6611a24565b604051610803919061309b565b60405180910390f35b34801561081857600080fd5b50610833600480360381019061082e91906135da565b611a3b565b005b34801561084157600080fd5b5061085c600480360381019061085791906134dd565b611b4a565b005b34801561086a57600080fd5b50610873611b6b565b6040516108809190613593565b60405180910390f35b34801561089557600080fd5b506108b060048036038101906108ab919061371b565b611b75565b005b3480156108be57600080fd5b506108d960048036038101906108d491906132d3565b611c3c565b005b3480156108e757600080fd5b5061090260048036038101906108fd91906135da565b611ced565b005b34801561091057600080fd5b5061092b600480360381019061092691906131e3565b611dfc565b005b34801561093957600080fd5b50610942611e7f565b60405161094f9190613811565b60405180910390f35b6000600d60009054906101000a900460ff16905090565b60007f7965db0b000000000000000000000000000000000000000000000000000000007bffffffffffffffffffffffffffffffffffffffffffffffffffffffff1916827bffffffffffffffffffffffffffffffffffffffffffffffffffffffff191614806109e257506109e182611ea5565b5b9050919050565b6109f1611f0f565b610a1b7fa49807205ce4d355092ef5a8a18f56e8913cf4a201fbe287825b095693c2177582611b4a565b50565b600060016000838152602001908152602001600020600101549050919050565b610a46611f0f565b60008111610a89576040517f08c379a0000000000000000000000000000000000000000000000000000000008152600401610a809061389e565b60405180910390fd5b6009548110610acd576040517f08c379a0000000000000000000000000000000000000000000000000000000008152600401610ac490613930565b60405180910390fd5b80600b819055507fd7474166e78731bc168caca1fe1ccebbd6f3c95baee64997902e6b48f442b81a8142604051610b0592919061399c565b60405180910390a150565b8060035481604051602001610b259190613a49565b6040516020818303038152906040528051906020012014610b7b576040517f08c379a0000000000000000000000000000000000000000000000000000000008152600401610b7290613aac565b60405180910390fd5b600854861015610bc0576040517f08c379a0000000000000000000000000000000000000000000000000000000008152600401610bb790613b18565b60405180910390fd5b6000600a5487610bd09190613b67565b14610c10576040517f08c379a0000000000000000000000000000000000000000000000000000000008152600401610c0790613be4565b60405180910390fd5b60095486600754610c219190613c33565b1115610c62576040517f08c379a0000000000000000000000000000000000000000000000000000000008152600401610c5990613cd9565b60405180910390fd5b610c6c3387611f8d565b3373ffffffffffffffffffffffffffffffffffffffff167f6e88c611323cf4a2bd9e908bf748750db2a19609319972f06a960f492071e0e08742604051610cb4929190613cf9565b60405180910390a26000610cda87600d60009054906101000a900460ff1660ff16612231565b90506000610cfa88600d60019054906101000a900460ff1660ff16612231565b90506000610d1a89600d60029054906101000a900460ff1660ff16612231565b90506000818385610d2b9190613c33565b610d359190613c33565b90506000818b610d459190613d22565b9050818111610d89576040517f08c379a0000000000000000000000000000000000000000000000000000000008152600401610d8090613dc8565b60405180910390fd5b610d958a866001612253565b9450610da389856001612253565b9350610db188846001612253565b9250828486610dc09190613c33565b610dca9190613c33565b81610dd59190613c33565b9050610e03600560009054906101000a900473ffffffffffffffffffffffffffffffffffffffff16826122fe565b8a60076000828254610e159190613c33565b925050819055503373ffffffffffffffffffffffffffffffffffffffff167f3428e989e797df55e8af7c22735e19d98f469023d200174911b2c8e0870240fe8242604051610e64929190613cf9565b60405180910390a25050505050505050505050565b610e8282610a1e565b610e8b816123e0565b610e9583836123f4565b505050565b610ea2611f0f565b60008111610ee5576040517f08c379a0000000000000000000000000000000000000000000000000000000008152600401610edc9061389e565b60405180910390fd5b6009548110610f29576040517f08c379a0000000000000000000000000000000000000000000000000000000008152600401610f2090613e5a565b60405180910390fd5b80600c819055507fd7474166e78731bc168caca1fe1ccebbd6f3c95baee64997902e6b48f442b81a8142604051610f61929190613ec6565b60405180910390a150565b82600073ffffffffffffffffffffffffffffffffffffffff168173ffffffffffffffffffffffffffffffffffffffff1603610fdc576040517f08c379a0000000000000000000000000000000000000000000000000000000008152600401610fd390613f4e565b60405180910390fd5b7fa49807205ce4d355092ef5a8a18f56e8913cf4a201fbe287825b095693c21775611006816123e0565b85841015611049576040517f08c379a000000000000000000000000000000000000000000000000000000000815260040161104090613fba565b60405180910390fd5b856007600082825461105b9190613d22565b92505081905550600073ffffffffffffffffffffffffffffffffffffffff168373ffffffffffffffffffffffffffffffffffffffff16036110d1576040517f08c379a00000000000000000000000000000000000000000000000000000000081526004016110c89061404c565b60405180910390fd5b6110db83876124d4565b8273ffffffffffffffffffffffffffffffffffffffff168573ffffffffffffffffffffffffffffffffffffffff167f385fede3060da9fef3bc54a7d11c73ddf15bef0e7b9ce408c518d2543b5f272d884260405161113a929190613cf9565b60405180910390a3505050505050565b6000600854905090565b61115c61258c565b73ffffffffffffffffffffffffffffffffffffffff168173ffffffffffffffffffffffffffffffffffffffff16146111c9576040517f08c379a00000000000000000000000000000000000000000000000000000000081526004016111c0906140de565b60405180910390fd5b6111d38282612594565b5050565b6111df611f0f565b60006111e96114fb565b90506111f533826124d4565b50565b611200611f0f565b6008548111611244576040517f08c379a000000000000000000000000000000000000000000000000000000000815260040161123b9061414a565b60405180910390fd5b806009819055507fd7474166e78731bc168caca1fe1ccebbd6f3c95baee64997902e6b48f442b81a814260405161127c9291906141b6565b60405180910390a150565b7fa49807205ce4d355092ef5a8a18f56e8913cf4a201fbe287825b095693c217756112b1816123e0565b60008260ff16116112f7576040517f08c379a00000000000000000000000000000000000000000000000000000000081526004016112ee90614264565b60405180910390fd5b60648260ff16111561133e576040517f08c379a0000000000000000000000000000000000000000000000000000000008152600401611335906142f6565b60405180910390fd5b81600d60026101000a81548160ff021916908360ff1602179055507fd7474166e78731bc168caca1fe1ccebbd6f3c95baee64997902e6b48f442b81a824260405161138a9291906143b9565b60405180910390a15050565b61139e611f0f565b600073ffffffffffffffffffffffffffffffffffffffff168173ffffffffffffffffffffffffffffffffffffffff160361140d576040517f08c379a000000000000000000000000000000000000000000000000000000000815260040161140490614467565b60405180910390fd5b80600560006101000a81548173ffffffffffffffffffffffffffffffffffffffff021916908373ffffffffffffffffffffffffffffffffffffffff16021790555061145781611dfc565b6114646000801b33612594565b6114716000801b826123f4565b8073ffffffffffffffffffffffffffffffffffffffff16600560009054906101000a900473ffffffffffffffffffffffffffffffffffffffff1673ffffffffffffffffffffffffffffffffffffffff167f9d6ad1956bc285ee763af0abf79be6b40f0fe495e250bd80c1bae2293ecc1df8426040516114f091906144d3565b60405180910390a350565b6000600460009054906101000a900473ffffffffffffffffffffffffffffffffffffffff1673ffffffffffffffffffffffffffffffffffffffff166370a08231306040518263ffffffff1660e01b81526004016115589190613700565b602060405180830381865afa158015611575573d6000803e3d6000fd5b505050506040513d601f19601f820116820180604052508101906115999190614516565b905090565b6115a6611f0f565b6115d07fa49807205ce4d355092ef5a8a18f56e8913cf4a201fbe287825b095693c2177582610e79565b50565b81600073ffffffffffffffffffffffffffffffffffffffff168173ffffffffffffffffffffffffffffffffffffffff1603611643576040517f08c379a000000000000000000000000000000000000000000000000000000000815260040161163a90613f4e565b60405180910390fd5b7fa49807205ce4d355092ef5a8a18f56e8913cf4a201fbe287825b095693c2177561166d816123e0565b61167784866124d4565b60011515831515036116d8578373ffffffffffffffffffffffffffffffffffffffff167f40ce636b7925bb01ae0859a12eddfb1e34d01cb424b5603ad9622112b1b07e1286426040516116cb929190613cf9565b60405180910390a2611729565b8373ffffffffffffffffffffffffffffffffffffffff167fe37b2ae9cc03ec700b9146c4df2fc797e7a1119c08fc25513755ab5315faa6d28642604051611720929190613cf9565b60405180910390a25b5050505050565b611738611f0f565b6117426000612676565b565b7fa49807205ce4d355092ef5a8a18f56e8913cf4a201fbe287825b095693c2177581565b6000600c54905090565b6000600b54905090565b7fa49807205ce4d355092ef5a8a18f56e8913cf4a201fbe287825b095693c217756117a6816123e0565b600082116117e9576040517f08c379a00000000000000000000000000000000000000000000000000000000081526004016117e0906145b5565b60405180910390fd5b600954821061182d576040517f08c379a000000000000000000000000000000000000000000000000000000000815260040161182490614621565b60405180910390fd5b816008819055507fd7474166e78731bc168caca1fe1ccebbd6f3c95baee64997902e6b48f442b81a824260405161186592919061468d565b60405180910390a15050565b60008060009054906101000a900473ffffffffffffffffffffffffffffffffffffffff16905090565b6000600660009054906101000a90046fffffffffffffffffffffffffffffffff166fffffffffffffffffffffffffffffffff16905090565b60006001600084815260200190815260200160002060000160008373ffffffffffffffffffffffffffffffffffffffff1673ffffffffffffffffffffffffffffffffffffffff16815260200190815260200160002060009054906101000a900460ff16905092915050565b6000600d60029054906101000a900460ff16905090565b6000801b81565b6000600560009054906101000a900473ffffffffffffffffffffffffffffffffffffffff16905090565b7fa49807205ce4d355092ef5a8a18f56e8913cf4a201fbe287825b095693c217756119af816123e0565b6000826119ba6114fb565b6119c49190613c33565b9050600954811115611a0b576040517f08c379a0000000000000000000000000000000000000000000000000000000008152600401611a029061473b565b60405180910390fd5b611a153384611f8d565b505050565b6000600954905090565b6000600d60019054906101000a900460ff16905090565b7fa49807205ce4d355092ef5a8a18f56e8913cf4a201fbe287825b095693c21775611a65816123e0565b60008260ff1611611aab576040517f08c379a0000000000000000000000000000000000000000000000000000000008152600401611aa290614264565b60405180910390fd5b60648260ff161115611af2576040517f08c379a0000000000000000000000000000000000000000000000000000000008152600401611ae9906147a7565b60405180910390fd5b81600d60016101000a81548160ff021916908360ff1602179055507fd7474166e78731bc168caca1fe1ccebbd6f3c95baee64997902e6b48f442b81a8242604051611b3e929190614839565b60405180910390a15050565b611b5382610a1e565b611b5c816123e0565b611b668383612594565b505050565b6000600a54905090565b6006600081819054906101000a90046fffffffffffffffffffffffffffffffff1680929190611ba390614891565b91906101000a8154816fffffffffffffffffffffffffffffffff02191690836fffffffffffffffffffffffffffffffff160217905550503373ffffffffffffffffffffffffffffffffffffffff167f7f48e4f7f3ef2c63408b16a799b8516cb879c145386aedd51a36938a02a1c28342604051611c209190613593565b60405180910390a2611c35828686868561273a565b5050505050565b7fa49807205ce4d355092ef5a8a18f56e8913cf4a201fbe287825b095693c21775611c66816123e0565b60008211611ca9576040517f08c379a0000000000000000000000000000000000000000000000000000000008152600401611ca090614915565b60405180910390fd5b81600a819055507fd7474166e78731bc168caca1fe1ccebbd6f3c95baee64997902e6b48f442b81a8242604051611ce1929190614981565b60405180910390a15050565b7fa49807205ce4d355092ef5a8a18f56e8913cf4a201fbe287825b095693c21775611d17816123e0565b60008260ff1611611d5d576040517f08c379a0000000000000000000000000000000000000000000000000000000008152600401611d5490614264565b60405180910390fd5b60648260ff161115611da4576040517f08c379a0000000000000000000000000000000000000000000000000000000008152600401611d9b906147a7565b60405180910390fd5b81600d60006101000a81548160ff021916908360ff1602179055507fd7474166e78731bc168caca1fe1ccebbd6f3c95baee64997902e6b48f442b81a8242604051611df0929190614a2f565b60405180910390a15050565b611e04611f0f565b600073ffffffffffffffffffffffffffffffffffffffff168173ffffffffffffffffffffffffffffffffffffffff1603611e73576040517f08c379a0000000000000000000000000000000000000000000000000000000008152600401611e6a90614add565b60405180910390fd5b611e7c81612676565b50565b600460009054906101000a900473ffffffffffffffffffffffffffffffffffffffff1681565b60007f01ffc9a7000000000000000000000000000000000000000000000000000000007bffffffffffffffffffffffffffffffffffffffffffffffffffffffff1916827bffffffffffffffffffffffffffffffffffffffffffffffffffffffff1916149050919050565b611f1761258c565b73ffffffffffffffffffffffffffffffffffffffff16611f35611871565b73ffffffffffffffffffffffffffffffffffffffff1614611f8b576040517f08c379a0000000000000000000000000000000000000000000000000000000008152600401611f8290614b49565b60405180910390fd5b565b80600460009054906101000a900473ffffffffffffffffffffffffffffffffffffffff1673ffffffffffffffffffffffffffffffffffffffff1663dd62ed3e84306040518363ffffffff1660e01b8152600401611feb929190614b69565b602060405180830381865afa158015612008573d6000803e3d6000fd5b505050506040513d601f19601f8201168201806040525081019061202c9190614516565b101561206d576040517f08c379a000000000000000000000000000000000000000000000000000000000815260040161206490614bde565b60405180910390fd5b600460009054906101000a900473ffffffffffffffffffffffffffffffffffffffff1673ffffffffffffffffffffffffffffffffffffffff166370a08231836040518263ffffffff1660e01b81526004016120c89190613700565b602060405180830381865afa1580156120e5573d6000803e3d6000fd5b505050506040513d601f19601f820116820180604052508101906121099190614516565b81111561214b576040517f08c379a000000000000000000000000000000000000000000000000000000000815260040161214290614c4a565b60405180910390fd5b6000811161218e576040517f08c379a000000000000000000000000000000000000000000000000000000000815260040161218590614cb6565b60405180910390fd5b6121dd823083600460009054906101000a900473ffffffffffffffffffffffffffffffffffffffff1673ffffffffffffffffffffffffffffffffffffffff166128ad909392919063ffffffff16565b8173ffffffffffffffffffffffffffffffffffffffff167f695b93e5f85b6ac34424e1299d94bc079fb230aa7e5568a4e2e6214828cc936b8242604051612225929190613cf9565b60405180910390a25050565b6000606482846122419190614cd6565b61224b9190614d18565b905092915050565b60008073ffffffffffffffffffffffffffffffffffffffff168473ffffffffffffffffffffffffffffffffffffffff16146122f45761229284846122fe565b8373ffffffffffffffffffffffffffffffffffffffff167fe37b2ae9cc03ec700b9146c4df2fc797e7a1119c08fc25513755ab5315faa6d284426040516122da929190613cf9565b60405180910390a260011515821515036122f357600092505b5b8290509392505050565b60008111612341576040517f08c379a000000000000000000000000000000000000000000000000000000000815260040161233890614dbb565b60405180910390fd5b61238e8282600460009054906101000a900473ffffffffffffffffffffffffffffffffffffffff1673ffffffffffffffffffffffffffffffffffffffff166129369092919063ffffffff16565b8173ffffffffffffffffffffffffffffffffffffffff167f0d12e13d8f5c7a805c84c6c0deba2b2cf5ef80fddc09b6565d70cd5f97c116ad826040516123d49190614e27565b60405180910390a25050565b6123f1816123ec61258c565b6129bc565b50565b6123fe82826118d2565b6124d057600180600084815260200190815260200160002060000160008373ffffffffffffffffffffffffffffffffffffffff1673ffffffffffffffffffffffffffffffffffffffff16815260200190815260200160002060006101000a81548160ff02191690831515021790555061247561258c565b73ffffffffffffffffffffffffffffffffffffffff168173ffffffffffffffffffffffffffffffffffffffff16837f2f8788117e7eff1d82e926ec794901d17c78024a50270940304540a733656f0d60405160405180910390a45b5050565b6124dc612a41565b806124e56114fb565b1015612526576040517f08c379a000000000000000000000000000000000000000000000000000000000815260040161251d90614ec7565b60405180910390fd5b61253082826122fe565b3373ffffffffffffffffffffffffffffffffffffffff167f6dc924e950dd523781352d0a7468f2ee2905084dea2bb7411d7996224ce75a888242604051612578929190613cf9565b60405180910390a2612588612a8e565b5050565b600033905090565b61259e82826118d2565b156126725760006001600084815260200190815260200160002060000160008373ffffffffffffffffffffffffffffffffffffffff1673ffffffffffffffffffffffffffffffffffffffff16815260200190815260200160002060006101000a81548160ff02191690831515021790555061261761258c565b73ffffffffffffffffffffffffffffffffffffffff168173ffffffffffffffffffffffffffffffffffffffff16837ff6391f5c32d9c69d2a47ea670b442974b53935d1edc7fd64eb21e047a839171b60405160405180910390a45b5050565b60008060009054906101000a900473ffffffffffffffffffffffffffffffffffffffff169050816000806101000a81548173ffffffffffffffffffffffffffffffffffffffff021916908373ffffffffffffffffffffffffffffffffffffffff1602179055508173ffffffffffffffffffffffffffffffffffffffff168173ffffffffffffffffffffffffffffffffffffffff167f8be0079c531659141344cd1fd0a4f28419497f9722a3daafe3b4186f6b6457e060405160405180910390a35050565b6000600c54600b5461274c9190613c33565b90506000818761275c9190613d22565b90508160085461276c9190613c33565b8710156127ae576040517f08c379a00000000000000000000000000000000000000000000000000000000081526004016127a590614f33565b60405180910390fd5b6127b83383611f8d565b6127e6600560009054906101000a900473ffffffffffffffffffffffffffffffffffffffff16600b546122fe565b3373ffffffffffffffffffffffffffffffffffffffff167f8fed26ea05e17903891c5c2a70ac7ce2aeafbb48acf403b9defdb2c96ab2e5c3600b5442604051612830929190613cf9565b60405180910390a261284686600c546000612253565b506128548187878787610b10565b3373ffffffffffffffffffffffffffffffffffffffff167f6e88c611323cf4a2bd9e908bf748750db2a19609319972f06a960f492071e0e0824260405161289c929190613cf9565b60405180910390a250505050505050565b612930846323b872dd60e01b8585856040516024016128ce93929190614f53565b604051602081830303815290604052907bffffffffffffffffffffffffffffffffffffffffffffffffffffffff19166020820180517bffffffffffffffffffffffffffffffffffffffffffffffffffffffff8381831617835250505050612a98565b50505050565b6129b78363a9059cbb60e01b8484604051602401612955929190614f8a565b604051602081830303815290604052907bffffffffffffffffffffffffffffffffffffffffffffffffffffffff19166020820180517bffffffffffffffffffffffffffffffffffffffffffffffffffffffff8381831617835250505050612a98565b505050565b6129c682826118d2565b612a3d576129d381612b60565b6129e18360001c6020612b8d565b6040516020016129f292919061504b565b6040516020818303038152906040526040517f08c379a0000000000000000000000000000000000000000000000000000000008152600401612a3491906150be565b60405180910390fd5b5050565b6002805403612a85576040517f08c379a0000000000000000000000000000000000000000000000000000000008152600401612a7c9061512c565b60405180910390fd5b60028081905550565b6001600281905550565b6000612afa826040518060400160405280602081526020017f5361666545524332303a206c6f772d6c6576656c2063616c6c206661696c65648152508573ffffffffffffffffffffffffffffffffffffffff16612dc99092919063ffffffff16565b9050600081511480612b1c575080806020019051810190612b1b9190615161565b5b612b5b576040517f08c379a0000000000000000000000000000000000000000000000000000000008152600401612b5290615200565b60405180910390fd5b505050565b6060612b868273ffffffffffffffffffffffffffffffffffffffff16601460ff16612b8d565b9050919050565b606060006002836002612ba09190614cd6565b612baa9190613c33565b67ffffffffffffffff811115612bc357612bc261331b565b5b6040519080825280601f01601f191660200182016040528015612bf55781602001600182028036833780820191505090505b5090507f300000000000000000000000000000000000000000000000000000000000000081600081518110612c2d57612c2c615220565b5b60200101907effffffffffffffffffffffffffffffffffffffffffffffffffffffffffffff1916908160001a9053507f780000000000000000000000000000000000000000000000000000000000000081600181518110612c9157612c90615220565b5b60200101907effffffffffffffffffffffffffffffffffffffffffffffffffffffffffffff1916908160001a90535060006001846002612cd19190614cd6565b612cdb9190613c33565b90505b6001811115612d7b577f3031323334353637383961626364656600000000000000000000000000000000600f861660108110612d1d57612d1c615220565b5b1a60f81b828281518110612d3457612d33615220565b5b60200101907effffffffffffffffffffffffffffffffffffffffffffffffffffffffffffff1916908160001a905350600485901c945080612d749061524f565b9050612cde565b5060008414612dbf576040517f08c379a0000000000000000000000000000000000000000000000000000000008152600401612db6906152c4565b60405180910390fd5b8091505092915050565b6060612dd88484600085612de1565b90509392505050565b606082471015612e26576040517f08c379a0000000000000000000000000000000000000000000000000000000008152600401612e1d90615356565b60405180910390fd5b6000808673ffffffffffffffffffffffffffffffffffffffff168587604051612e4f91906153bd565b60006040518083038185875af1925050503d8060008114612e8c576040519150601f19603f3d011682016040523d82523d6000602084013e612e91565b606091505b5091509150612ea287838387612eae565b92505050949350505050565b60608315612f10576000835103612f0857612ec885612f23565b612f07576040517f08c379a0000000000000000000000000000000000000000000000000000000008152600401612efe90615420565b60405180910390fd5b5b829050612f1b565b612f1a8383612f46565b5b949350505050565b6000808273ffffffffffffffffffffffffffffffffffffffff163b119050919050565b600082511115612f595781518083602001fd5b806040517f08c379a0000000000000000000000000000000000000000000000000000000008152600401612f8d91906150be565b60405180910390fd5b600082825260208201905092915050565b7f4574686572206e6f742061636365707465640000000000000000000000000000600082015250565b6000612fdd601283612f96565b9150612fe882612fa7565b602082019050919050565b6000602082019050818103600083015261300c81612fd0565b9050919050565b7f46756e6374696f6e206e6f7420737570706f7274656400000000000000000000600082015250565b6000613049601683612f96565b915061305482613013565b602082019050919050565b600060208201905081810360008301526130788161303c565b9050919050565b600060ff82169050919050565b6130958161307f565b82525050565b60006020820190506130b0600083018461308c565b92915050565b6000604051905090565b600080fd5b600080fd5b60007fffffffff0000000000000000000000000000000000000000000000000000000082169050919050565b6130ff816130ca565b811461310a57600080fd5b50565b60008135905061311c816130f6565b92915050565b600060208284031215613138576131376130c0565b5b60006131468482850161310d565b91505092915050565b60008115159050919050565b6131648161314f565b82525050565b600060208201905061317f600083018461315b565b92915050565b600073ffffffffffffffffffffffffffffffffffffffff82169050919050565b60006131b082613185565b9050919050565b6131c0816131a5565b81146131cb57600080fd5b50565b6000813590506131dd816131b7565b92915050565b6000602082840312156131f9576131f86130c0565b5b6000613207848285016131ce565b91505092915050565b6000819050919050565b61322381613210565b811461322e57600080fd5b50565b6000813590506132408161321a565b92915050565b60006020828403121561325c5761325b6130c0565b5b600061326a84828501613231565b91505092915050565b61327c81613210565b82525050565b60006020820190506132976000830184613273565b92915050565b6000819050919050565b6132b08161329d565b81146132bb57600080fd5b50565b6000813590506132cd816132a7565b92915050565b6000602082840312156132e9576132e86130c0565b5b60006132f7848285016132be565b91505092915050565b600080fd5b600080fd5b6000601f19601f8301169050919050565b7f4e487b7100000000000000000000000000000000000000000000000000000000600052604160045260246000fd5b6133538261330a565b810181811067ffffffffffffffff821117156133725761337161331b565b5b80604052505050565b60006133856130b6565b9050613391828261334a565b919050565b600067ffffffffffffffff8211156133b1576133b061331b565b5b6133ba8261330a565b9050602081019050919050565b82818337600083830152505050565b60006133e96133e484613396565b61337b565b90508281526020810184848401111561340557613404613305565b5b6134108482856133c7565b509392505050565b600082601f83011261342d5761342c613300565b5b813561343d8482602086016133d6565b91505092915050565b600080600080600060a08688031215613462576134616130c0565b5b6000613470888289016132be565b9550506020613481888289016131ce565b9450506040613492888289016131ce565b93505060606134a3888289016131ce565b925050608086013567ffffffffffffffff8111156134c4576134c36130c5565b5b6134d088828901613418565b9150509295509295909350565b600080604083850312156134f4576134f36130c0565b5b600061350285828601613231565b9250506020613513858286016131ce565b9150509250929050565b60008060008060808587031215613537576135366130c0565b5b6000613545878288016132be565b9450506020613556878288016131ce565b9350506040613567878288016132be565b9250506060613578878288016131ce565b91505092959194509250565b61358d8161329d565b82525050565b60006020820190506135a86000830184613584565b92915050565b6135b78161307f565b81146135c257600080fd5b50565b6000813590506135d4816135ae565b92915050565b6000602082840312156135f0576135ef6130c0565b5b60006135fe848285016135c5565b91505092915050565b600061361282613185565b9050919050565b61362281613607565b811461362d57600080fd5b50565b60008135905061363f81613619565b92915050565b60006020828403121561365b5761365a6130c0565b5b600061366984828501613630565b91505092915050565b61367b8161314f565b811461368657600080fd5b50565b60008135905061369881613672565b92915050565b6000806000606084860312156136b7576136b66130c0565b5b60006136c5868287016132be565b93505060206136d6868287016131ce565b92505060406136e786828701613689565b9150509250925092565b6136fa816131a5565b82525050565b600060208201905061371560008301846136f1565b92915050565b600080600080600060a08688031215613737576137366130c0565b5b6000613745888289016131ce565b9550506020613756888289016131ce565b9450506040613767888289016131ce565b9350506060613778888289016132be565b925050608086013567ffffffffffffffff811115613799576137986130c5565b5b6137a588828901613418565b9150509295509295909350565b6000819050919050565b60006137d76137d26137cd84613185565b6137b2565b613185565b9050919050565b60006137e9826137bc565b9050919050565b60006137fb826137de565b9050919050565b61380b816137f0565b82525050565b60006020820190506138266000830184613802565b92915050565b7f4d656d62657273686970207061796d656e7473206d75737420626520706f736960008201527f7469766500000000000000000000000000000000000000000000000000000000602082015250565b6000613888602483612f96565b91506138938261382c565b604082019050919050565b600060208201905081810360008301526138b78161387b565b9050919050565b7f5061796d656e7420746f20427573696e6573732063616e6e6f7420657863656560008201527f64206d6178000000000000000000000000000000000000000000000000000000602082015250565b600061391a602583612f96565b9150613925826138be565b604082019050919050565b600060208201905081810360008301526139498161390d565b9050919050565b7f4d454d424552534849505f5041594d454e545f544f5f425553494e4553530000600082015250565b6000613986601e83612f96565b915061399182613950565b602082019050919050565b600060608201905081810360008301526139b581613979565b90506139c46020830185613584565b6139d16040830184613584565b9392505050565b600081519050919050565b600081905092915050565b60005b83811015613a0c5780820151818401526020810190506139f1565b60008484015250505050565b6000613a23826139d8565b613a2d81856139e3565b9350613a3d8185602086016139ee565b80840191505092915050565b6000613a558284613a18565b915081905092915050565b7f436f6469676f20646520696e7669746163696f6e20696e76616c69646f000000600082015250565b6000613a96601d83612f96565b9150613aa182613a60565b602082019050919050565b60006020820190508181036000830152613ac581613a89565b9050919050565b7f4465706f7369746f206e6f20616c63616e7a61206d6f6e746f206d696e696d6f600082015250565b6000613b02602083612f96565b9150613b0d82613acc565b602082019050919050565b60006020820190508181036000830152613b3181613af5565b9050919050565b7f4e487b7100000000000000000000000000000000000000000000000000000000600052601260045260246000fd5b6000613b728261329d565b9150613b7d8361329d565b925082613b8d57613b8c613b38565b5b828206905092915050565b7f56616c6f722064656c206465706f7369746f206e6f2065732076616c69646f00600082015250565b6000613bce601f83612f96565b9150613bd982613b98565b602082019050919050565b60006020820190508181036000830152613bfd81613bc1565b9050919050565b7f4e487b7100000000000000000000000000000000000000000000000000000000600052601160045260246000fd5b6000613c3e8261329d565b9150613c498361329d565b9250828201905080821115613c6157613c60613c04565b5b92915050565b7f4465706f7369746f2073757065726120656c206d6f6e746f20736f706f72746160008201527f646f20706f7220656c20636f6e747261746f0000000000000000000000000000602082015250565b6000613cc3603283612f96565b9150613cce82613c67565b604082019050919050565b60006020820190508181036000830152613cf281613cb6565b9050919050565b6000604082019050613d0e6000830185613584565b613d1b6020830184613584565b9392505050565b6000613d2d8261329d565b9150613d388361329d565b9250828203905081811115613d5057613d4f613c04565b5b92915050565b7f4572726f7220656e20656c2063616c63756c6f20646520636f6d6973696f6e6560008201527f7300000000000000000000000000000000000000000000000000000000000000602082015250565b6000613db2602183612f96565b9150613dbd82613d56565b604082019050919050565b60006020820190508181036000830152613de181613da5565b9050919050565b7f5061796d656e7420746f2055706c696e652063616e6e6f74206578636565642060008201527f6d61780000000000000000000000000000000000000000000000000000000000602082015250565b6000613e44602383612f96565b9150613e4f82613de8565b604082019050919050565b60006020820190508181036000830152613e7381613e37565b9050919050565b7f4d454d424552534849505f5041594d454e545f544f5f55504c494e4500000000600082015250565b6000613eb0601c83612f96565b9150613ebb82613e7a565b602082019050919050565b60006060820190508181036000830152613edf81613ea3565b9050613eee6020830185613584565b613efb6040830184613584565b9392505050565b7f446972656363696f6e20696e76616c6964610000000000000000000000000000600082015250565b6000613f38601283612f96565b9150613f4382613f02565b602082019050919050565b60006020820190508181036000830152613f6781613f2b565b9050919050565b7f4d6f6e746f20696e76616c69646f000000000000000000000000000000000000600082015250565b6000613fa4600e83612f96565b9150613faf82613f6e565b602082019050919050565b60006020820190508181036000830152613fd381613f97565b9050919050565b7f446972656363696f6e2064652077616c6c65742064652064657374696e6f206e60008201527f6f2076616c696461000000000000000000000000000000000000000000000000602082015250565b6000614036602883612f96565b915061404182613fda565b604082019050919050565b6000602082019050818103600083015261406581614029565b9050919050565b7f416363657373436f6e74726f6c3a2063616e206f6e6c792072656e6f756e636560008201527f20726f6c657320666f722073656c660000000000000000000000000000000000602082015250565b60006140c8602f83612f96565b91506140d38261406c565b604082019050919050565b600060208201905081810360008301526140f7816140bb565b9050919050565b7f4d6178206d75737420657863656564206d696e00000000000000000000000000600082015250565b6000614134601383612f96565b915061413f826140fe565b602082019050919050565b6000602082019050818103600083015261416381614127565b9050919050565b7f4d41585f434f4e54524143545f42414c414e4345000000000000000000000000600082015250565b60006141a0601483612f96565b91506141ab8261416a565b602082019050919050565b600060608201905081810360008301526141cf81614193565b90506141de6020830185613584565b6141eb6040830184613584565b9392505050565b7f436f6d6d697373696f6e207061796d656e7473206d75737420626520706f736960008201527f7469766500000000000000000000000000000000000000000000000000000000602082015250565b600061424e602483612f96565b9150614259826141f2565b604082019050919050565b6000602082019050818103600083015261427d81614241565b9050919050565b7f546f74616c20636f6d6d697373696f6e2063616e6e6f7420657863656564203160008201527f3030250000000000000000000000000000000000000000000000000000000000602082015250565b60006142e0602383612f96565b91506142eb82614284565b604082019050919050565b6000602082019050818103600083015261430f816142d3565b9050919050565b7f434f4d4d495353494f4e5f5045525f54484952545f4c4556454c5f555044415460008201527f4544000000000000000000000000000000000000000000000000000000000000602082015250565b6000614372602283612f96565b915061437d82614316565b604082019050919050565b60006143a361439e6143998461307f565b6137b2565b61329d565b9050919050565b6143b381614388565b82525050565b600060608201905081810360008301526143d281614365565b90506143e160208301856143aa565b6143ee6040830184613584565b9392505050565b7f446972656363696f6e206465206e756576612077616c6c6574206e6f2076616c60008201527f6964610000000000000000000000000000000000000000000000000000000000602082015250565b6000614451602383612f96565b915061445c826143f5565b604082019050919050565b6000602082019050818103600083015261448081614444565b9050919050565b7f425553494e4553535f57414c4c45540000000000000000000000000000000000600082015250565b60006144bd600f83612f96565b91506144c882614487565b602082019050919050565b600060408201905081810360008301526144ec816144b0565b90506144fb6020830184613584565b92915050565b600081519050614510816132a7565b92915050565b60006020828403121561452c5761452b6130c0565b5b600061453a84828501614501565b91505092915050565b7f4d696e696d756d20616d6f756e74206d7573742062652067726561746572207460008201527f68616e2030000000000000000000000000000000000000000000000000000000602082015250565b600061459f602583612f96565b91506145aa82614543565b604082019050919050565b600060208201905081810360008301526145ce81614592565b9050919050565b7f4d696e2063616e6e6f7420657863656564206d61780000000000000000000000600082015250565b600061460b601583612f96565b9150614616826145d5565b602082019050919050565b6000602082019050818103600083015261463a816145fe565b9050919050565b7f4d494e5f414d4f554e545f544f5f4445504f5349540000000000000000000000600082015250565b6000614677601583612f96565b915061468282614641565b602082019050919050565b600060608201905081810360008301526146a68161466a565b90506146b56020830185613584565b6146c26040830184613584565b9392505050565b7f456c206465706f7369746f206e6f207075656465207375706572617220656c2060008201527f6c696d6974652064656c20636f6e747261746f00000000000000000000000000602082015250565b6000614725603383612f96565b9150614730826146c9565b604082019050919050565b6000602082019050818103600083015261475481614718565b9050919050565b7f436f6d6d697373696f6e2063616e6e6f74206578636565642031303025000000600082015250565b6000614791601d83612f96565b915061479c8261475b565b602082019050919050565b600060208201905081810360008301526147c081614784565b9050919050565b7f434f4d4d495353494f4e5f5045525f5345434f4e445f4c4556454c5f5550444160008201527f5445440000000000000000000000000000000000000000000000000000000000602082015250565b6000614823602383612f96565b915061482e826147c7565b604082019050919050565b6000606082019050818103600083015261485281614816565b905061486160208301856143aa565b61486e6040830184613584565b9392505050565b60006fffffffffffffffffffffffffffffffff82169050919050565b600061489c82614875565b91506fffffffffffffffffffffffffffffffff82036148be576148bd613c04565b5b600182019050919050565b7f4d756c7469706c65206d7573742062652067726561746572207468616e203000600082015250565b60006148ff601f83612f96565b915061490a826148c9565b602082019050919050565b6000602082019050818103600083015261492e816148f2565b9050919050565b7f4445504f5349545f4d554c5449504c4500000000000000000000000000000000600082015250565b600061496b601083612f96565b915061497682614935565b602082019050919050565b6000606082019050818103600083015261499a8161495e565b90506149a96020830185613584565b6149b66040830184613584565b9392505050565b7f434f4d4d495353494f4e5f5045525f46495253545f4c4556454c5f555044415460008201527f4544000000000000000000000000000000000000000000000000000000000000602082015250565b6000614a19602283612f96565b9150614a24826149bd565b604082019050919050565b60006060820190508181036000830152614a4881614a0c565b9050614a5760208301856143aa565b614a646040830184613584565b9392505050565b7f4f776e61626c653a206e6577206f776e657220697320746865207a65726f206160008201527f6464726573730000000000000000000000000000000000000000000000000000602082015250565b6000614ac7602683612f96565b9150614ad282614a6b565b604082019050919050565b60006020820190508181036000830152614af681614aba565b9050919050565b7f4f776e61626c653a2063616c6c6572206973206e6f7420746865206f776e6572600082015250565b6000614b33602083612f96565b9150614b3e82614afd565b602082019050919050565b60006020820190508181036000830152614b6281614b26565b9050919050565b6000604082019050614b7e60008301856136f1565b614b8b60208301846136f1565b9392505050565b7f496e73756666696369656e7420616c6c6f77616e636500000000000000000000600082015250565b6000614bc8601683612f96565b9150614bd382614b92565b602082019050919050565b60006020820190508181036000830152614bf781614bbb565b9050919050565b7f4e6f206375656e74617320636f6e205553445420656e2074752077616c6c6574600082015250565b6000614c34602083612f96565b9150614c3f82614bfe565b602082019050919050565b60006020820190508181036000830152614c6381614c27565b9050919050565b7f4465706f7369746f206e6f2070756564652073657220766163696f0000000000600082015250565b6000614ca0601b83612f96565b9150614cab82614c6a565b602082019050919050565b60006020820190508181036000830152614ccf81614c93565b9050919050565b6000614ce18261329d565b9150614cec8361329d565b9250828202614cfa8161329d565b91508282048414831517614d1157614d10613c04565b5b5092915050565b6000614d238261329d565b9150614d2e8361329d565b925082614d3e57614d3d613b38565b5b828204905092915050565b7f4c612063616e74696461642061207472616e736665726972206465626520736560008201527f72206d61796f722061206365726f000000000000000000000000000000000000602082015250565b6000614da5602e83612f96565b9150614db082614d49565b604082019050919050565b60006020820190508181036000830152614dd481614d98565b9050919050565b7f46726f6d20627573696e65737320636f6e747261637400000000000000000000600082015250565b6000614e11601683612f96565b9150614e1c82614ddb565b602082019050919050565b60006040820190508181036000830152614e4081614e04565b9050614e4f6020830184613584565b92915050565b7f436f6e747261746f206e6f206375656e746120636f6e20737566696369656e7460008201527f657320666f6e646f730000000000000000000000000000000000000000000000602082015250565b6000614eb1602983612f96565b9150614ebc82614e55565b604082019050919050565b60006020820190508181036000830152614ee081614ea4565b9050919050565b7f4d6f6e746f20696e737566696369656e74650000000000000000000000000000600082015250565b6000614f1d601283612f96565b9150614f2882614ee7565b602082019050919050565b60006020820190508181036000830152614f4c81614f10565b9050919050565b6000606082019050614f6860008301866136f1565b614f7560208301856136f1565b614f826040830184613584565b949350505050565b6000604082019050614f9f60008301856136f1565b614fac6020830184613584565b9392505050565b7f416363657373436f6e74726f6c3a206163636f756e7420000000000000000000600082015250565b6000614fe96017836139e3565b9150614ff482614fb3565b601782019050919050565b7f206973206d697373696e6720726f6c6520000000000000000000000000000000600082015250565b60006150356011836139e3565b915061504082614fff565b601182019050919050565b600061505682614fdc565b91506150628285613a18565b915061506d82615028565b91506150798284613a18565b91508190509392505050565b6000615090826139d8565b61509a8185612f96565b93506150aa8185602086016139ee565b6150b38161330a565b840191505092915050565b600060208201905081810360008301526150d88184615085565b905092915050565b7f5265656e7472616e637947756172643a207265656e7472616e742063616c6c00600082015250565b6000615116601f83612f96565b9150615121826150e0565b602082019050919050565b6000602082019050818103600083015261514581615109565b9050919050565b60008151905061515b81613672565b92915050565b600060208284031215615177576151766130c0565b5b60006151858482850161514c565b91505092915050565b7f5361666545524332303a204552433230206f7065726174696f6e20646964206e60008201527f6f74207375636365656400000000000000000000000000000000000000000000602082015250565b60006151ea602a83612f96565b91506151f58261518e565b604082019050919050565b60006020820190508181036000830152615219816151dd565b9050919050565b7f4e487b7100000000000000000000000000000000000000000000000000000000600052603260045260246000fd5b600061525a8261329d565b91506000820361526d5761526c613c04565b5b600182039050919050565b7f537472696e67733a20686578206c656e67746820696e73756666696369656e74600082015250565b60006152ae602083612f96565b91506152b982615278565b602082019050919050565b600060208201905081810360008301526152dd816152a1565b9050919050565b7f416464726573733a20696e73756666696369656e742062616c616e636520666f60008201527f722063616c6c0000000000000000000000000000000000000000000000000000602082015250565b6000615340602683612f96565b915061534b826152e4565b604082019050919050565b6000602082019050818103600083015261536f81615333565b9050919050565b600081519050919050565b600081905092915050565b600061539782615376565b6153a18185615381565b93506153b18185602086016139ee565b80840191505092915050565b60006153c9828461538c565b915081905092915050565b7f416464726573733a2063616c6c20746f206e6f6e2d636f6e7472616374000000600082015250565b600061540a601d83612f96565b9150615415826153d4565b602082019050919050565b60006020820190508181036000830152615439816153fd565b905091905056fea264697066735822122083cd038c3d0b5096a4ea1f936fe6cf13239f1080ec17daedf06144e5a96c889464736f6c63430008140033",
  "devdoc": {
    "events": {
      "RoleAdminChanged(bytes32,bytes32,bytes32)": {
        "details": "Emitted when `newAdminRole` is set as ``role``'s admin role, replacing `previousAdminRole` `DEFAULT_ADMIN_ROLE` is the starting admin for all roles, despite {RoleAdminChanged} not being emitted signaling this. _Available since v3.1._"
      },
      "RoleGranted(bytes32,address,address)": {
        "details": "Emitted when `account` is granted `role`. `sender` is the account that originated the contract call, an admin role bearer except when using {AccessControl-_setupRole}."
      },
      "RoleRevoked(bytes32,address,address)": {
        "details": "Emitted when `account` is revoked `role`. `sender` is the account that originated the contract call:   - if using `revokeRole`, it is the admin role bearer   - if using `renounceRole`, it is the role bearer (i.e. `account`)"
      }
    },
    "kind": "dev",
    "methods": {
      "getRoleAdmin(bytes32)": {
        "details": "Returns the admin role that controls `role`. See {grantRole} and {revokeRole}. To change a role's admin, use {_setRoleAdmin}."
      },
      "grantRole(bytes32,address)": {
        "details": "Grants `role` to `account`. If `account` had not been already granted `role`, emits a {RoleGranted} event. Requirements: - the caller must have ``role``'s admin role. May emit a {RoleGranted} event."
      },
      "hasRole(bytes32,address)": {
        "details": "Returns `true` if `account` has been granted `role`."
      },
      "owner()": {
        "details": "Returns the address of the current owner."
      },
      "renounceOwnership()": {
        "details": "Leaves the contract without owner. It will not be possible to call `onlyOwner` functions. Can only be called by the current owner. NOTE: Renouncing ownership will leave the contract without an owner, thereby disabling any functionality that is only available to the owner."
      },
      "renounceRole(bytes32,address)": {
        "details": "Revokes `role` from the calling account. Roles are often managed via {grantRole} and {revokeRole}: this function's purpose is to provide a mechanism for accounts to lose their privileges if they are compromised (such as when a trusted device is misplaced). If the calling account had been revoked `role`, emits a {RoleRevoked} event. Requirements: - the caller must be `account`. May emit a {RoleRevoked} event."
      },
      "revokeRole(bytes32,address)": {
        "details": "Revokes `role` from `account`. If `account` had been granted `role`, emits a {RoleRevoked} event. Requirements: - the caller must have ``role``'s admin role. May emit a {RoleRevoked} event."
      },
      "supportsInterface(bytes4)": {
        "details": "See {IERC165-supportsInterface}."
      },
      "transferOwnership(address)": {
        "details": "Transfers ownership of the contract to a new account (`newOwner`). Can only be called by the current owner."
      }
    },
    "version": 1
  },
  "userdoc": {
    "kind": "user",
    "methods": {},
    "version": 1
  },
  "storageLayout": {
    "storage": [
      {
        "astId": 396,
        "contract": "contracts/FFFBusiness.sol:FFFBusiness",
        "label": "_owner",
        "offset": 0,
        "slot": "0",
        "type": "t_address"
      },
      {
        "astId": 24,
        "contract": "contracts/FFFBusiness.sol:FFFBusiness",
        "label": "_roles",
        "offset": 0,
        "slot": "1",
        "type": "t_mapping(t_bytes32,t_struct(RoleData)19_storage)"
      },
      {
        "astId": 512,
        "contract": "contracts/FFFBusiness.sol:FFFBusiness",
        "label": "_status",
        "offset": 0,
        "slot": "2",
        "type": "t_uint256"
      },
      {
        "astId": 2675,
        "contract": "contracts/FFFBusiness.sol:FFFBusiness",
        "label": "_MEMBER_KEY",
        "offset": 0,
        "slot": "3",
        "type": "t_bytes32"
      },
      {
        "astId": 2678,
        "contract": "contracts/FFFBusiness.sol:FFFBusiness",
        "label": "token",
        "offset": 0,
        "slot": "4",
        "type": "t_contract(IERC20)644"
      },
      {
        "astId": 2680,
        "contract": "contracts/FFFBusiness.sol:FFFBusiness",
        "label": "_businessWallet",
        "offset": 0,
        "slot": "5",
        "type": "t_address_payable"
      },
      {
        "astId": 2682,
        "contract": "contracts/FFFBusiness.sol:FFFBusiness",
        "label": "_totalMembers",
        "offset": 0,
        "slot": "6",
        "type": "t_uint128"
      },
      {
        "astId": 2684,
        "contract": "contracts/FFFBusiness.sol:FFFBusiness",
        "label": "_totalBalance",
        "offset": 0,
        "slot": "7",
        "type": "t_uint256"
      },
      {
        "astId": 2686,
        "contract": "contracts/FFFBusiness.sol:FFFBusiness",
        "label": "_MIN_AMOUNT_TO_DEPOSIT",
        "offset": 0,
        "slot": "8",
        "type": "t_uint256"
      },
      {
        "astId": 2688,
        "contract": "contracts/FFFBusiness.sol:FFFBusiness",
        "label": "_MAX_CONTRACT_BALANCE",
        "offset": 0,
        "slot": "9",
        "type": "t_uint256"
      },
      {
        "astId": 2690,
        "contract": "contracts/FFFBusiness.sol:FFFBusiness",
        "label": "_DEPOSIT_MULTIPLE",
        "offset": 0,
        "slot": "10",
        "type": "t_uint256"
      },
      {
        "astId": 2692,
        "contract": "contracts/FFFBusiness.sol:FFFBusiness",
        "label": "_MEMBERSHIP_PAYMENT_TO_BUSINESS",
        "offset": 0,
        "slot": "11",
        "type": "t_uint256"
      },
      {
        "astId": 2694,
        "contract": "contracts/FFFBusiness.sol:FFFBusiness",
        "label": "_MEMBERSHIP_PAYMENT_TO_UPLINE",
        "offset": 0,
        "slot": "12",
        "type": "t_uint256"
      },
      {
        "astId": 2696,
        "contract": "contracts/FFFBusiness.sol:FFFBusiness",
        "label": "_COMMISSION_PER_TIER_ONE",
        "offset": 0,
        "slot": "13",
        "type": "t_uint8"
      },
      {
        "astId": 2698,
        "contract": "contracts/FFFBusiness.sol:FFFBusiness",
        "label": "_COMMISSION_PER_TIER_TWO",
        "offset": 1,
        "slot": "13",
        "type": "t_uint8"
      },
      {
        "astId": 2700,
        "contract": "contracts/FFFBusiness.sol:FFFBusiness",
        "label": "_COMMISSION_PER_TIER_THREE",
        "offset": 2,
        "slot": "13",
        "type": "t_uint8"
      }
    ],
    "types": {
      "t_address": {
        "encoding": "inplace",
        "label": "address",
        "numberOfBytes": "20"
      },
      "t_address_payable": {
        "encoding": "inplace",
        "label": "address payable",
        "numberOfBytes": "20"
      },
      "t_bool": {
        "encoding": "inplace",
        "label": "bool",
        "numberOfBytes": "1"
      },
      "t_bytes32": {
        "encoding": "inplace",
        "label": "bytes32",
        "numberOfBytes": "32"
      },
      "t_contract(IERC20)644": {
        "encoding": "inplace",
        "label": "contract IERC20",
        "numberOfBytes": "20"
      },
      "t_mapping(t_address,t_bool)": {
        "encoding": "mapping",
        "key": "t_address",
        "label": "mapping(address => bool)",
        "numberOfBytes": "32",
        "value": "t_bool"
      },
      "t_mapping(t_bytes32,t_struct(RoleData)19_storage)": {
        "encoding": "mapping",
        "key": "t_bytes32",
        "label": "mapping(bytes32 => struct AccessControl.RoleData)",
        "numberOfBytes": "32",
        "value": "t_struct(RoleData)19_storage"
      },
      "t_struct(RoleData)19_storage": {
        "encoding": "inplace",
        "label": "struct AccessControl.RoleData",
        "members": [
          {
            "astId": 16,
            "contract": "contracts/FFFBusiness.sol:FFFBusiness",
            "label": "members",
            "offset": 0,
            "slot": "0",
            "type": "t_mapping(t_address,t_bool)"
          },
          {
            "astId": 18,
            "contract": "contracts/FFFBusiness.sol:FFFBusiness",
            "label": "adminRole",
            "offset": 0,
            "slot": "1",
            "type": "t_bytes32"
          }
        ],
        "numberOfBytes": "64"
      },
      "t_uint128": {
        "encoding": "inplace",
        "label": "uint128",
        "numberOfBytes": "16"
      },
      "t_uint256": {
        "encoding": "inplace",
        "label": "uint256",
        "numberOfBytes": "32"
      },
      "t_uint8": {
        "encoding": "inplace",
        "label": "uint8",
        "numberOfBytes": "1"
      }
    }
  }
}